:020000040800F2
:100000001804002045010008FD020008AD020008A8
:10001000B10200088D010008710400080000000012
:1000200000000000000000000000000021030008A4
:100030009101000800000000FF0200080D04000804
:100040005F0100085F0100085F0100085F01000810
:100050005F0100085F0100085F0100085F01000800
:100060005F0100085F0100085F0100085F010008F0
:100070005F0100085F0100085F0100085F010008E0
:100080005F0100085F0100085F0100085F010008D0
:100090005F0100085F0100085F0100085F010008C0
:1000A0005F0100085F0100085F0100085F010008B0
:1000B0005F0100085F0100085F0100085F010008A0
:1000C0005F0100085F0100085F0100085F01000890
:1000D0005F0100085F0100085F0100085F01000880
:1000E0005F0100085F0100085F0100085F01000870
:1000F0005F0100085F0100085F0100085F01000860
:100100005F0100085F0100085F0100085F0100084F
:100110005F0100085F0100085F0100085F0100083F
:100120005F0100085F0100085F0100085F0100082F
:10013000DFF80CD000F018F800480047410500082F
:10014000180400200648804706480047FEE7FEE7FF
:10015000FEE7FEE7FEE7FEE7FEE7FEE7FEE7FEE777
:100160001104000831010008064C074D06E0E06864
:1001700040F0010394E8070098471034AC42F6D3EE
:10018000FFF7DAFF90050008B005000800BFFEE7A2
:1001900070472DE9F041024600250026002000238B
:1001A0000024002791F803C00CF00F0591F803C05C
:1001B0000CF0100CBCF1000F03D091F802C04CEA17
:1001C000050591F800C0BCF1000F31D01468002083
:1001D0002BE04FF0010C0CFA00F3B1F800C00CEA70
:1001E00003069E4220D183004FF00F0C0CFA03F758
:1001F000BC4305FA03FC4CEA040491F803C0BCF1CB
:10020000280F06D14FF0010C0CFA00FCC2F814C004
:100210000AE091F803C0BCF1480F05D14FF0010C82
:100220000CFA00FCC2F810C0401C0828D1D314609E
:10023000B1F800C0BCF1FF0F34DD546800202EE09F
:1002400000F1080C4FF0010808FA0CF3B1F800C0F7
:100250000CEA03069E4221D183004FF00F0C0CFAEA
:1002600003F7BC4305FA03FC4CEA040491F803C00D
:10027000BCF1280F05D100F1080C08FA0CF8C2F8FF
:10028000148091F803C0BCF1480F07D100F1080CAD
:100290004FF0010808FA0CF8C2F81080401C08283A
:1002A000CED35460BDE8F0814161704700BFFEE7E6
:1002B00000BFFEE770B50446002534B90E4800685B
:1002C00020F080000C49086005E00B48006840F011
:1002D00080000949086000250AE04FF4486000F0FA
:1002E000E4F80548006880F04000034908606D1C90
:1002F000B5F5486FF1DB70BD0C08014070477047E1
:1003000029B1064A92690243044B9A6104E0034A08
:1003100092698243014B9A617047000000100240CD
:10032000704710B500F002F810BD00000CB50020B9
:10033000019000903348006840F4803031490860F3
:1003400000BF3048006800F4003000900198401C65
:100350000190009818B90198B0F5A06FF1D1294823
:10036000006800F4003010B10120009001E000208E
:1003700000900098012843D12348006840F0100005
:10038000214908600846006820F00300086008461C
:10039000006840F0020008601A4840681949486047
:1003A0000846406848600846406840F480604860FD
:1003B0000846406820F47C1048600846406840F4D5
:1003C000E81048600846006840F08070086000BF90
:1003D0000C48006800F000700028F9D00948406817
:1003E00020F00300074948600846406840F00200DA
:1003F000486000BF0348406800F00C000828F9D1AD
:100400000CBD0000001002400020024070470000B8
:1004100010B51348006840F0010011490860084613
:100420004068104908400E494860084600680E4977
:1004300008400B4908600846006820F480200860E6
:100440000846406820F4FE0048604FF41F008860B2
:10045000FFF767FF4FF000600449086010BD00001F
:10046000001002400000FFF8FFFFF6FE08ED00E07C
:1004700000BFFEE702E008C8121F08C1002AFAD137
:1004800070477047002001E001C1121F002AFBD114
:10049000704710B500F003F800F03CF810BD10B53F
:1004A00001210420FFF72CFF10BD00E0401E0028B2
:1004B000FCDC704708B5002100916FF07F414FF0E0
:1004C000E0225161002191610521116114E00021B8
:1004D0004FF0E02291610E4909684FF47A72B1FB46
:1004E000F2F1C1F18071009100BF4FF0E021896904
:1004F000009A9142F9D8401E0028E8DC4FF0E02134
:10050000096921F001014FF0E022116108BD0000EE
:100510000000002008B5E020ADF8000010208DF8A4
:10052000030003208DF8020069460448FFF731FEFE
:10053000E0210248FFF7B8FE08BD000000080140B6
:100540001CB5002001900090FFF7A3FF4FF4FA6064
:10055000FFF7B0FF1BE00020FFF7ACFE4FF47A700E
:10056000FFF7A8FF0020FFF7A5FE4FF47A70FFF712
:10057000A1FF0120FFF79EFE4FF47A70FFF79AFF6C
:100580000120FFF797FE4FF47A70FFF793FFE2E741
:10059000B0050008000000201400000074040008EA
:1005A000C4050008140000200404000084040008AE
:1005B00000A24A0400000000000000000102030441
:0405C0000607080919
:0400000508000131BD
:00000001FF
