:020000040800F2
:1000000010090020A9010008ED0F0008350F0008B5
:10001000E90F0008990D0008971D00080000000076
:10002000000000000000000000000000191400089B
:10003000F90D00080000000001130008491700082E
:10004000C3010008C3010008C3010008C301000880
:10005000C3010008C3010008C3010008C301000870
:10006000C3010008C3010008C3010008C301000860
:10007000C3010008C3010008C3010008C301000850
:10008000C3010008C3010008C3010008C301000840
:10009000C3010008C3010008C3010008C301000830
:1000A000C3010008C3010008C3010008C301000820
:1000B000AD17000839180008C3010008C301000883
:1000C000C3010008C3010008C3010008C301000800
:1000D000C3010008291A0008C51A0008411B0008BE
:1000E000C3010008C3010008C301000800F002F8C2
:1000F00000F04BF80AA090E8000C82448344AAF177
:100100000107DA4501D100F040F8AFF2090EBAE874
:100110000F0013F0010F18BFFB1A43F0010318473B
:10012000601E0000801E0000103A24BF78C878C10D
:10013000FAD8520724BF30C830C144BF04680C60ED
:10014000704700000023002400250026103A28BF35
:1001500078C1FBD8520728BF30C148BF0B60704739
:100160001FB59DE8030000F0EDFB00F0B1FA0400BC
:100170000020002101F032FE401C606000F0B4F964
:100180001FBD10B500F019FA10BD00F07CFA114641
:10019000FFF7E6FF01F009FE00F0A6FB03B4FFF74E
:1001A000F0FF03BC00F060FD0948804709480047A4
:1001B000FEE7FEE7FEE7FEE7FEE7FEE7FEE7FEE717
:1001C000FEE7FEE704480549054A064B7047000074
:1001D0004D170008ED000008100300201009002052
:1001E00010050020100500200FB4044910B503AA23
:1001F000029800F08FF810BC5DF814FB0802002094
:1002000070B5064600F082F80468054630460A22BA
:10021000002100F091F82C6070BD30B505460B460A
:100220002A4613F8014B12F8010B08B1A042F8D08E
:100230001CB1002802D06D1CF1E7284630BD4FF0FC
:1002400000020429C0F0128010F0030C00F0AE8010
:10025000CCF1040CBCF1020F18BF00F8012BA8BFB1
:1002600020F8022BA1EB0C0100F0A0B85FEAC17CE2
:1002700024BF00F8012B00F8012B48BF00F8012B28
:10028000704700004FF0013C50F8042B51F8043B3C
:100290009A4221D1A2EB0C03934313EACC1317D15A
:1002A00050F8042B51F8043B9A4215D1A2EB0C03F1
:1002B000934313EACC130BD150F8042B51F8043BB1
:1002C0009A4209D1A2EB0C03934313EACC13DBD07F
:1002D0004FF00000704700BFD01A01BAB1FA81F1A7
:1002E00001F0180122FA01F0CB40C1F12001DBB28C
:1002F000C0B2C01A2CFA01F3D11A914311EAC3110A
:10030000E6D170477047704770470000004870475B
:10031000B0020020074B70B50D467B4400F07DF81D
:100320000446284600F0DBF810B14FF0FF3070BDF6
:10033000204670BD7D1A00002DE9F04791460F461A
:1003400080460446002614F8015B2DB100F058F8F1
:100350000068405DC007F6D12B2D02D02D2D18D09E
:10036000641E4A463946204600F06AF827B13968CB
:10037000A14201D1C7F800804FF0020471050BD5EE
:100380004042002803DDFFF7C1FF0460A007BDE87D
:10039000F08746F48066E4E70028F8DAFFF7B6FF56
:1003A00004606FF00040F2E74FF0000200B5134622
:1003B00094469646203922BFA0E80C50A0E80C5085
:1003C000B1F12001BFF4F7AF090728BFA0E80C5036
:1003D00048BF0CC05DF804EB890028BF40F8042B2F
:1003E00008BF704748BF20F8022B11F0804F18BF9C
:1003F00000F8012B7047000000487047B002002051
:1004000010B500F065F9001D10BD00BFD119000046
:1004100001694A1C02610878704700B58FB0CDE9C8
:1004200001310021059105497944CDE903101146B8
:10043000684600F078F90FB000BD0000E5FFFFFF4F
:100440002DE9F05F824615468B4600270AF101042C
:10045000B9460078302801D09DB113E014F8010BA3
:100460000127782803D0582801D045B10AE00DB102
:10047000102D07D1002714F8010B102502E00825E4
:1004800000E00A250026B0460EE005FB080005FB4B
:1004900006F101271FFA80F801EB1046B6F5803F00
:1004A00000D3B94614F8010B294600F050F9002892
:1004B000EBDABBF1000F05D00FB1641E00E054462B
:1004C000CBF80040B9F1000F06D0FFF71FFF022163
:1004D0000160C81EBDE8F09F48EA0640FAE7007BCD
:1004E00000F080007047000010B542485421FFF72B
:1004F0005BFF41485421FFF757FF40485421FFF765
:1005000053FF3F493B483C4A3F4B08603D490A6026
:100510003A491960531C0365481C106501200865A1
:100520003B48344A39A1784400F042F920B93848B0
:1005300078440A3800F0E1F937482F4A35A1784469
:1005400000F036F920B9344878440A3800F0D5F97B
:1005500032482A4A2FA1784400F02AF920B92F48BE
:1005600078440A3800F0C9F940232248DC00002111
:10057000224600F0FAF820B125487844543800F0BB
:10058000BCF91D4822464023002100F0EEF820B1BE
:1005900021487844543800F0B0F918482246102316
:1005A000002100F0E2F8002806D01C487844BDE89D
:1005B0001040563800F0A1B910BD104870B5006D5C
:1005C00020F001040B4800F069F90B4800F066F9CF
:1005D0000A4800F063F909E0206D20F0010520468B
:1005E00000F05CF9204600F077F82C46002CF3D19F
:1005F00070BD0000B4010020080200205C02002051
:10060000280000202C000020300000207200000094
:10061000471A000077000000331A00001F1A00007C
:100620000EB5CDE9000100F0FFFA02906946012005
:10063000ABBE0EBD08B5694600900220ABBE08BD3A
:100640001FB58DE8070069460520ABBE04B010BD9C
:100650001FB58DE80F0069460620ABBEF6E708B56A
:10066000694600900920ABBE08BD1CB5CDE900016C
:1006700069460A20ABBE1CBD704708B569460090AC
:100680000C20ABBE08BD7546FFF7B6FEAE460500B2
:100690006946534620F00700854618B020B5FFF79D
:1006A00091FDBDE820404FF000064FF000074FF0ED
:1006B00000084FF0000B21F00701AC46ACE8C00980
:1006C000ACE8C009ACE8C009ACE8C0098D46704789
:1006D00000487047D002002070B50446051F00F0A6
:1006E00015F90068002C14BF446870BD002C18BFB9
:1006F000AC423CBF20466468F8D301680A18AA429D
:1007000018BF456003D12A68054611440160286876
:100710004119A1421CBF6C6070BD616869602168AD
:100720000844286070BD2DE9F04106460024D6E952
:100730000170F5688046304603E04146B847641CC6
:100740003046A8470028F8D12046BDE8F0813A2875
:1007500000D2303820F02002412A01D3A2F1370024
:10076000884201D34FF0FF30704770B5C468A507C9
:1007700013D0650211D4B2F5807F09D0B2F5007FA5
:1007800006D0B2F5806F08D1012300F1240106E004
:100790005D1E6FF07F46B54201D3012070BD01613F
:1007A000C361416024F470611143C160002070BDD9
:1007B0002DE9F0410C4607461646104600F06EF84B
:1007C0002078611C61280AD0722802D077283CD199
:1007D00002E00125002405E00225042402E00824AB
:1007E00048F2020511F8010B2B2806D0622809D027
:1007F00011F8010C74280AD00BE045F0030544F011
:100800000204EFE745F0040544F00104EAE744F090
:10081000100438462146FFF703FF411C15D0002184
:10082000316171604FF40071F560F1617061200712
:1008300004D530460222002100F0E2F8306D40F08D
:10084000010030653046BDE8F0810020FBE72DE96E
:10085000F0410D460646104C206DC10704D04108FA
:1008600004D020F00104F7E722460EE0542000F007
:1008700098F807000ED0206D47F00101084354217D
:1008800020653846FFF790FD3A4629463046BDE8D8
:10089000F0418DE70020D6E7B40100202DE9F047B4
:1008A00004464FF000094FF0FF37C568D4E90486CD
:1008B000A80707D0204600F053F93046FFF7BAFEEC
:1008C000002802DA3846BDE8F087280502D5404600
:1008D000FFF702FF4C212046FFF766FD206D20F058
:1008E000010020654846EEE710B50446AFF30080EE
:1008F0002046BDE81040FFF751BC10B500F07AF972
:10090000BDE8104000F070B9704700000048704723
:10091000B8020020704770477047704738B50446EA
:100920000A4600206946AFF30080002808BF38BDA2
:1009300002460099204600F0A4F9012038BD0120AC
:1009400000F0F3B9F8B5AFF30080054600200C467F
:10095000102000BF0646A819A0420DD932466946AC
:100960000020AFF30080070008BF00F0DEF9009818
:10097000A04218BF0546C419FFF7C8FF0560074627
:10098000F01D20F007004619284600F073F9B44224
:1009900008BFF8BDA21B31463868BDE8F84000F03A
:1009A00070B970B50646FFF7B1FF056806F10B0098
:1009B00020F00704B4429CBF002070BD2B466A683B
:1009C000BAB11068A04210D304F1080188423CBFBC
:1009D0005068586007D35168101941601168091BAD
:1009E000016058601460101D70BD13465268002AE3
:1009F000E7D121462846FFF791FF0028DED170BDE0
:100A00002DE9F041044616460D464769007B8007F4
:100A10002ED03846FFF723FE50BB3EB3012E02D046
:100A2000022E25D104E0204600F045F905441DE0E2
:100A30003846FFF722FEE168002841F01001E1602E
:100A400005DA204600F058F80120BDE8F081C9031E
:100A50000BD56268E16A914200D81146A26911443F
:100A60002269891A814200DD08460544002D01DA19
:100A70000220EAE7E16A6068E268814206D29103F7
:100A8000E06203D522F4003141F01002A66900278C
:100A9000AE4213DCE16A814201D90B4600E0034615
:100AA00003EB060C2369ACEB030CAC4506DD81427D
:100AB00001D98C4600E084469C4505D1A76027609B
:100AC00042F02000A5620DE0AD1BE669AE1B81423D
:100AD000A66000D90846C01A281A2060581960601C
:100AE00022F0200003490840E060002084F84870AC
:100AF000ABE70000BFCFD7FFC16821F4001141F080
:100B00008001C16000218160016070472DE9F047DC
:100B1000814614460E464FF0FF383248D568576973
:100B2000054209D03846A169FFF79FFD002811DB77
:100B30002C48C0430540E5602B46324649463846BE
:100B4000FFF77EFDA16920F00042B21A114400288F
:100B5000A16103D02046FFF7CFFF4046BDE8F087F4
:100B600070B504460569C06A6168884200D80846C5
:100B7000E16821F42011E160C90312D5A84208D030
:100B80002246411B2846FFF7C1FF10B14FF0FF304E
:100B900070BD0020E562C4E90150E06820F48030B7
:100BA000E060002070BD10B50446C06820F0200051
:100BB000E060A16AA06988420DD02046FFF7D0FF0F
:100BC000E06820F4405040F01000E060A06AA061AE
:100BD0002069E062606044F24001E0688843E060C0
:100BE00010BD000010000200002801D000F03CB849
:100BF0007047000010B5014602A000F07DF801200A
:100C000010BD000053494752545245443A205265A2
:100C10006469726563743A2063616E2774206F7033
:100C2000656E3A200000000010B5431C02E010F889
:100C3000011B71B18107FAD14FF0013202C88C1A41
:100C40008C4314EAC211F9D0C01A0A0603D0C01EA0
:100C500010BDC01A10BD0A0401D0801E10BD0902CB
:100C6000FCD0401E10BD000001491820ABBEFEE7BD
:100C70002600020000210160C0E901107047102029
:100C80007047034640688C46002818BF88423CBF26
:100C900003464068F8D318681844884207D00CF11E
:100CA000030020F00700001D411A521A0146081DDA
:100CB0000A60FFF711BD10B50146C268900703D066
:100CC000900607D5886A0AE0FFF720FB0121016042
:100CD000881E10BD8B69486818440B69C01A91F8CA
:100CE00048301BB191F84910401A10BD1103FCD5D2
:100CF0000028FADD401E10BD70B505460C460A20DE
:100D000000E06D1C00F018F835B128780028F8D103
:100D100002E0641C00F010F814B120780028F8D12B
:100D2000BDE870400A2000F007B810B500F00CF8DC
:100D3000BDE81040FFF758BF08B569468DF80000C0
:100D40000320ABBE08BD000010B5012805D000216E
:100D500003A0FFF7D1FF012010BD09A1F8E70000B3
:100D600053494752544D454D3A204F7574206F6694
:100D70002068656170206D656D6F727900000000FC
:100D80003A2048656170206D656D6F727920636FE0
:100D9000727275707465640000BFFEE706480068F3
:100DA000002802DA00200449086003480068401E59
:100DB00001490860704700001400002006480068E0
:100DC000032802DD03200449086003480068401C32
:100DD00001490860704700001400002010B502A00F
:100DE000FFF702FA10BD0000E69CAAE79FA5E68C7B
:100DF00087E4BBA40D0A000070472DE9F0410246CC
:100E000000250026002000230024002791F803C0BD
:100E10000CF00F0591F803C00CF0100CBCF1000FA2
:100E200003D091F802C04CEA050591F800C0BCF16E
:100E3000000F31D0146800202BE04FF0010C0CFAA9
:100E400000F3B1F800C00CEA03069E4220D18300F3
:100E50004FF00F0C0CFA03F7BC4305FA03FC4CEA05
:100E6000040491F803C0BCF1280F06D14FF0010C27
:100E70000CFA00FCC2F814C00AE091F803C0BCF1FF
:100E8000480F05D14FF0010C0CFA00FCC2F810C05D
:100E9000401C0828D1D31460B1F800C0BCF1FF0F8A
:100EA00034DD546800202EE000F1080C4FF00108FA
:100EB00008FA0CF3B1F800C00CEA03069E4221D1F7
:100EC00083004FF00F0C0CFA03F7BC4305FA03FC48
:100ED0004CEA040491F803C0BCF1280F05D100F1DD
:100EE000080C08FA0CF8C2F8148091F803C0BCF1A1
:100EF000480F07D100F1080C4FF0010808FA0CF870
:100F0000C2F81080401C0828CED35460BDE8F081A0
:100F100002460020D3680B400BB1012000E0002006
:100F2000704741617047016170470AB1016100E09B
:100F30004161704700BFFEE708B50121082000F0BD
:100F4000F1F948208DF803000220ADF800000320DD
:100F50008DF8020069460848FFF74FFF48208DF8DA
:100F600003004020ADF8000003208DF80200694620
:100F70000248FFF742FF08BD000C01400008014095
:100F800010B501210148FFF7CEFF10BD0008014058
:100F900010B501210648FFF7BBFF20B90121044825
:100FA000FFF7C1FF03E001210148FFF7BAFF10BDC1
:100FB0000008014008B50121042000F0B3F9102019
:100FC0008DF803000120ADF8000003208DF8020029
:100FD00069460448FFF711FF01210248FFF7A1FF0E
:100FE00008BD00000008014000BFFEE77047000098
:100FF00070B5002100230F22C47804B3154C246877
:1010000004F4E064C4F5E064210AC1F10403CA40B9
:10101000447804FA03F184781440214309010E4C0A
:101020000678A155047804F01F050124AC4005782A
:101030006D11AD0005F1E025C5F8004109E0047827
:1010400004F01F050124AC40044D0678761145F8E4
:10105000264070BD0CED00E000E400E080E100E01F
:1010600002490143024A1160704700000000FA057E
:101070000CED00E070B500240EE00021204600F0E9
:10108000E6F8002504E0002000F002F9681CC5B273
:10109000802DF8DB601CC4B2082CEEDB70BD0000B4
:1010A00008B50121082000F03DF914208DF8030057
:1010B00003208DF802004FF48070ADF800006946FF
:1010C0000A48FFF79AFE4FF40070ADF80000694639
:1010D0000648FFF792FE012211020448FFF725FFA0
:1010E000012251020148FFF720FF08BD000C01401A
:1010F00070B50546002415E08020204100EA050275
:101100004FF400710E48FFF710FF012211020C4846
:10111000FFF70BFF00224FF480710948FFF705FF2E
:10112000601CC4B2082CE7DB012211020448FFF75F
:10113000FCFE00224FF480710148FFF7F6FE70BDFF
:10114000000C014010B5012251020A48FFF7EDFEE4
:10115000012211020748FFF7E8FE00224FF4007158
:101160000448FFF7E2FE00224FF480710148FFF7C8
:10117000DCFE10BD000C014010B500224FF40071E0
:101180000648FFF7D2FE012211020448FFF7CDFE08
:10119000012251020148FFF7C8FE10BD000C0140BA
:1011A00070B5002406E0002500E06D1CB5F57A7FDF
:1011B000FBD3641CB4F57A7FF5D3FFF771FFAE2043
:1011C00000F056F8D52000F053F8802000F050F8D9
:1011D000A82000F04DF83F2000F04AF8D32000F09E
:1011E00047F8002000F044F8402000F041F8A1202A
:1011F00000F03EF8C82000F03BF8DA2000F038F8A4
:10120000122000F035F8812000F032F8CF2000F0F5
:101210002FF8D92000F02CF8F12000F029F8DB207D
:1012200000F026F8302000F023F8A42000F020F889
:10123000A62000F01DF88D2000F01AF8142000F010
:1012400017F8AF2000F014F8FFF714FF70BD70B569
:1012500005460C4645F0B00000F00AF8102141EABE
:10126000141000F005F804F00F0000F001F870BD54
:1012700010B50446FFF766FF7820FFF739FF00201E
:10128000FFF736FF2046FFF733FFFFF775FF10BD6E
:1012900010B50446FFF756FF7820FFF729FF4020DE
:1012A000FFF726FF2046FFF723FFFFF765FF10BD7E
:1012B00070B505460E46002419E004EBC4000F4A41
:1012C00002EB80012846FEF7DDFF70B904EBC40095
:1012D0000A4901EB8000006A30B104EBC401074AFF
:1012E00002EB8101086A804770BD601CC4B20A2C01
:1012F000E3DBFFF773FD00BFF6E70000081E000800
:101300007047000029B1064AD2690243044BDA61F2
:1013100004E0034AD2698243014BDA61704700005E
:101320000010024029B1064A92690243044B9A61B7
:1013300004E0034A92698243014B9A6170470000BE
:101340000010024030B500210022002400232D4D62
:101350006D6805F00C0121B1042905D0082923D1BD
:1013600005E0294D056022E0274D05601FE0254D71
:101370006D6805F47012234D6D6805F48034022504
:1013800005EB92421CB9214D554305600BE01D4D04
:101390006D6805F400351DB11C4D5543056002E034
:1013A000194D5543056002E0174D056000BF00BFB1
:1013B000144D6D6805F0F0010909154D6B5C056869
:1013C000DD4045600F4D6D6805F4E061090A104D80
:1013D0006B5C4568DD4085600A4D6D6805F46051C1
:1013E000C90A0B4D6B5C4568DD40C560054D6D68F5
:1013F00005F44041890B074D6B5CC568B5FBF3F5FF
:10140000056130BD0010024000127A0000093D0065
:1014100000000020100000207047000000B587B0D9
:1014200001214804FFF76EFF01210520FFF77AFF35
:1014300018208DF81B0003208DF81A000420ADF849
:10144000180006A92048FFF7D8FC48208DF81B009B
:1014500003208DF81A000820ADF8180006A91A48D4
:10146000FFF7CBFC4FF4165002900020ADF81400AB
:101470000C20ADF812000020ADF81000ADF80E0001
:10148000ADF80C0002A9114800F010FC012240F256
:1014900025510E4800F0E4FB4FF4A060FFF7E0FD9B
:1014A00026208DF8040001208DF807008DF8050036
:1014B00002208DF8060001A8FFF79AFD01210348DC
:1014C00000F08BFB07B000BD000801400044004065
:1014D00010B504462146054800F059FC00BF8021A4
:1014E000024800F086FB0028F9D010BD00440040FF
:1014F00000B587B001210820FFF714FF01218804FF
:10150000FFF700FF18208DF81B0003208DF81A004C
:101510004FF48060ADF8180006A92148FFF76DFC74
:1015200048208DF81B0003208DF81A004FF400604E
:10153000ADF8180006A91A48FFF75FFC4FF41650E3
:1015400002900020ADF814000C20ADF8120000202D
:10155000ADF81000ADF80E00ADF80C0002A911486E
:1015600000F0A4FB012240F225510E4800F078FB68
:101570004FF4A060FFF774FD27208DF804000120D0
:101580008DF807008DF8050003208DF8060001A8EE
:10159000FFF72EFD0121034800F01FFB07B000BD3F
:1015A000000C01400048004000B587B001218803CD
:1015B000FFF7B8FE01210420FFF7B4FE18208DF8D4
:1015C0001B0003208DF81A004FF40070ADF81800CE
:1015D00006A92148FFF711FC48208DF81B000320C5
:1015E0008DF81A004FF48060ADF8180006A91A486B
:1015F000FFF703FC4FF4165002900020ADF81400E2
:101600000C20ADF812000020ADF81000ADF80E006F
:10161000ADF80C0002A9114800F048FB012240F28D
:1016200025510E4800F01CFB4FF4A060FFF718FD99
:1016300025208DF8040001208DF807008DF80500A5
:101640008DF8060001A8FFF7D3FC0121034800F044
:10165000C4FA07B000BD0000000801400038014096
:1016600010B500F001F810BD0CB5002001900090FD
:101670003348006840F480303149086000BF30488A
:10168000006800F4003000900198401C0190009820
:1016900018B90198B0F5A06FF1D12948006800F49D
:1016A000003010B10120009001E00020009000986F
:1016B000012843D12348006840F010002149086008
:1016C0000846006820F0030008600846006840F003
:1016D000020008601A484068194948600846406896
:1016E00048600846406840F48060486008464068AA
:1016F00020F47C1048600846406840F4E8104860D8
:101700000846006840F08070086000BF0C48006820
:1017100000F000700028F9D00948406820F003006C
:10172000074948600846406840F00200486000BF32
:101730000348406800F00C000828F9D10CBD0000F7
:1017400000100240002002407047000010B513480E
:10175000006840F0010011490860084640681049DF
:1017600008400E494860084600680E4908400B4989
:1017700008600846006820F4802008600846406839
:1017800020F4FE0048604FF41F008860FFF768FFF8
:101790004FF000600449086010BD000000100240D6
:1017A0000000FFF8FFFFF6FE08ED00E010B5012194
:1017B000880700F061F8012837D10121800700F087
:1017C0004CF81A4800880A301849088008460088F2
:1017D000B0F57A7F0FDB0020088015480078401CA8
:1017E0001349087008460078032801DD01200870BD
:1017F0000020104908700E4804780E480078A04276
:1018000007DAFFF7C5FB0B480078401C0949087050
:101810000AE008480078A04206D1FFF7B1FB05486E
:101820000078401C0349087000BF10BD1C00002058
:101830001A0000201B00002010B50121044800F010
:101840001BF8012803D10121014800F006F810BD62
:1018500000040040CA4302827047CA4302827047B4
:1018600021B1028842F00102028004E002884FF6B2
:10187000FE731A400280704730B5024600200023F4
:101880000024158A05EA0103958905EA010413B1CC
:101890000CB1012000E0002030BD1AB183890B4358
:1018A000838102E083898B43838170470022028811
:1018B0001D4B98420ED01D4B98420BD0B0F1804F7B
:1018C00008D01B4B984205D01A4B984202D01A4BB5
:1018D000984204D14FF68F731A404B881A43174B26
:1018E000984207D0164B984204D04FF6FF431A4057
:1018F000CB881A4302808B8883850B8803850A4B2B
:1019000098420BD0094B984208D00E4B984205D014
:101910000D4B984202D00D4B984201D10B7A0386B1
:101920000123838270470000002C014000340140F5
:101930000004004000080040000C0040001000407F
:1019400000140040004001400044014000480140B4
:101950001FB501210846FFF7D5FC0020ADF80A00AD
:10196000ADF806006320ADF8080041F61F40ADF861
:10197000040000208DF80C0001A94FF08040FFF713
:1019800095FF01218807FFF765FF012211469007A7
:10199000FFF783FF1C208DF8000001208DF8030065
:1019A0008DF8010000208DF802006846FFF720FB4B
:1019B00000214FF08040FFF753FF1FBD1FB50121ED
:1019C0000220FFF79FFC0020ADF80A00ADF80600EA
:1019D00042F20F70ADF8080041F61F40ADF8040068
:1019E00000208DF80C0001A90E48FFF75FFF0121D0
:1019F0000C48FFF72FFF012211460A48FFF74DFF61
:101A00001D208DF8000001208DF803008DF80100E5
:101A10008DF802006846FFF7EBFA00210148FFF756
:101A20001FFF1FBD0004004070B540F225511E4845
:101A300000F0ECF8002836D01B4800F0A3F9C4B23F
:101A40001A4800887F280BDA184801880088401C53
:101A5000164A10801648445400211288815402E02E
:101A600000201249088013A11148FEF7D6FBA0B14F
:101A700010A10F48FEF7D1FBC51D2846FEF7C0FB9D
:101A80000E49086001200E49087080210848FEF7C1
:101A9000D6FB00200549088000BF40F225510248CE
:101AA00000F08CF800BF70BD003801401E0000201F
:101AB00034000020236C6564203D200014000020C9
:101AC0002400002010B540F225511A4800F09EF87D
:101AD00078B3184800F056F9C4B2174800887F2838
:101AE0001ADA154801880088401C134A10801348F0
:101AF000445400201149128888540A2C13D10E48EE
:101B000001880E48FFF7D4FB00200B490880802194
:101B10000A48FEF794FB06E0002007490880802170
:101B20000648FEF78CFB40F22551024800F046F8CB
:101B300000BF10BD0044004020000020B400002081
:101B400010B540F225511A4800F060F878B31848F3
:101B500000F018F9C4B2174800887F281ADA15482F
:101B600001880088401C134A108013484454002008
:101B70001149128888540A2C13D10E4801880E4846
:101B8000FFF796FB00200B49088080210A48FEF7EA
:101B900056FB06E000200749088080210648FEF732
:101BA0004EFB40F22551024800F008F800BF10BD7E
:101BB00000480040220000203401002010B500221F
:101BC000002340F66A14A14200D100BF0A1201248A
:101BD0009440A3B2DC43048010BD21B1828942F459
:101BE0000052828104E082894DF6FF731A4082819F
:101BF000704702460020B1F5007F00D100BF138876
:101C00000B400BB1012000E00020704770B5024688
:101C1000002400230025002040F66A16B14200D1BE
:101C200000BFC1F3421501F01F03012606FA03F3BA
:101C3000012D02D19689334006E0022D02D1168A89
:101C4000334001E0968A33400C12012606FA04F470
:101C50001688344013B10CB1012000E0002070BDA3
:101C6000F0B50346002400260025002040F66A1740
:101C7000B94200D100BF1846C1F3421401F01F065B
:101C8000012707FA06F5012C01D10C3004E0022CE3
:101C900001D1103000E014301AB107682F430760FB
:101CA00002E00768AF430760F0BD00002DE9F04790
:101CB00086B005460E460024A24600BFA146002776
:101CC000B08900B100BF2F462C8A4CF6FF7004404B
:101CD000F08804432C82AC894EF6F3100440B0889F
:101CE00031890843718908430443AC81AC8A4FF6BB
:101CF000FF400440B0890443AC8201A8FFF722FBF7
:101D00001F48874202D1DDF810A001E0DDF80CA0E9
:101D1000A88900F4004040B10AEBCA0000EB0A10A9
:101D200031684900B0FBF1F807E00AEBCA0000EBAC
:101D30000A1031688900B0FBF1F86420B8FBF0F0BC
:101D400004012009642101FB1089A88900F40040E6
:101D500040B1322000EBC900B0FBF1F000F0070009
:101D6000044308E0322000EB09106421B0FBF1F0DD
:101D700000F00F0004432C8106B0BDE8F08700009E
:101D80000038014001468888C0F308007047C1F35D
:101D900008028280704700BFFEE770B504460D461A
:101DA000E0B2FFF795FB204670BD4FF4A060FFF74F
:101DB00057F9FFF7F5F9FFF75DF9FFF7C9FDFFF7F1
:101DC000FDFDFFF7F1FBFFF729FBFFF791FBFFF7A5
:101DD000B3F8FFF7EFF800BFFEE7000010B50029E9
:101DE0000AD00878002807D005487844FEF74AFA58
:101DF000002801D0002010BD0248784410BD00002A
:101E0000B6010000AE0100006E756D2D2D0D0A00AB
:101E100000000000000000000000000000000000C2
:101E200000000000000000009D0D00086E756D2B85
:101E30002B0D0A0000000000000000000000000060
:101E4000000000000000000000000000BD0D0008C0
:101E50000000000000000000000000000000000082
:101E60000000000000000000000000000000000072
:101E70000000000000000000000000000000000062
:101E80000000000000000000000000000000000052
:101E90000000000000000000000000000000000042
:101EA0000000000000000000000000000000000032
:101EB0000000000000000000000000000000000022
:101EC0000000000000000000000000000000000012
:101ED0000000000000000000000000000000000002
:101EE00000000000000000000000000000000000F2
:101EF00000000000000000000000000000000000E2
:101F000000000000000000000000000000000000D1
:101F100000000000000000000000000000000000C1
:101F200000000000000000000000000000000000B1
:101F300000000000000000000000000000000000A1
:101F40000000000000000000000000000000000091
:101F50000000000000000000000000000000000081
:101F60000000000000000000000000000000000071
:101F70000A3A7474003A7474003A747400000000F1
:101F8000B0200008000000203400000028010008F4
:101F9000E420000834000020DC08000044010008B0
:101FA0001001000043000000F8FFFFFF0040404028
:101FB000404040404040414141414140404040401C
:101FC00040404040404040404040404040050202C8
:101FD0000202020202020202020202020220202087
:101FE00020202020202020020202020202029090E3
:101FF00090909090101010101010101010101010E1
:102000001010101010101010020202020202888834
:102010008888888808080808080808080808080840
:102020000808080808080808020202024000000028
:1020300000000000000000000000000000000000A0
:102040000000000000000000000000000000000090
:102050000000000000000000000000000000000080
:102060000000000000000000000000000000000070
:102070000000000000000000000000000000000060
:102080000000000000000000000000000000000050
:102090000000000000000000000000000000000040
:1020A0000000000000000000000000000000000030
:1020B00000000000010203040102030406070809EE
:1020C00002040608010000000100000000000000FA
:1020D0000000000000000000000000000000000000
:0420E00000000000FC
:04000005080000ED02
:00000001FF
