:020000040800F2
:10000000A004002001010008090100080B010008FC
:100010000D0100080F010008110100080000000098
:1000200000000000000000000000000013010008B4
:10003000150100080000000017010008650E000807
:100040001B0100081B0100081B0100081B01000820
:100050001B0100081B0100081B0100081B01000810
:100060001B0100081B0100081B0100081B01000800
:100070001B0100081B0100081B0100081B010008F0
:100080001B0100081B0100081B0100081B010008E0
:100090001B0100081B0100081B0100081B010008D0
:1000A0001B0100081B0100081B0100081B010008C0
:1000B000D50E00081B0100081B0100081B010008E9
:1000C0001B0100081B0100081B0100081B010008A0
:1000D0001B0100081B0100081B0100081B01000890
:1000E0001B0100081B0100081B010008DFF80CD0F1
:1000F00000F0C2F900480047A5110008A004002044
:100100000648804706480047FEE7FEE7FEE7FEE7B1
:10011000FEE7FEE7FEE7FEE7FEE7FEE7750E0008F6
:10012000ED000008F0B480EA0102D40F4200B2EB07
:10013000410F02D20246084611464A0042D0C30D82
:10014000DDB2C1F3C752AD1A202D35DAC1F3160165
:1001500041F4000204B15242C5F1200602FA06F150
:100160002A411044B3EBD05F23D0C4B1012DA0EBE2
:10017000C35009DCF0BC4FF0004202EAC352DBB2CC
:1001800000F5000000F019B9400000F1807000EBAC
:10019000C350A0F1807040EAD170490009E04908DD
:1001A00041EAC071A0EBC35000F50000400800EB2D
:1001B000C350F0BC00F0F8B86142012202EB4101EB
:1001C000001BF6E7F0BC704781F00041AAE780F021
:1001D0000040A7E780EA010210B502F000434000AA
:1001E00022D04A001FD0010E01EB1261C0F356006D
:1001F000C2F3560240F4000042F40002A0FB0220C9
:1002000000047F39140400D0401C50EA124001D48D
:100210004000491EC2B20C0604EBD010401C40083E
:10022000802A02D003E0002010BD20F00100002948
:1002300000DA0020184310BD30B480EA010202F059
:10024000004530F0004221F0004013D090B1C30DC2
:10025000D40DC2F31601C0F31600E41A41F40001F4
:1002600040F400027D34914201D3641C00E0490057
:10027000002C02DA30BC002070474FF4000000234D
:10028000914201D3891A034340084FEA4101F7D153
:1002900051B1914202D14FF0004105E002D24FF03E
:1002A000010101E06FF0010103EBC450284430BCB0
:1002B00000F07AB8C10F80EAE0700844CA079623BC
:1002C000002100F07AB800F0004220F00040C10D9B
:1002D000C0F3160040F400007F2901DA00207047C7
:1002E000962903DCC1F19601C84001E096398840A7
:1002F000002AF4D04042704720F00040C10DC0F306
:10030000160040F400007F2901DA0020704796298A
:1003100003DCC1F19601C8407047963988407047A8
:1003200000F0004230F000400AD0C10D01F56071CC
:10033000C0F3160042EA0151C2084007114370475A
:1003400000200146704701F0004330B421F0004125
:1003500050EA010206D00A0DA2F56072C1F3130142
:10036000002A02DC30BC00207047440F44EAC1047C
:10037000C100E01830BC00EBC25000F015B800001E
:10038000002801DBC0F10040002901DBC1F1004180
:1003900081427047002801DBC0F10040002901DBE9
:1003A000C1F10041884270470029A8BF7047401C36
:1003B000490008BF20F00100704710B4B0FA80FC7B
:1003C00000FA0CF050EA010404BF10BC704749B1B8
:1003D000CCF1200421FA04F411FA0CF118BF012128
:1003E00021430843A3EB0C01CB1D4FEA00614FEA08
:1003F000102042BF002010BC704700EBC3501044D7
:100400000029A4BF10BC7047401C490008BF20F061
:10041000010010BC704770B5044601F00045002093
:10042000054304D14FF00045644265EB010103F040
:100430000045284305D118464FF00043524263EB74
:100440000003101B73EB010002D24FF0004009E0E3
:1004500082EA040283EA01034FF000501A4301D1FB
:100460004FF0C0404FEA2062EFF3008162F31F615A
:1004700081F3008870BD0000064C074D06E0E0687F
:1004800040F0010394E8070098471034AC42F6D3DB
:10049000FFF730FEF01100081012000818B50446EE
:1004A0000020009006E04FF47A7000F007F8009802
:1004B000401C00900098A042F5D318BD0CB5002157
:1004C00001910BE00B21009102E00099491E00917F
:1004D00000990029F9D10199491C019101998142A2
:1004E000F0D30CBD2DE9F041024600250026002086
:1004F00000230024002791F803C00CF00F0591F8A9
:1005000003C00CF0100CBCF1000F03D091F802C036
:100510004CEA050591F800C0BCF1000F31D0146819
:1005200000202BE04FF0010C0CFA00F3B1F800C0F2
:100530000CEA03069E4220D183004FF00F0C0CFA08
:1005400003F7BC4305FA03FC4CEA040491F803C02A
:10055000BCF1280F06D14FF0010C0CFA00FCC2F8D8
:1005600014C00AE091F803C0BCF1480F05D14FF068
:10057000010C0CFA00FCC2F810C0401C0828D1D3B2
:100580001460B1F800C0BCF1FF0F34DD54680020E6
:100590002EE000F1080C4FF0010808FA0CF3B1F856
:1005A00000C00CEA03069E4221D183004FF00F0CDD
:1005B0000CFA03F7BC4305FA03FC4CEA040491F877
:1005C00003C0BCF1280F05D100F1080C08FA0CF8A3
:1005D000C2F8148091F803C0BCF1480F07D100F1B4
:1005E000080C4FF0010808FA0CF8C2F81080401C03
:1005F0000828CED35460BDE8F0810000F0B50A466B
:10060000002300240021002500F00046B6F1004F31
:1006100002D11D4EF16901E01B4E7168C0F3034524
:1006200083B200F44016B6F5401F08D121F0706186
:10063000154E766826F07066134F7E6012E000F467
:100640008016B6F5801F06D1032606FA05F4A143ED
:1006500041F0706106E0460D360103FA06F6B1433B
:1006600041F0706122B1460D360103FA06F63143BE
:1006700000F00046B6F1004F02D1034EF16101E0F7
:10068000014E7160F0BD0000000001400161704743
:100690000AB1016100E041617047000008B5012125
:1006A000042000F01DFA4FF40040ADF800001020C7
:1006B0008DF8030003208DF8020069460448FFF717
:1006C00011FF4FF400410248FFF7E0FF08BD0000B2
:1006D0000008014070B5002100230F22C47804B344
:1006E000154C246804F4E064C4F5E064210AC1F107
:1006F0000403CA40447804FA03F184781440214387
:1007000009010E4C0678A155047804F01F05012458
:10071000AC4005786D11AD0005F1E025C5F800414C
:1007200009E0047804F01F050124AC40044D06786C
:10073000761145F8264070BD0CED00E000E400E0C5
:1007400080E100E038B50121082000F0C9F903205C
:100750008DF8020010208DF803000820ADF800008D
:1007600069462648FFF7BEFE1020ADF80000694636
:100770002248FFF7B7FE2020ADF8000069461F4869
:10078000FFF7B0FE4020ADF8000069461B48FFF7B8
:10079000A9FE8020ADF8000069461848FFF7A2FEC8
:1007A0004FF48070ADF8000069461448FFF79AFED8
:1007B0004FF40070ADF8000069461048FFF792FE54
:1007C000002417E040F2DC500D4901EB04110880D1
:1007D0000C480B4901EB041148600B48084901EB38
:1007E0000411886041F28830054901EB041148800A
:1007F000601CC4B2082CE5DB38BD0000000C0140D1
:10080000200000200080BB440000A0412DE9F047FB
:1008100004460D461646082C01DBBDE8F0877DB97D
:100820000020374901EB04118860354901EB0411C0
:100830004868FFF761FD324901EB04110880ECE7DD
:1008400040F6BA10854201DD054604E0B5F5FF7FAC
:1008500001DA4FF4FF7542F21070864200DD461E49
:100860002846FFF727FD0746254800EB041041689E
:100870003846FFF785FD0AD12846FFF71BFD804665
:100880002049FFF74FFC0746FFF71DFD0546142ED4
:1008900010DA1B4901EB04110D802846FFF70AFD11
:1008A000174901EB041148600020154901EB0411C0
:1008B000886022E0124901EB04110D80104901EB20
:1008C00004114E803046FFF7F5FC81460E49FFF7D4
:1008D000B3FC07462846FFF7EDFC8146084800EBCD
:1008E000041041684846FFF76FFC80463946FFF721
:1008F000A3FC034901EB0411886000BF8DE70000F1
:10090000200000204850FC3B0000A0412DE9F047AA
:1009100004462A4901EB041188680021FFF730FDE5
:1009200001D1BDE8F087254800EB0410058840F6AA
:10093000BA10854201DD054604E0B5F5FA7F01DA1B
:100940004FF4FA751D4901EB041188684FF080419E
:10095000FFF740FC804600F0D6FB06462846FFF72E
:10096000A9FC8146154800EB041041684846FFF792
:100970002BFC804600F0C7FB07463146FFF700FD21
:100980000CD82846FFF796FC0C4901EB041148608F
:1009900000200A4901EB041188600DE0074A02EBD0
:1009A00004129168054A02EB04125068FFF7BAFB83
:1009B000024901EB0411486000BFB2E720000020AB
:1009C00070B504460D46072C31D2DFE804F0040A66
:1009D00010161C2229002A4608211648FFF758FE47
:1009E00026E02A4610211348FFF752FE20E02A464F
:1009F00020211048FFF74CFE1AE02A4640210D48FE
:100A0000FFF746FE14E02A4680210A48FFF740FE21
:100A10000EE02A464FF480710648FFF739FE07E0E2
:100A20002A464FF400710348FFF732FE00E000BF92
:100A300000BF70BD000C01402DE9F74F84B08B461C
:100A400092465046FFF76CFCCDE900015846FFF78F
:100A500067FC0646DDE9002300F082FB04462246DF
:100A60000B460020014600F05AFB8046FFF76BFC66
:100A70008346104801685846FFF7ACFB8346514651
:100A80005846FFF7D9FB05460B49FFF7A3FB044681
:100A90000A49FFF747FB02900298FFF714FC04464F
:100AA0004FF47A7221460498FFF7B0FE07B0BDE814
:100AB000F08F00001C0000200000FA440000FA4300
:100AC00029B1064AD2690243044BDA6104E0034AC1
:100AD000D2698243014BDA61704700000010024086
:100AE00029B1064A92690243044B9A6104E0034A21
:100AF00092698243014B9A617047000000100240E6
:100B00000F48006840F001000D4908600846406841
:100B10000C4908400A494860084600680A490840EC
:100B2000074908600846006820F4802008600846ED
:100B3000406820F4FE0048604FF41F008860704752
:100B4000001002400000FFF8FFFFF6FE10B501465E
:100B50000022002300204A11012A02D1094C2368F7
:100B600006E0022A02D1074C236A01E0054C636AC1
:100B700001F01F02012494401C400CB1012000E050
:100B8000002010BD001002400248406800F00C0038
:100B9000704700000010024001460020034A5068E0
:100BA00020F0F00008435060704700000010024041
:100BB0001149096821F480310F4A11601146096812
:100BC00021F480211160B0F5803F03D0B0F5802F73
:100BD0000ED106E00849096841F48031064A1160E7
:100BE00007E00549096841F4A021034A116000E0CB
:100BF00000BF00BF70470000001002400146002007
:100C0000034A506820F4E0600843506070470000D9
:100C10000010024001460020034A506820F4605052
:100C200040EAC10050607047001002400149086668
:100C3000704700000000424202460020044B586802
:100C400020F47C1042EA01031843014B58607047BE
:100C50000010024001460020034A506820F00300C3
:100C600008435060704700000010024038B5002073
:100C700000900024002500BF3120FFF767FF0546E4
:100C80000098401C00900098B0F5A06F01D0002D96
:100C9000F2D03120FFF75AFF08B1012400E0002410
:100CA000204638BD10B5FFF72BFF4FF48030FFF71B
:100CB0007FFFFFF7DBFF044600BF002CFDD00020C4
:100CC000FFF76AFF4FF48060FFF798FF0020FFF7FF
:100CD000A1FF4FF4E0114FF48030FFF7ADFF01208A
:100CE000FFF7A4FF00BF3920FFF730FF0028FAD03C
:100CF0000220FFF7AFFF00BFFFF746FF0828FBD138
:100D000010BD000010B501210D20FFF7E9FE012103
:100D10000148FFF773FC10BD0002300010B500F071
:100D200001F810BD0CB50020019000903348006818
:100D300040F480303149086000BF3048006800F45A
:100D4000003000900198401C0190009818B901985B
:100D5000B0F5A06FF1D12948006800F4003010B15F
:100D60000120009001E0002000900098012843D16C
:100D70002348006840F010002149086008460068D8
:100D800020F0030008600846006840F00200086098
:100D90001A48406819494860084640684860084653
:100DA000406840F4806048600846406820F47C1049
:100DB00048600846406840F4E8104860084600680B
:100DC00040F08070086000BF0C48006800F00070C0
:100DD0000028F9D00948406820F00300074948601E
:100DE0000846406840F00200486000BF0348406881
:100DF00000F00C000828F9D10CBD000000100240E2
:100E00000020024030B5144800684FF47A72B0FBFD
:100E1000F2F1B1F1807F00D31DE021F07F40401E50
:100E20004FF0E022506150170F22002807DA130715
:100E30001D0E0A4B00F00F04241F1D5503E013077D
:100E40001C0E074B1C5400BF00204FF0E0229061A5
:100E50000720106100BF30BD0800002018ED00E041
:100E600000E400E002480068401C01490860704747
:100E70000000002010B51348006840F0010011493F
:100E8000086008464068104908400E494860084616
:100E900000680E4908400B4908600846006820F4C5
:100EA000802008600846406820F4FE0048604FF447
:100EB0001F008860FFF732FF4FF0006004490860B0
:100EC00010BD0000001002400000FFF8FFFFF6FE1A
:100ED00008ED00E010B50121880700F099F800281E
:100EE00041D021480078082802D100201E4908700E
:100EF0001E480078A0B91E491B4A127801EB021166
:100F00004868FFF7F9F94FF08041888501211648BC
:100F10000078FFF755FD14480078FFF7F7FC16E05E
:100F20001349114A127801EB02114868FFF7E4F9FE
:100F300040F6C4110C1A09078C8500210A48007874
:100F4000FFF73EFD08480078401C07490870074835
:100F5000007808B9012000E0002004490870012150
:100F6000880700F046F810BD0500002004000020AE
:100F7000200000207FB505460C4601210846FFF7FA
:100F80009FFDADF80850ADF804400020ADF80A0010
:100F9000ADF8060001A94FF0804000F053F80021A1
:100FA0004FF0804000F019F801221146900700F040
:100FB00040F81C208DF8000001208DF8010003206E
:100FC0008DF8020001208DF803006846FFF782FBD0
:100FD0000121880700F010F87FBD21B1028842F09E
:100FE0008002028004E002884FF67F731A4002807C
:100FF0007047CA430282704721B1028842F0010261
:10100000028004E002884FF6FE731A4002807047A7
:1010100030B50246002000230024158A05EA0103AA
:10102000958905EA010413B10CB1012000E000200C
:1010300030BD1AB183890B43838102E083898B43DE
:1010400083817047002202881D4B98420ED01D4BB1
:1010500098420BD0B0F1804F08D01B4B984205D07E
:101060001A4B984202D01A4B984204D14FF68F7314
:101070001A404B881A43174B984207D0164B984298
:1010800004D04FF6FF431A40CB881A4302808B8866
:1010900083850B8803850A4B98420BD0094B9842F5
:1010A00008D00E4B984205D00D4B984202D00D4B04
:1010B000984201D10B7A0386012383827047000096
:1010C000002C0140003401400004004000080040B2
:1010D000000C00400010004000140040004001409F
:1010E000004401400048014002E008C8121F08C146
:1010F000002AFAD170477047002001E001C1121F99
:10110000002AFBD1704710B5044600212046FFF7A6
:1011100041F901D2204610BD84F00040FBE72DE9E3
:10112000F04114461D4606460F46FFF774F900F0DD
:101130007040B0F1005F0FD0201C18BF0120284381
:1011400020F00040C0F17F6000F1E040C00F02BF1E
:1011500020462946BDE8F08130463946BDE8F08199
:101160002DE9F04114461D4606460F46FFF753F998
:1011700000F07040B0F1004F0FD0201C18BF0120CC
:10118000284320F00040C0F17F6000F1E040C00F34
:1011900002BF20462946BDE8F08130463946BDE809
:1011A000F0810000FFF77EFDFFF7ACFDFFF72AFEA0
:1011B000FFF774FAFFF7C6FA472144F62060FFF7FD
:1011C000D9FE002411E00A34B4F5877F00DD002445
:1011D0002046FFF76FF80546044A29460020FFF72E
:1011E0002BFC4FF47A70FFF759F9ECE700008743C6
:1011F000101200080000002020000000E810000885
:10120000301200082000002080040000F8100008C0
:10121000000000000000000000A24A0400000000DE
:10122000000000000102030406070809A4707D3FC6
:04000005080000ED02
:00000001FF
