:020000040800F2
:10000000F00A002089010008B50700086107000810
:10001000B107000861050008D113000800000000C6
:100020000000000000000000000000008112000835
:100030009F05000800000000471200086D1300082B
:10004000A3010008A3010008A3010008A301000800
:10005000A3010008A3010008A3010008A3010008F0
:10006000A3010008A3010008A3010008A3010008E0
:10007000A3010008A3010008A3010008A3010008D0
:10008000A3010008A3010008A3010008A3010008C0
:10009000A3010008A3010008A3010008A3010008B0
:1000A000A3010008A3010008A3010008A3010008A0
:1000B000A3010008A3010008A3010008A301000890
:1000C000A3010008A3010008A3010008A301000880
:1000D000A3010008A3010008A3010008A301000870
:1000E000A3010008A3010008A301000800F002F822
:1000F00000F03AF80AA090E8000C82448344AAF188
:100100000107DA4501D100F02FF8AFF2090EBAE885
:100110000F0013F0010F18BFFB1A43F0010318473B
:100120003C2200005C220000103A24BF78C878C14D
:10013000FAD8520724BF30C830C144BF04680C60ED
:10014000704700000023002400250026103A28BF35
:1001500078C1FBD8520728BF30C148BF0B60704739
:100160001FB51FBD10B510BD00F09AF81146FFF77E
:10017000F7FF01F02FF900F0B8F803B4FFF7F2FF32
:1001800003BC00F0BBF8000009488047094800475D
:10019000FEE7FEE7FEE7FEE7FEE7FEE7FEE7FEE737
:1001A000FEE7FEE704480549054A064B7047000094
:1001B00071130008ED000008F0040020F00A002090
:1001C000F0060020F006002040EA0103024630B5A8
:1001D0009B0710D14FF0013400E008C208C91D1B75
:1001E0009D4315EAC41FF8D013F0FF0102F8011B6C
:1001F0000DD01B0AF8E711F8013B002B02F8013B78
:1002000005D011F8013B002B02F8013BF3D130BDC2
:100210004FF0013C50F8042B51F8043B9A4221D195
:10022000A2EB0C03934313EACC1317D150F8042B21
:1002300051F8043B9A4215D1A2EB0C03934313EA05
:10024000CC130BD150F8042B51F8043B9A4209D13E
:10025000A2EB0C03934313EACC13DBD04FF0000066
:10026000704700BFD01A01BAB1FA81F101F018014C
:1002700022FA01F0CB40C1F12001DBB2C0B2C01ABA
:100280002CFA01F3D11A914311EAC311E6D1704758
:100290007047704770470000004870479004002086
:1002A0007546FFF7F9FFAE4605006946534620F054
:1002B0000700854618B020B5FFF774FFBDE8204061
:1002C0004FF000064FF000074FF000084FF0000B12
:1002D00021F00701AC46ACE8C009ACE8C009ACE8C5
:1002E000C009ACE8C0098D46704710B50446AFF3AD
:1002F00000802046BDE81040FFF73FBF01491820AD
:10030000ABBEFEE726000200704721B1826842F0D2
:100310000102826003E0826822F00102826070477D
:10032000014600208A6802F004020AB1012000E0C0
:10033000002070470146C86C80B27047024600201A
:1003400013680B400BB1012000E00020704701460C
:1003500000208A6802F008020AB1012000E00020B3
:100360007047000030B502460020002350680F4C53
:1003700020400D790C6844EA0524204350609068C1
:100380000B4C2040D1E902542C434D7944EA4504FA
:1003900020439060D06A20F470000C7C641EE4B2AC
:1003A000234340EA0350D06230BD0000FFFEF0FF5F
:1003B000FDF7F1FFF0B504460D4600200021092DA0
:1003C00011DDE068A5F10A0606EB4607072606FAE6
:1003D00007F18843A5F10A0606EB460603FA06F183
:1003E0000843E0600CE0206905EB4507072606FAA4
:1003F00007F1884305EB450603FA06F1084320613F
:10040000072A0FDA606B561E06EB86071F2606FAD0
:1004100007F18843561E06EB860605FA06F10843E7
:10042000606322E00D2A0FDA206BD61F06EB8607E9
:100430001F2606FA07F18843D61F06EB860605FA43
:1004400006F10843206310E0E06AA2F10D0606EB16
:1004500086071F2606FA07F18843A2F10D0606EB70
:10046000860605FA06F10843E062F0BD816841F0B6
:1004700008018160704721B1826842F4A002826065
:1004800003E0826822F4A00282607047816841F034
:10049000040181607047000010B504460523012265
:1004A00021460948FFF786FF01210748FFF7E3FFD0
:1004B00000BF02210448FFF741FF0028F9D002489D
:1004C000FFF738FF10BD00000024014000B587B0E1
:1004D0000121480200F0C4FE0121042000F0C0FE0A
:1004E0004FF4004000F0B0FE00208DF81B000F20FC
:1004F000ADF8180003208DF81A0006A9164800F080
:1005000072F80020019004904FF4602003900020C6
:100510008DF809008DF8080001208DF8140001A95C
:100520000E48FFF71FFF01210C48FFF7EEFE0B48B6
:10053000FFF79CFF00BF0948FFF709FF0128FAD029
:100540000648FFF7A3FF00BF0448FFF7E9FE0128B4
:10055000FAD007B000BD00000008014000240140AF
:1005600000BFFEE70246A2F50061642901DD64399F
:1005700005E011F1640F01DA643100E0002164202C
:10058000484340F29C7390FBF3F1642900DD642141
:1005900011F1640F01DA6FF0630148B270477047E0
:1005A00000B5034603E04FF47A7000F005F8181E1A
:1005B000A3F10103F7D100BD00EBC001C9004FF06A
:1005C000E0225161002191610521116100BF4FF0CE
:1005D000E021096901F480310029F8D004214FF0AD
:1005E000E022116170472DE9F04102460025002606
:1005F000002000230024002791F803C00CF00F0511
:1006000091F803C00CF0100CBCF1000F03D091F86E
:1006100002C04CEA050591F800C0BCF1000F31D0D2
:10062000146800202BE04FF0010C0CFA00F3B1F835
:1006300000C00CEA03069E4220D183004FF00F0C4D
:100640000CFA03F7BC4305FA03FC4CEA040491F8E6
:1006500003C0BCF1280F06D14FF0010C0CFA00FCCE
:10066000C2F814C00AE091F803C0BCF1480F05D1EC
:100670004FF0010C0CFA00FCC2F810C0401C082816
:10068000D1D31460B1F800C0BCF1FF0F34DD546861
:1006900000202EE000F1080C4FF0010808FA0CF3DE
:1006A000B1F800C00CEA03069E4221D183004FF04E
:1006B0000F0C0CFA03F7BC4305FA03FC4CEA0404E4
:1006C00091F803C0BCF1280F05D100F1080C08FA1D
:1006D0000CF8C2F8148091F803C0BCF1480F07D1A0
:1006E00000F1080C4FF0010808FA0CF8C2F810806D
:1006F000401C0828CED35460BDE8F081024600209B
:1007000093680B400BB1012000E0002070470AB154
:10071000016100E04161704710B501460E480F4B82
:100720001B78C1540D480078401C0A2390FBF3F459
:1007300003FB1400094B18700022002007E0064B51
:100740001B5C012B01D1531CDAB2431CD8B20A281E
:10075000F5DB104610BD00008404002024000020BA
:1007600000BFFEE70020704708B50121042000F01B
:1007700077FD0121082000F073FD48208DF803006B
:1007800041F6F000ADF8000003208DF80200694644
:100790000548FFF728FF40F26740ADF800006946C2
:1007A0000248FFF720FF08BD00080140000C01408F
:1007B00000BFFEE7704710B5002000F08BF9E22083
:1007C00000F0F8F8012000F085F910BD10B5002008
:1007D00000F080F9E12000F0EDF8012000F07AF956
:1007E00010BD000008B50121082000F039FD1020DF
:1007F0008DF803004FF43840ADF8000003208DF869
:10080000020069460E48FFF7EEFE48208DF803000F
:100810004FF48040ADF8000003208DF802006946D7
:100820000748FFF7E0FE002000F048F9012000F043
:1008300051F9002000F066F9002000F057F908BDDA
:10084000000C014010B5FFF7CDFF0821002000F09B
:1008500065F93F21012000F061F90121022000F03B
:100860005DF90321084600F059F90321042000F046
:1008700055F90221052000F051F90E21062000F063
:100880004DF92021112000F049F9052207490A20DD
:1008900000F055F9FFF79AFFFFF78DFF7021072051
:1008A00000F03CF900F070F810BD000005000020D9
:1008B00010B54FF480410248FFF720FF10BD000043
:1008C000000C014070B50446002000F003F92046FA
:1008D00000F070F8FF2000F06DF80546012000F0F0
:1008E000F9F8284670BD70B505460E46002000F0A8
:1008F000F1F8612000F05EF8002405E0FF2000F030
:1009000059F82855601CC4B2B442F7DB012000F04E
:10091000E1F870BD10B5002000F0DCF8FF2000F019
:1009200049F80446012000F0D5F8204610BD00002B
:1009300070B5FFF7EFFF05460020FFF7C3FF06463F
:1009400006F0020018B90324FFF77CFF18E005F059
:100950003000302803D10224FFF774FF10E005F0C7
:10096000400040280BD1012420210648FFF7BBFF9F
:100970004021072000F0D2F8FFF71DFF00E000241F
:10098000204670BD6404002010B5002000F096F8E9
:100990000020FFF797FF0446FF2C00D110BD44F064
:1009A00003042146002000F0B9F8012000F086F889
:1009B00000BFF3E770B50446002518E004F080009E
:1009C00018B1012000F092F802E0002000F08EF84B
:1009D0006006040E012000F095F8FFF769FF08B1EA
:1009E00044F00104002000F08DF8681CC5B2082D09
:1009F000E4DB204670BD000070B5052220491020C0
:100A000000F09DF805221E490A2000F098F82021E8
:100A10001C4800F0AEF800F039F842F210761EE003
:100A2000FFF778FF0446761E1EB90425FFF70AFF7C
:100A300016E004F03000302803D10325FFF702FF51
:100A40000EE004F01000102803D10225FFF7FAFE93
:100A500006E004F02000202801D1012500E0DFE7B6
:100A600000BF3021072000F059F8FFF7AFFE052244
:100A700005490A2000F063F8FFF786FF284670BD9D
:100A800000000020440400200500002010B50020D4
:100A900000F014F80020FFF715FF0446FF2C00D1EA
:100AA00010BD44F0020424F001042146002000F0AF
:100AB00035F8012000F002F800BFF1E710B5044658
:100AC00022464FF400610248FFF721FE10BD0000EE
:100AD000000C014010B5044622464FF480510248F4
:100AE000FFF715FE10BD0000000C014010B50446D4
:100AF00022464FF400410248FFF709FE10BD0000F6
:100B0000000C014010B5044622464FF40051024843
:100B1000FFF7FDFD10BD0000000C014070B504465C
:100B20000D460020FFF7D6FF44F02000FFF742FFFC
:100B30002846FFF73FFF0120FFF7CCFF70BD2DE9EE
:100B4000F04105460E4617460020FFF7C3FF45F06B
:100B50002000FFF72FFF002404E0305DFFF72AFF9D
:100B6000601CC4B2BC42F8DB0120FFF7B3FFBDE854
:100B7000F08170B505460E460020FFF7ABFFA020C0
:100B8000FFF718FF002404E0285DFFF713FF601C47
:100B9000C4B2B442F8DB0120FFF79CFF70BD000037
:100BA00000200CE0002106E00022064B03EBC013FE
:100BB0005A544A1CD1B28029F6DB421CD0B2082814
:100BC000F0DB7047440000202DE9F04304460D4659
:100BD00016461F46284638E0224631E0002A2DDB23
:100BE0007F2A2BDC002829DB3F2827DC4FEAE07C2A
:100BF00000EB5C7C4FEAEC0CDFF8588008EBCC1C77
:100C00001CF802C003464FEAE07800EB58784FEA40
:100C1000E808A0EBC8094FF0010808FA09F82CEA27
:100C2000080C01464FEAE07800EB58784FEAE808F4
:100C3000DFF8209009EBC81808F802C0511C0AB26E
:100C4000A1199142CADC411C08B2E9198142C3DCF6
:100C5000BDE8F0834400002038B5002406E00025FC
:100C600000E06D1CB5F57A7FFBD3641CB4F57A7F88
:100C7000F5D30121082000F0F3FA14208DF80300C9
:100C800003208DF802004FF48070ADF80000694633
:100C90000848FFF7A8FC4FF40070ADF80000694663
:100CA0000448FFF7A0FC012000F08EFA012000F0BC
:100CB00097FA38BD000C014070B50546002411E0DC
:100CC00080212141294009B1012100E0002108468D
:100CD00000F086FA012000F077FA002000F074FAA4
:100CE000601CC4B2082CEBDB012000F06DFA002080
:100CF00000F06AFA70BD10B5012000F071FA012011
:100D000000F062FA002000F06BFA002000F05CFABC
:100D100010BD10B5002000F063FA012000F054FA75
:100D2000012000F05DFA10BD10B5FFF795FFAE2071
:100D300000F062FAD52000F05FFA802000F05CFA43
:100D4000A82000F059FA3F2000F056FAD32000F016
:100D500053FA002000F050FA402000F04DFAA12094
:100D600000F04AFAC82000F047FADA2000F044FA0E
:100D7000122000F041FA812000F03EFACF2000F06E
:100D80003BFAD92000F038FAF12000F035FADB20E8
:100D900000F032FA302000F02FFAA42000F02CFAF4
:100DA000A62000F029FA8D2000F026FA142000F089
:100DB00023FAAF2000F020FAFFF7F2FE00F0F0F97E
:100DC00010BD10B50246012000E050430B1EA1F1FA
:100DD0000101FAD110BD70B505460C4645F0B000D2
:100DE00000F00AFA102141EA141000F005FA04F0AC
:100DF0000F0000F001FA70BDF8B506460F46144624
:100E00001D46082D0CD1A4F120000E4901EB001065
:100E10001023082239460090304600F017F80FE002
:100E2000062D0DD1A4F1200000EB4000064901EB96
:100E300040000823062239460090304600F006F8AC
:100E4000F8BD0000D4180008C41E00082DE9FF4FAB
:100E500080460E469146DDF834B0002500244A460F
:100E600031464046039BFFF7AFFE00BF5EE0002522
:100E700058E008EB0500002852DB08EB05007F284E
:100E80004EDC3046F11706EB5171C9100FB2F11765
:100E900006EB5171C910A6EBC10A002E05DA781EC7
:100EA00007B20AF108000FFA80FA3819002817DB98
:100EB0003819072814DC3819224901EBC01008EB57
:100EC0000501405C04FB09511BF8011001FA0AF10D
:100ED000084339191B4A02EBC11108EB050288547B
:100EE0003819401C00281BDB3819401C072817DC68
:100EF0003819401C134901EBC01008EB0501405C98
:100F000004FB09511BF80110CAF108021141084302
:100F10003919491C0B4A02EBC11108EB0502885430
:100F2000681CC5B24D45A4DB601CC4B20399481EC1
:100F3000C11700EB5171012202EBE101A14296DCE5
:100F4000BDE8FF8F440000202DE9F04706468946A2
:100F500017461D46DDF82080002417E0281B411E9F
:100F60000A20FFF72EFFB7FBF0F00A21B0FBF1F2E9
:100F700001FB120000F1300A04FB086108B243468D
:100F800052464946FFF738FF601CC4B2AC42E5DB6D
:100F9000BDE8F0872DE9FE4F07468A46144698467D
:100FA0000025AB460026CBE0605D00F0800058B91C
:100FB0004FF0010B2846691C8DB2205C8DF80400AF
:100FC00000208DF805006BE0605D00F0E000C028B7
:100FD00014D14FF0020B2846691C8DB2205C8DF8AD
:100FE0000400605D00B9AFE02846691C8DB2205C4A
:100FF0008DF8050000208DF8060051E0605D00F0DE
:10100000F000E0281DD14FF0030B2846691C8DB27B
:10101000205C8DF80400605D00B995E02846691CED
:101020008DB2205C8DF80500605D00B98CE028462B
:10103000691C8DB2205C8DF8060000208DF8070039
:101040002EE0605D00F0F800F02826D14FF0040B90
:101050002846691C8DB2205C8DF80400605D00B9E3
:1010600072E02846691C8DB2205C8DF80500605D39
:1010700000B969E02846691C8DB2205C8DF8060035
:10108000605D00B960E02846691C8DB2205C8DF877
:10109000070000208DF8080002E0681C85B24FE0D0
:1010A000BBF1010F0BD19DF80420B91908B24346DA
:1010B0005146FFF7A1FE06EB080086B23FE04FF075
:1010C00000090EE009EB890101EB4911204A88185B
:1010D00001A9FFF79DF800B90EE009F101001FFA20
:1010E00080F909EB890101EB4911194A881819A106
:1010F000FFF78EF80028E5D100BFB8F1080F12D134
:1011000009EB890000EB491011490844401DB91949
:10111000009008B210231A465146FFF797FE06F1D9
:10112000100086B20BE0B8F1060F08D1B91908B269
:1011300006233F225146FFF75FFEB01D86B200BF77
:10114000605D00287FF430AF00BFBDE8FE8F000077
:10115000FE20000800000000F8B505460F461446C2
:101160001E46002C11DA10230CA239462846FFF740
:1011700011FF10200090701EC3B26042C2B2394607
:1011800005F10C00FFF7E0FE07E01020E2B2334665
:10119000394600902846FFF7D7FEF8BD2D00000025
:1011A00010B500240BE000212046FFF714FE05498E
:1011B00001EBC410802100F02FF8601CC4B2082C91
:1011C000F1DB10BD4400002010B5044622464FF468
:1011D00080710248FFF79BFA10BD0000000C01402F
:1011E00010B5044622464FF400710248FFF78FFA0B
:1011F00010BD0000000C014010B50446FFF77BFD58
:101200007820FFF759FD0020FFF756FD2046FFF735
:1012100053FDFFF77EFD10BD70B505460E46FFF786
:101220006AFD7820FFF748FD4020FFF745FD0024C8
:1012300004E0285DFFF740FD601CC4B2B442F8DB57
:10124000FFF767FD70BD704701460020034A5068F4
:1012500020F44040084350607047000000100240F6
:1012600029B1064A92690243044B9A6104E0034A99
:1012700092698243014B9A6170470000001002405E
:10128000704710B500F002F810BD00000CB500204A
:10129000019000903348006840F480303149086084
:1012A00000BF3048006800F4003000900198401CF6
:1012B0000190009818B90198B0F5A06FF1D12948B4
:1012C000006800F4003010B10120009001E000201F
:1012D00000900098012843D12348006840F0100096
:1012E000214908600846006820F0030008600846AD
:1012F000006840F0020008601A48406819494860D8
:101300000846406848600846406840F4806048608D
:101310000846406820F47C1048600846406840F465
:10132000E81048600846006840F08070086000BF20
:101330000C48006800F000700028F9D009484068A7
:1013400020F00300074948600846406840F002006A
:10135000486000BF0348406800F00C000828F9D13D
:101360000CBD000000100240002002407047000049
:1013700010B51348006840F00100114908600846A4
:101380004068104908400E494860084600680E4908
:1013900008400B4908600846006820F48020086077
:1013A0000846406820F4FE0048604FF41F00886043
:1013B000FFF767FF4FF000600449086010BD0000B0
:1013C000001002400000FFF8FFFFF6FE08ED00E00D
:1013D00000BFFEE7FFF7A8FCFFF7C6F9FFF776F8B6
:1013E000FFF730FAFFF7DCFB1023E6A200210846E6
:1013F000FFF7D0FD1023E9A219460020FFF7CAFD30
:101400004FF47A70FFF7CCF8FFF7CAFBB9E1E74871
:101410000068401CE5490860E5480068401CE44954
:1014200008600020FFF738F8E24908800120FFF744
:1014300033F8E14908800220FFF72EF8DF490880E1
:101440000320FFF729F8DE490880DA480088FFF713
:1014500089F8DC490870D8480088FFF783F8DA4932
:101460000870D6480088FFF77DF8D8490870D4483E
:101470000088FFF777F8D6490870FFF773F905463B
:10148000D44800782843D349087005F0100048B1CB
:10149000D148007808B9012000E00020CE4908704A
:1014A000FFF77EFBCB48007800F0010010B9CB4875
:1014B000007840B10020C3490870C3490870C3498F
:1014C0000870C3490870B948006832283DD300202D
:1014D000B6490860C2480078401CC14908700846F7
:1014E0000078C0490870B74800784870B64800785E
:1014F0008870B6480078C870B54800780871B5485B
:1015000000784871FFF778FA04462046FFF704F99F
:10151000B5490870012C0BD10020B4490870AF49BF
:101520000870AC48007820F00E00AA4908700BE063
:10153000AE480078401CAD490870084600780A287B
:1015400002DB0120A549087000BFFFF7F1F901286F
:1015500029D10020A5490870A0490870A44C207822
:1015600020B9A4A1A448FEF72FFE0BE020780128A3
:1015700004D1A2A1A048FEF727FE03E0A1A19E4846
:10158000FEF722FEA1A1A348FEF71EFEA078A24905
:101590000870E078A14908802079A1490870607935
:1015A000A049087000BF82480068322878D3002024
:1015B0007F490860FFF7F4FA10239BA20021084638
:1015C000FFF7E8FC88480078082806DB102398A27B
:1015D00000211820FFF7DEFC10E083480078042883
:1015E00006DB102394A200211820FFF7D3FC05E0AE
:1015F000102392A200211820FFF7CCFC7748007836
:1016000028B110238FA200213020FFF7C3FC7248BD
:10161000007800284CD110238CA21946FFF7BAFCA1
:101620000323684890F9002010211420FFF794FD4F
:10163000102387A219463020FFF7ACFC0323624831
:1016400090F9002010214420FFF786FD102381A28D
:1016500020210020FFF79EFC03235C4890F9002026
:1016600020211420FFF778FD10237BA220213020B9
:10167000FFF790FC0323564890F9002020214420D6
:10168000FFF76AFD5348007800F0010010B9534895
:10169000007830B1102371A230210020FFF77AFCCE
:1016A0006BE0102371A230210020FFF773FC64E08F
:1016B000102371A219460020FFF76CFC10234E4A3C
:1016C00019463020FFF766FC10236EA2202100206F
:1016D000FFF760FC10234F4A20213020FFF75AFC0F
:1016E0004D48007830B9102369A230210020FFF75F
:1016F00051FC2AE048480078012813D1102367A242
:1017000030210020FFF746FC444800884FF47A71EE
:1017100090FBF1F044B20123224630213420FFF740
:101720001BFD12E0102360A230210020FFF732FCE5
:101730003A4800884FF47A7190FBF1F044B20123EB
:10174000224630213820FFF707FD3548007808B1E0
:1017500058A000E059A0024610233C210020FFF7CA
:1017600019FC3048007808B156A000E057A00246A6
:1017700010233C213020FFF70DFC0120FEF710FF65
:1017800000BF44E6446F6E674775616E20526F621A
:101790006F74204D61746368000000005243205351
:1017A000797374656D205265616479001C000020B6
:1017B000200000200C0000200E000020100000205F
:1017C0001200002014000020150000201600002048
:1017D0001700002018000020190000202800002019
:1017E00026000020440400202500002027000020BF
:1017F000640400205265640029000020477265657A
:101800006E000000556E6B6E6F776E00426C7565F2
:1018100000000000330000203D0000203E000020BA
:1018200040000020410000205369673A000000009A
:10183000476F6F64000000004D6964005765616B7D
:10184000000000004C4F5354210000004C483A0067
:101850004C563A0052483A0052563A00454D4552CD
:1018600047454E43592053544F50000052554E2087
:101870004E4F524D414C000042617365426F783AC1
:1018800000000000436F7265426F783A000000006C
:10189000477261623A4E6F6E650000004261736587
:1018A00042616C6C3A000000436F726542616C6C7F
:1018B0003A0000004F6E536C6F706500466C6174A7
:1018C0000000000043616E50757400004E6F50754B
:1018D0007400000000000000000000000000000094
:1018E00000000000000000F80000000000000033CD
:1018F0003000000000160E00160E00000000000070
:101900000000000040C07840C0784000043F04045C
:101910003F040400007088FC08300000001820FF1D
:10192000211E0000F008F000E018000000211C0358
:101930001E211E0000F00888700000001E212324D4
:1019400019272110000000160E0000000000000002
:1019500000000000000000E0180402000000000782
:101960001820400000020418E00000000040201889
:1019700007000000404080F0804040000202010F5C
:1019800001020200000000F0000000000101011F40
:1019900001010100000000000000000000B0700024
:1019A0000000000000000000000000000001010134
:1019B00001010101000000000000000000303000C3
:1019C000000000000000000080601804006018069D
:1019D0000100000000E010080810E000000F1020D7
:1019E00020100F00001010F8000000000020203F21
:1019F00020200000007008080888700000302824AB
:101A0000222130000030088888483000001820204B
:101A100020110E000000C02010F800000007042470
:101A2000243F240000F808888808080000192120B5
:101A300020110E0000E0108888180000000F11200F
:101A400020110E0000380808C83808000000003FC8
:101A5000000000000070880808887000001C222127
:101A600021221C0000E010080810E00000003122D4
:101A700022110F00000000C0C00000000000003074
:101A800030000000000000C0C0000000000080B076
:101A900070000000000080402010080000010204D7
:101AA000081020004040404040404000040404042E
:101AB00004040400000810204080000000201008EA
:101AC00004020100007048080808F000000000301F
:101AD00036010000C030C828E810E00007182724AD
:101AE00023140B000000C038E0000000203C23025B
:101AF0000227382008F8888888700000203F2020BE
:101B000020110E00C03008080808380007182020EF
:101B10002010080008F808080810E000203F2020E6
:101B200020100F0008F88888E8081000203F2020C7
:101B30002320180008F88888E8081000203F2000BB
:101B400003000000C03008080838000007182020F3
:101B5000221E020008F808000008F808203F2101B2
:101B600001213F20000808F8080800000020203F5D
:101B70002020000000000808F8080800C0808080CD
:101B80007F00000008F888C028180800203F2001C6
:101B90002638200008F8080000000000203F202020
:101BA0002020300008F8F800F8F80800203F003F37
:101BB000003F200008F830C00008F808203F20004F
:101BC00007183F00E01008080810E0000F10202060
:101BD00020100F0008F808080808F000203F210135
:101BE00001010000E01008080810E0000F1824248C
:101BF00038504F0008F8888888887000203F2000FF
:101C0000030C3020007088080808380000382021B4
:101C100021221C00180808F8080818000000203FBE
:101C20002000000008F808000008F808001F202025
:101C300020201F000878880000C8380800000738F6
:101C40000E010000F80800F80008F800033C070047
:101C5000073C0300081868808068180820302C03AF
:101C6000032C30200838C800C83808000000203F86
:101C70002000000010080808C83808002038262175
:101C800020201800000000FE020202000000007F79
:101C900040404000000C30C0000000000000000187
:101CA0000638C00000020202FE0000000040404072
:101CB0007F00000000201008040810200000000031
:101CC0000000000000000000000000008080808014
:101CD00080808080000204080000000000000000F6
:101CE0000000000000008080808000000019242295
:101CF00022223F2008F8008080000000003F1120D1
:101D000020110E000000008080800000000E1120D5
:101D100020201100000000808088F800000E1120B3
:101D200020103F200000808080800000001F2222C1
:101D300022221300008080F0888888180020203F2D
:101D4000202000000000808080808000006B949440
:101D50009493600008F8008080800000203F2100FC
:101D600000203F2000809898000000000020203FC5
:101D700020200000000000809898000000C08080B3
:101D8000807F000008F8000080808000203F24024F
:101D90002D302000000808F8000000000020203F3F
:101DA000202000008080808080808000203F2000F4
:101DB0003F20003F008080008080000000203F2105
:101DC00000203F200000808080800000001F202035
:101DD00020201F00808000808000000080FFA12064
:101DE00020110E000000008080808000000E112075
:101DF00020A0FF80808080008080800020203F2104
:101E000020000100000080808080800000332424B6
:101E100024241900008080E0808000000000001F62
:101E2000202000008080000000808000001F202013
:101E300020103F20808080000080808000010E30D4
:101E40000806010080800080008080800F300C0335
:101E50000C300F0000808000808080000020312E38
:101E60000E312000808080000080808080818E7014
:101E70001806010000808080808080000021302CC6
:101E80002221300000000000807C020200000000DF
:101E9000003F404000000000FF0000000000000084
:101EA000FF0000000002027C800000000040403F74
:101EB0000000000000804040800000800000000022
:101EC000000101000000000000000000002F0000E1
:101ED00000000700070000147F147F1400242A7FED
:101EE0002A1200231308646200364955225000006C
:101EF0000007000000001C224100000041221C00DD
:101F00000014083E08140008083E0808000000A05D
:101F10006000000808080808000060600000002059
:101F200010080402003E5149453E0000427F400037
:101F3000004261514946002141454B3100181412BD
:101F40007F10002745454539003C4A49493000018A
:101F50007109050300364949493600064949291ED9
:101F6000000036360000000056360000000814223B
:101F7000410000141414141400004122140800023B
:101F800001510906003E4955592E007C1211127C60
:101F9000007F49494936003E41414122007F41418D
:101FA000221C007F49494941007F09090901003E7F
:101FB0004149497A007F0808087F0000417F4100BD
:101FC000002040413F01007F08142241007F404033
:101FD0004040007F020C027F007F0408107F003E1B
:101FE0004141413E007F09090906003E4151215E01
:101FF000007F091929460046494949310001017FFE
:102000000101003F4040403F001F2040201F003F93
:102010004038403F00631408146300070870080745
:1020200000615149454300007F414100000204081E
:102030001020000041417F00000402010204004022
:1020400040404040000001020400002054545478F5
:10205000007F484444380038444444200038444415
:10206000487F00385454541800087E0901020018B3
:10207000A4A4A47C007F080404780000447D4000F0
:10208000004080847D00007F102844000000417FD4
:102090004000007C04180478007C080404780038B0
:1020A0004444443800FC242424180018242418FC38
:1020B000007C0804040800485454542000043F44A1
:1020C0004020003C4040207C001C2040201C003C64
:1020D0004030403C004428102844001CA0A0A07CB4
:1020E000004464544C440000087F41000000007F1D
:1020F00000000000417F0800000804081008E6B155
:102100009F00001060020CC004040404FC040404DA
:1021100004000004047C0320202020203F202020F5
:10212000202000E58D8F00001010FF10100090108F
:10213000FF1010F0800000000000FF00048241301A
:102140000F40807F00010600E7A79100002424A42F
:10215000FEA3220022CC0000FF00000000080601C0
:10216000FF00010404040404FF02020200E68A8066
:102170000000101010FF109008888888FF88888859
:1021800008000444827F01808040432C102846814F
:102190008000E981A50000404042CC00004A322284
:1021A0002AF121312D00000080403F408081BDA1F7
:1021B000A1BFA1A1BD8100E68EA70000101010FFF5
:1021C0009020984828090E2848A818000242817FCC
:1021D0000040404242427E4242424000E599A8000F
:1021E0000080809E9292929EE0809EB2D2929E80CB
:1021F000000808F4949292F10001F2929494F80885
:1022000000E6B58B00001060028C00FE02F202FEB8
:1022100000F800FF000004047E018047300F102703
:102220000047807F0000E8AF950000404042CC00AE
:102230009090909090FF10111610000000003F1039
:1022400028603F1010010E3040F000E7A88B00001E
:102250002424A4FE2322003E22222222223E000029
:10226000080601FF0106404949497F4949494100A3
:10227000E5BA8F00000000FC0404041415569454C1
:10228000341404040040300F0001010141817F013A
:1022900001010503000000000000FF0101013109F8
:1022A000090909897101010101FFFF808080808097
:1022B000809681808080808080FFFF01818181FD08
:1022C0008991A1C1FD81818101FFFF808080809F74
:1022D000888482819F80808080FF1C3C64C48484C9
:1022E000C4643C9C000000008000000000003F3FF0
:1022F000000000311B0E0E1B31001C3C64C48484A2
:10230000C4643C1C000000000000000000003F3FCF
:10231000000038380000000000001C3C64C48484C5
:10232000C4643C1C000000000000000000003F3FAF
:1023300000003838003F3F0000001C3C64C4848427
:10234000C4643C1C00000000E0E0000000003F3FCF
:1023500000003838003F3F003F3F00007C2300086A
:10236000000000204400000028010008C0230008ED
:1023700044000020AC0A000044010008112233444C
:1023800055112233445500000000000000000000F9
:10239000000000000000000000000000000000003D
:1023A00000000000004E6F49440000000000004E95
:1023B0006F49440000000000000000000000000021
:04000005080000ED02
:00000001FF
