:020000040800F2
:100000003011002075020008BD3200085925000893
:100010007F300008D31F0008B3550008000000001F
:10002000000000000000000000000000C5420008C1
:10003000BD20000800000000AD4100082548000870
:100040008F0200088F0200088F0200088F0200084C
:100050008F0200088F0200088F0200088F0200083C
:100060008F0200088F0200088F0200088F0200082C
:100070008F0200088F0200088F0200088F0200081C
:100080008F0200088F0200088F0200088F0200080C
:100090008F0200088F0200088F0200088F020008FC
:1000A0008F020008C94A00088F0200088F0200086A
:1000B0008F0200088F0200088F0200088F020008DC
:1000C0008F0200088F0200088F0200088F020008CC
:1000D0008F02000871530008A95300088F0200081E
:1000E0008F0200088F0200088F02000800F002F85B
:1000F00000F0B0F80AA090E8000C82448344AAF112
:100100000107DA4501D100F0A5F8AFF2090EBAE80F
:100110000F0013F0010F18BFFB1A43F0010318473B
:10012000C4820000E48200000A444FF0000C10F882
:10013000013B13F0070408BF10F8014B1D1108BF65
:1001400010F8015B641E05D010F8016B641E01F805
:10015000016BF9D113F0080F1EBF10F8014BAD1C55
:100160000C1B09D16D1E58BF01F801CBFAD505E073
:1001700014F8016B01F8016B6D1EF9D59142D6D3CD
:10018000704700000023002400250026103A28BFF5
:1001900078C1FBD8520728BF30C148BF0B607047F9
:1001A0006E2900F0B381702900F0F582662906F00F
:1001B0005087652906F04D87672906F04A8761292F
:1001C00006F0498703681B0A28BF41F080016929AE
:1001D00000F06081642900F05D81752900F05A818A
:1001E0006F2900F08282782900F0C182E92900F0AD
:1001F0001D82E42900F01A82F52900F01782EF2908
:1002000000F07F82F82900F0C0820368DB0928BF74
:1002100041F08001632901F00780732901F00C800F
:10022000E32901F01780F32901F01C8000207047BA
:100230001FB501F0AFF804000020002105F05EFFBB
:10024000401C60600020002105F06EFFE0601FBDD3
:1002500010B510BD01F079F81146FFF7E9FF05F080
:10026000F9FB01F05BF903B4FFF7F2FF03BC01F007
:100270005FF900000948804709480047FEE7FEE7AC
:10028000FEE7FEE7FEE7FEE7FEE7FEE7FEE7FEE746
:1002900004480549054A064B7047000029480008F4
:1002A000ED000008300B002030110020300D002040
:1002B000300D00201CB50C46064B7B44694600906F
:1002C000204600F03CF904460020694600F04AF957
:1002D00020461CBDA702000070B5064600F074F869
:1002E0000468054630460A22002100F023FB2C60FA
:1002F00070BD4FF0000200B5134694469646203973
:1003000022BFA0E80C50A0E80C50B1F12001BFF4CE
:10031000F7AF090728BFA0E80C5048BF0CC05DF834
:1003200004EB890028BF40F8042B08BF704748BF82
:1003300020F8022B11F0804F18BF00F8012B7047F6
:100340004FF0013C50F8042B51F8043B9A4221D164
:10035000A2EB0C03934313EACC1317D150F8042BF0
:1003600051F8043B9A4215D1A2EB0C03934313EAD4
:10037000CC130BD150F8042B51F8043B9A4209D10D
:10038000A2EB0C03934313EACC13DBD04FF0000035
:10039000704700BFD01A01BAB1FA81F101F018011B
:1003A00022FA01F0CB40C1F12001DBB2C0B2C01A89
:1003B0002CFA01F3D11A914311EAC311E6D1704727
:1003C000704770477047000000487047CC0A002013
:1003D00070B5044685690068C10601D5302600E085
:1003E0002026C00707D070BDD4E9012130469047D0
:1003F000206A401C20626D1EF6D570BD70B50446A3
:1004000085690078C00707D170BDD4E9012120209B
:100410009047206A401C20626D1EF6D570BD0968A9
:100420004A0501D540B27047C905FCD500B27047F6
:1004300009684A0501D5C0B27047C905FCD580B22C
:10044000704770B50C460546012A05D0287880060D
:1004500000D5EA69002302E0012305E05B1C93421A
:1004600002D2E05C0028F9D1A869E618C01AA86198
:10047000286A184428622846FFF7AAFF04E0D5E955
:10048000012114F8010B9047B442F8D32846FFF736
:10049000B5FF70BD2DE9F0410646002410687529AE
:1004A000314616A510D0FFF7BAFF002802DA404205
:1004B00013A507E031688A0701D512A502E04907B4
:1004C00004D511A5012401E0FFF7B2FF00210A22A3
:1004D00006F1240709E0B0FBF2FCB0FBF2F302FBEB
:1004E0001C00303078541846491C0028F3D12346AC
:1004F0002A463046BDE8F04100F0A5BA00000000F1
:100500002D0000002B000000200000001168026890
:10051000006A530501D508700AE0D30501D50880AB
:1005200006E0130603D5C217C1E9000200E0086027
:100530000120704701694A1C02610878704700B5C4
:100540008FB0CDE901310021059105497944CDE90C
:1005500003101146684600F029F90FB000BD0000F5
:10056000E5FFFFFF0A6802F8010B0A607047000010
:100570002DE9FF5F15468A460446DFF8AC80F84453
:100580000027D8E900103E46CDE9001010E03AF807
:1005900016106A4602A800F0B8FE411C07D0217868
:1005A000890603D5E269391891420DD80744761CB3
:1005B0002078800602D5E069B84205DDAE42E6DB70
:1005C0003AF816000028E2D1A069C01BA0612046BD
:1005D000FFF7FEFED8E90010CDE90010002017E07B
:1005E0003AF818106A4602A800F08FFEB0F1FF3FFB
:1005F00081460BD000250DF1080B05E0D4E901215F
:100600001BF8050090476D1C4D45F7D308F101001C
:10061000B0428046E4DB206A384420622046FFF77F
:10062000EDFEBDE8FF9F0000BE7C00002DE9F0411B
:100630008046D21D22F007020025D2E90002F529EA
:1006400015A614D0011E72F1000106DA0023D0EBCA
:10065000030063EB020211A608E0D8F800108B0734
:1006600001D50FA602E0490701D50EA601251146C6
:10067000002408F1240704E000F0A0F930323A55D4
:10068000641C50EA0102F7D12B463246214640460F
:10069000BDE8F04100F0D7B9000000002D000000D7
:1006A0002B0000002000000030B4002100F12404E1
:1006B00008E002F00705D208303542EA4372DB0851
:1006C0006554491C52EA0305F3D10468002310A2C3
:1006D000250707D5A40600D421B1C46901230DA2C2
:1006E000641EC46130BC00F0AEB910B504462146AA
:1006F0001068FFF79DFE02462046BDE8104000232B
:10070000D2E7D21D22F00701D1E90023CCE7000097
:100710000000000030000000F0B40D46018809051B
:1007200002D5214C7C4402E01F4C7C440E34002155
:1007300000F1240608E002F00F071209E75D42EA23
:1007400003721B097754491C52EA0307F3D102785C
:100750000023120704D5702D06D009B102231134ED
:100760002246F0BC00F06FB901231034F8E770B5F1
:1007700004460D4621461068FFF75AFE02462946F8
:100780002046BDE870400023C6E7D21D22F00703D3
:10079000D3E90023C0E70368126843F02003036035
:1007A0000823C3610023B7E7207B00002DE9F05F39
:1007B000894604464FF0000ADFF874B1FB44C0F8E4
:1007C00020A02046E1688847002874D0252806D05C
:1007D000D4E901219047206A401C2062F1E70026FD
:1007E0005F462046E16888472028054607DB312D13
:1007F00005D2781910F8200C08B10643F1E7B007CC
:1008000001D526F00406C4F81CA00027C4F818A0DF
:100810002A2D09D0284604F045FF38B304EB870899
:10082000303DC8F8185019E059F8041B204604EB75
:1008300087029161E1688847012F054618D1E06978
:10084000002820DA26F020061DE0D8F8180000EB7A
:10085000800005EB40003038C8F818002046E168F9
:100860008847054604F01EFF0028EED1012F0AD06C
:100870002E2D08D12046E16888477F1C0546022FAF
:1008800046F02006C4DBA069002803DA404246F0A7
:100890000106A061F00701D026F010066C2D0BD0E8
:1008A000682D09D04C2D39D06A2D35D0742D35D016
:1008B0007A2D33D016E038E0E1682F46204688478D
:1008C000B842054609D16C2F26D04FF48060E1680C
:1008D000064320468847054604E06C2F1AD04FF4A3
:1008E000807006430DB3A5F14100192802D82035C8
:1008F00046F400664A462946204626604E46FFF7E3
:100900004FFC80B101280BD0F61D26F0070000F146
:10091000080956E74020E4E78020D8E70020D6E722
:1009200006F104094DE7284652E7206ABDE8F09F2A
:10093000B07A00002DE9F04791460F468046044604
:10094000002614F8015B2DB100F030F80068405D1E
:10095000C007F6D12B2D02D02D2D18D0641E4A468B
:100960003946204600F082FC27B13968A14201D106
:10097000C7F800804FF0020471050BD540420028F3
:1009800003DDFFF721FD0460A007BDE8F08746F412
:100990008066E4E70028F8DAFFF716FD04606FF0E0
:1009A0000040F2E700487047CC0A002010B500F084
:1009B000F1FC001D10BD00BF4557000030B5B0F17F
:1009C0000A024FEA900E71F100034EEA817EB0EB0D
:1009D0000E0061EB91014FEA101E4EEA017E10EB12
:1009E0000E0041EB11114FEA102E4EEA016E10EB92
:1009F0000E0041EB11214FEA104E4EEA014E10EB72
:100A00000E0041EB1141401841F100014FEAD000C6
:100A100040EA41704FEAD10110EB80054FEA8104B2
:100A200044EA907444EB01046D1944EB0404521B36
:100A3000A3414FF0000348BF0A3200D530BD401C2F
:100A400041F1000130BD2DE9F0470D46994692462F
:100A5000044600F124080168880604D5E06921F005
:100A60001001216000E00120A84201DD471B00E0E9
:100A70000027A1697A1902EB0900081AA061207801
:100A8000C00602D42046FFF7A3FC002608E0D4E904
:100A900001211AF806009047206A401C761C20624B
:100AA0004E45F4DB2078C0060AD52046FFF790FCBF
:100AB00006E0D4E9012130209047206A401C2062E2
:100AC000381EA7F10107F4DC07E0D4E9012118F88A
:100AD00005009047206A401C2062281EA5F10105F0
:100AE000F3DC2046FFF78AFC2078000602D50220BE
:100AF000BDE8F0870120FBE770472DE9FF4F0C466A
:100B00001E464FF0FF378BB0D2E90001DDF8608060
:100B10000A908A46C1F30A5505B93D4600210846A8
:100B20004FF00000BAF1000F00F4400005DA00EBCE
:100B300080004FF4400101EA50004FEA9059B9F1AA
:100B4000010F00DDB9460A9850EA4A000ED044F67B
:100B50001050A5F2FF3545432F14B8F1000F1ED0F9
:100B60007542291E1EDDC9F100021CE0B8F1010F1B
:100B70004FF0000001D0302103E0F24305E02154A2
:100B8000401CB042FBDB30460022002121540B996F
:100B9000C1F80880C1E900200FB0BDE8F08FBD1B8F
:100BA0006D1CDEE74A4600DA694206A800F044FC04
:100BB00006AB93E8070003AB83E8070050460A99A9
:100BC00000F0BDFC8DE80700A0F500501F38009034
:100BD0000398002D0ADD42F21F014A460844002313
:100BE00003A90390684600F026FF09E0A0F5005035
:100BF0004A461F38002303A90390684600F030FFDF
:100C00008DE807000004000C03D04FF0FF304108CE
:100C100000E01046B8F1000F03D000220092154604
:100C20001EE0751E05D4FFF7C9FE303262556D1EF9
:100C3000F9D5B3460122084302D000227F1C04E00C
:100C40002078302801D100227F1E002A099784D005
:100C50001DE0112D07DAFFF7B1FE303262556D1C31
:100C600050EA0102F5D1084302D00098C8B10EE065
:100C70000021681E05E0235C625C63542254401E20
:100C8000491C8142F7DBAB46A81B401E099000209F
:100C900004F80B000B98099AC0F80880C0E9002BF3
:100CA0007AE711264FF0000857E72DE9F04F884604
:100CB0000446D21D22F0070191B0D1E90001CDE92F
:100CC0000A0104F078FC02460B98C00F01D02D20D9
:100CD00007E02068810701D52B2002E0202101EAEE
:100CE000C000032A099001D0072A05DB03464146CC
:100CF000204600F053FB0BE12078800601D5E06927
:100D000000E00620B8F1650F814606D0B8F1660F05
:100D100018D0B8F1670F70D131E00020B9F1110F90
:100D2000009001DB112301E009F101030AAA01A9E6
:100D30000CA8FFF7E2FEDDE90C70002609F10105C1
:100D4000834647E001204B4600904FF000470AAA37
:100D500001A90CA8FFF7D1FEDDE90DB00C995D46A5
:100D6000002610B909F101000D18B9EB050003D4F4
:100D7000C0F1FF3609F10105A5EB09002BE0B9F13F
:100D8000010F01DA4FF001090020B9F1110F0090B5
:100D9000484601DD112300E003460AAA01A90CA878
:100DA000FFF7ABFEDDE90C704D4600268346207848
:100DB00000070AD4AB4500DA5D4601A8012D04DD29
:100DC000411911F8011C302907D04F4502DA17F1FB
:100DD000040F04DA012082460FE06D1EEEE7002FBB
:100DE00002DCED1B3E4403E0781CA84200DD7D1CC4
:100DF000B81B00F1010A4FF000472078000703D428
:100E0000AA4501DB4FF0FF3A0021B7F1004F0DF189
:100E100043088DF8431024D002202B23002F01DA41
:100E20007F422D230A21021EA0F1010000DC5FB1E8
:100E300097FBF1FC97FBF1F201FB1C7C17460CF1D0
:100E4000300C08F801CDEEE7A8F10100037021880D
:100E5000090501D5452100E06521A0F1010800F850
:100E6000011C09980FA9A1EB0807FF1D00B1012083
:100E7000411901EBEA70A1693844081A401EA061CB
:100E80002078C00602D42046FFF7A2FA099828B1BC
:100E9000D4E901219047206A401C20622078C006D6
:100EA00022D52046FFF794FA1EE0002E04DBB3455E
:100EB00002DD01A8805D00E03020D4E901219047E7
:100EC000206A401C2062761CAAF101005FEA000A39
:100ED0000AD100F05FFAC0680168405CD4E90121E2
:100EE0009047206A401C2062281EA5F10105DCDC29
:100EF00007E0D4E9012118F8010B9047206A401C53
:100F00002062381EA7F10107F3DC2046FFF776FACE
:100F1000032011B041E600002DE9F04F04460D46D4
:100F2000D21D22F0070089B0D0E900974846394623
:100F300004F041FB0246F80F01D02D2307E02068A2
:100F4000810701D52B2302E0202101EAC0038DF89F
:100F500020300BB1012000E00020032A824601D09E
:100F6000072A04DB2946204600F018FA3FE12078E2
:100F7000800601D40D2500E0E569C7F30A560D2D62
:100F800049DA00214FEA175B08464FF00000002FB6
:100F900000F4400007DA00EB80004FF4400100EB62
:100FA000D07001EA60008115012901DD4FF0FF31A9
:100FB00000224FEA850CBCF1180F06D31346ACF1A2
:100FC00018004FF08052C24003E04FF4801323FA20
:100FD0000CF30CF10C0CBCF1200F04D3ACF1200C81
:100FE00009FA0CF001E007FA0CF000294FF0004874
:100FF00001DD18B90FE00ED140450CD319EB020901
:101000005F4121B9404502D19F4329EA0209BBEB68
:10101000175F00D0761C2088000502D57B487844F5
:1010200002E07A487844193808AA302302F80A30D6
:10103000037C0AF10101002E0AF1020A53546A46A8
:1010400002DC4FF0300101E04FF031014FF00108B8
:101050008DF8001002D0A6F2FF3603E059EA4701EE
:1010600000D06B4E002D02DC2178090704D54FF02B
:1010700002082E218DF80110C44600210BE0C7F3B1
:1010800003433F01C35C491C6D1E02F8083005296B
:1010900008F1010801DA002DF1DC00210CE000EB81
:1010A0001973491C1B786D1E082902F808304FEA95
:1010B000091908F1010801DA002DF0DC21688B061E
:1010C00002D516E0A8F10108E04505DD02EB0803B2
:1010D00013F8013C302BF5D0B8F1000F09DD02EB1D
:1010E000080313F8013C2E2B03D1090701D4A8F102
:1010F0000108002D05DD3E2102F808106D1E08F1E3
:101100000108407C002E02F8080008F1010804DA0A
:101110002D20764202F8080002E02B2002F8080099
:101120000A214FF47A70864208F101080BDB96FB26
:10113000F0F3303302F8083096FBF0F308F10108C1
:1011400000FB136601E0642E0CDB642096FBF0F3D9
:10115000303302F8083096FBF0F308F1010800FB89
:10116000136601E00A2E06DB96FBF1F0303002F840
:10117000080008F1010896FBF1F001FB1060303027
:1011800002F80800A16908F1010808EB050202EB6A
:101190000A00081AA0612078C00602D42046FFF792
:1011A00017F9216A08AE01EB0A00206204E0D4E9D5
:1011B000012116F8010B9047BAF1010AF7D2207805
:1011C000C00602D52046FFF703F96E4609E016F87F
:1011D000010B3E280FD0D4E901219047206A401C22
:1011E0002062B8F10108F2D22046FFF707F909B0F2
:1011F0000320BDE8F08F206A2844206203E0D4E990
:101200000121302090476D1EEBD3F8E719730000E1
:1012100002FCFFFF10B5436913B1AFF3008001E09A
:10122000FFF70FF9012010BD127800F124010A70B8
:1012300000224A700122EDE711684FF0FF32E9E722
:1012400010B5436913B1AFF3008001E0FFF790F9E7
:10125000012010BD128800F1240182840022C28482
:101260000122EDE711684FF0FF32E9E72DE9F05F69
:10127000824615468B4600270AF10104B9460078DC
:10128000302801D09DB113E014F8010B0127782814
:1012900003D0582801D045B10AE00DB1102D07D177
:1012A000002714F8010B102502E0082500E00A25AC
:1012B0000026B0460EE005FB080005FB06F10127FD
:1012C0001FFA80F801EB1046B6F5803F00D3B9460F
:1012D00014F8010B294600F0A1F80028EBDABBF165
:1012E000000F05D00FB1641E00E05446CBF800405B
:1012F000B9F1000F06D0FFF767F802210160C81EA0
:10130000BDE8F09F48EA0640FAE770B516460C467D
:101310000546FFF74BFB036893F80101012806D04F
:10132000FF2C0FD8185D68B101202C7070BDD3F868
:1013300007013246214603F2071303442846BDE85D
:10134000704018474FF0FF3070BD7546FFF72AFB1D
:10135000AE4605006946534620F00700854618B0A2
:1013600020B5FEF795FFBDE820404FF000064FF096
:1013700000074FF000084FF0000B21F00701AC46CA
:10138000ACE8C009ACE8C009ACE8C009ACE8C009E9
:101390008D46704700487047EC0A00202DE9F04167
:1013A0001F46044603260168072A01F4006004DB97
:1013B00008B116A505E016A503E008B115A500E0E3
:1013C00015A521F010002060A069C01EA0610FB11A
:1013D000401EA0612046FEF7FBFF4FB1D4E901217A
:1013E00038469047206A401C2062C01C206206E0FC
:1013F000206AFAE7D4E9012115F8010B9047761E1F
:10140000F8D22046FEF7FAFFBDE8F0814E414E00CB
:101410006E616E00494E4600696E66003A2800D241
:10142000303820F02002412A01D3A2F1370088424F
:1014300001D34FF0FF3070472DE9F0478146164643
:101440008AB0354878440DC88DE80D00324878449C
:10145000801C03AC0DC884E80D0041F69B300844A5
:10146000372190FBF1F290FBF1F5A5F1800501FB2E
:1014700012041B3C02D56442012000E00020DFF88A
:1014800098A080460027FA44AAF1BE0A0EE0E007C1
:101490000AD03246684607EB470101230AEB810177
:1014A00000F0DEFA8DE8070064107F1C002CEED1FE
:1014B000194F7F44AE3F19E0E80715D007EB041041
:1014C0000DF1180A90E80E008AE80E00C068F0429C
:1014D00001D1981908903246012306A903A800F00B
:1014E000BFFA03AB83E807006D10641C002DE3D145
:1014F0004FF0010332466946B8F1000F03A802D04D
:1015000000F099FA01E000F0ABFAC9E90001C9F86E
:1015100008200AB0BDE8F087846F000010B50446CB
:10152000AFF300802046BDE81040FEF79CBE0000EF
:1015300001491820ABBEFEE72600020070475FEAB3
:10154000400C08BF91F0000F4FEA8C234FEAC122F4
:1015500043EA51514FEA1C5018BF00F5F0404FEAE2
:10156000300018BF41F000415FEA6C5C00F0298058
:10157000BCF1FF3F08BF40F080407047130C06BF2E
:1015800012044FF0100C4FF0000C130E04BF1202A7
:101590000CF1080C130F04BF12010CF1040C930F93
:1015A00004BF92000CF1020CD30F04BF52000CF1E7
:1015B000010C11464FF00002A0F11F00A0EB0C003F
:1015C000704711F0004F08BF704731F000413FF401
:1015D000D5AF0B0C06BF09044FF0100C4FF0000CF8
:1015E0000B0E04BF09020CF1080C0B0F04BF09011C
:1015F0000CF1040C8B0F04BF89000CF1020CCB0F13
:1016000004BF49000CF1010CCCF12003A0EB0C004D
:1016100022FA03F302FA0CF241EA030100F101009D
:10162000704720F07F4C80EA030023F07F47ACEB4B
:10163000070303F57C5300F0004003F1FF032DE99D
:1016400080494FEA154B09B44FEA144325EA0B4E83
:1016500024EA03480FF2042606EB132749083E78D4
:101660005FEA320203FB0667C7F5000707FB06F6D1
:101670004FEA54374FEAD64606F1020607FB066CDE
:10168000CCF1005C4FEA1C472CEA074C07FB06F440
:101690000CFB06F504EB15464FEA961634BF002006
:1016A0004FF000404FEAD13706FB07FC4FEA1C4CD5
:1016B0000CFB0BF7D21B03FB0CF761EB07010CFBD8
:1016C0000EF7B0EB074072EB17420CFB08F734BF84
:1016D000A2EB0742B2EB074261EB17414FEA0C4421
:1016E0004FEA910706FB07FC4FEA1C4C0CFB0BF77B
:1016F000B0EBC74072EB573203FB0CF734BFA2EBE1
:10170000C742B2EBC74261EB57310CFB0EF7B0EBAF
:10171000C70072EB57720CFB08F734BFA2EBC7028D
:10172000B2EBC70261EB5771039F4FEA816141EA57
:10173000921104EBCC044FEAD1374FEA826206FBE8
:1017400007FC42EA90124FEA80604FEA1C4C0CFB07
:101750000BF7D21B03FB0CF761EB07010CFB0EF739
:10176000B0EB074072EB17420CFB08F734BFA2EB5B
:101770000742B2EB074261EB17414FEA8C554FEA43
:10178000910704EB9C2406FB07FC4FEA1C4C0CFB66
:101790000BF7B0EBC74072EB573203FB0CF734BFCB
:1017A000A2EBC742B2EBC74261EB57310CFB0EF71D
:1017B000B0EBC70072EB57720CFB08F734BFA2EB1B
:1017C000C702B2EBC70261EB577115EB4C254FEA2C
:1017D000816141EA92114FEA82624FEAD13742EACF
:1017E000901206FB07FC44F100044FEA80604FEAC8
:1017F0001C4C0CFB0BF7D21B03FB0CF761EB070136
:101800000CFB0EF7B0EB074072EB17420CFB08F72E
:1018100034BFA2EB0742B2EB074261EB174115EB75
:101820001C154FEA813141EA92414FEA823242EA85
:1018300090424FEA80304FEA0C7644F1000448EAC7
:1018400003434EEA0B484FF0000EB2EB080C71EB6D
:10185000030724BF624639464EEB0E0E4FF0000BD5
:101860000018524149414BEB0B0BB2EB080C71EBEA
:1018700003077BF1000B24BF624639464EEB0E0E88
:101880004FF0000B0018524149414BEB0B0BB2EBF0
:10189000080C71EB03077BF1000B24BF624639464D
:1018A0004EEB0E0E51EA020718BF46F0010616EB8A
:1018B0000E7655F1000254F1000103D5BDE889010F
:1018C000BDE80088BDE88901BDE80048B61952416D
:1018D00041EB0101A3F10103704780807F7E7D7C95
:1018E0007B7A7978777676757473727171706F6EB2
:1018F0006E6D6C6C6B6A6A6968686766666564645D
:10190000636362616160605F5F5E5E5D5D5C5C5BE6
:101910005B5A5A5959585857575656555555545455
:10192000535352525251515050504F4F4F4E4E4DB3
:101930004D4D4C4C4C4B4B4B4A4A4A4949494848FF
:10194000484747474746464645454544444444433F
:1019500043434342424242414141002B9C4630D4E2
:1019600077002BD01CB54FEA370703B44FF01000B7
:101970004FF01001BAF1000F06D0BCF1000FDCBF30
:1019800040F0080040F008014FF000000FBCBDE837
:1019900010400BF1010BBBF1010F08BF5FEA170705
:1019A00022BF12F1010211F101014FF0004143F198
:1019B000000300F0004043EA00007047F9D35708E5
:1019C000D0E746EA064613F1400F4FEA16461FDD00
:1019D00013F1200FDFBF16430A46002120335B427C
:1019E000BED0C3F1200746EA064602FA07F74FEADF
:1019F000164646EA0706C3F1200722FA03F201FA67
:101A000007F721FA03F14FF0000342EA0702A7E7C4
:101A100046EA020646EA06464FEA164646EA010646
:101A2000BCBF46EA0646360C4FF000034FF00002FA
:101A30004FF0000194E72DE9804C9A46934670B42C
:101A400091E8380007C831EA400C48BF34EA430C3B
:101A500003D5FFF7E6FDFFF780FFF0BCBDE8008C83
:101A60002DE9804C9A46934670B491E8380007C837
:101A700010F0804F08BF13F0804F03D100F005F83D
:101A8000FFF76BFFF0BCBDE8008C20F07F4780EAD9
:101A9000030023F07F4C07EB0C03A3F57C5300F00D
:101AA0000040A3F1FE0392F0000F00F0B38095F028
:101AB000000F00F077802DE901494FEA11404FEA0D
:101AC000144621EA004800FB06FC24EA064708FB0E
:101AD00006F607FB08F800FB07F718EB06484CEB87
:101AE000164C4FEA124B18EB07484FEA15464CEBE1
:101AF000174022EA0B4E0BFB06FC25EA06470EFBBD
:101B000006F607FB0EFE0BFB07F71EEB064E4CEB33
:101B1000164C4FF000061EEB074E4CEB174B18EB24
:101B20000B0840F1000018EB0E0B58EB000840F1D9
:101B300000008F1A4FF000013CBFC943661B14BF61
:101B4000B5EB040C00213CBFC943F61B4FEA174418
:101B50004EEA8E0E27EA04454FEA1C4704FB076253
:101B60002CEA074C05FB07F70CFB05F604FB0CFC05
:101B700016EB074642EB174216EB0C4642EB1C42B3
:101B80001BEB060658EB0202414146EA9E0601D5D0
:101B9000BDE80189B619524141EB0101A3F10103EE
:101BA000BDE801894FEA14454FEA114724EA05468A
:101BB00021EA074C05FB07F406FB07F70CFB06F1CF
:101BC00005FB0CFC11EB074144EB17444FEA1247AD
:101BD00011EB0C4144EB1C4422EA074C05FB07F2D5
:101BE00006FB07F70CFB06F605FB0CFC16EB07469D
:101BF00042EB174216EB0C4642EB1C456A1854F1B7
:101C0000000148BF7047B619524141EB0101A3F1F1
:101C10000103704795F0000F37D04FEA11424FEAA9
:101C2000144721EA024624EA074C02FB07F106FBAF
:101C300007F70CFB06F402FB0CFC14EB074441EB2A
:101C400017414FEA154714EB0C4441EB1C4125EAC0
:101C5000074C02FB07F506FB07F70CFB06F602FB39
:101C60000CFC16EB074645EB174516EB0C4645EB0F
:101C70001C42121951F1000148BF7047B619524178
:101C800041EB0101A3F1010370474FEA14454FEA0C
:101C9000114724EA054621EA074C05FB07F106FB3C
:101CA00007F70CFB06F24FF0000605FB0CFC12EBED
:101CB000074241EB174112EB0C4251EB1C4148BF6C
:101CC0007047921841EB0101A3F101037047000036
:101CD000002004E00021034A1154411CC8B26428CA
:101CE000F8DB70478C09002001460F4800880F4A36
:101CF0001288904203D100200870012070470C48E0
:101D0000094A1288805C087007480088632803DB52
:101D10000020054A108004E003480088401C024A65
:101D200010800020EAE700003C0000203A0000207C
:101D30008C09002010B50446204600F07FF810BD45
:101D400000B587B00121480402F032FA01210420D5
:101D500002F03EFA18208DF81B000420ADF81800A0
:101D600003208DF81A0006A9204800F010FB482037
:101D70008DF81B000820ADF8180003208DF81A001C
:101D800006A91A4800F003FB4FF4165002900020F9
:101D9000ADF814000C20ADF812000020ADF81000D2
:101DA000ADF80E00ADF80C0002A9114803F08CFB51
:101DB000012240F225510E4803F060FB4FF4A06071
:101DC00001F0D4FC26208DF8040001208DF80700D6
:101DD0008DF805008DF8060001A801F08FFC0121A7
:101DE000034803F008FB07B000BD000000080140F5
:101DF0000044004006480088643006490988401ABB
:101E0000642190FBF1F201FB120080B270470000E8
:101E10003A0000203C0000200FB400B59BB01DA884
:101E2000019002A8019A1C99FEF744FA0020019043
:101E300002A800F0C1F81BB05DF814FB0146104881
:101E40000088401C642290FBF2F302FB13000D4A51
:101E50001288904201D1012070470B48084A12882D
:101E6000815407480088632803DB0020044A10805F
:101E700004E003480088401C014A10800020EBE782
:101E80003A0000203C0000208C0900200146054853
:101E900000880844642290FBF2F302FB1300024A1C
:101EA000105C70473C0000208C090020F8B500232E
:101EB00000240025FFF79EFF074600261DE0684628
:101EC000FFF712FF9DF800005B2802D101250023D7
:101ED00011E09DF800005D2805D1012D03D10020FF
:101EE0001C49C8540BE0012D05D19DF8000019498B
:101EF000C854581C83B2701C86B2BE42DFDB00BFE0
:101F0000002300201AE01349095C2C290AD1002182
:101F100003EB8302104E06EB82021155591C8BB263
:101F2000002409E00B49095C03EB83020A4E06EB2F
:101F300082021155611C8CB2411C88B20549095CB2
:101F40000029E0D1002003EB8301034A02EB810169
:101F50000855F8BDF0090020540A002070B500258E
:101F6000FFF748FF0646002411E02046FFF78EFFEA
:101F70005B2801D1012508E02046FFF787FF5D2897
:101F800003D1012D01D1012070BD601C84B2B44287
:101F9000EBDB0020F8E7000010B5044621460548B9
:101FA00003F003FB00BF8021024803F030FA002851
:101FB000F9D010BD0044004070B50446002504E08F
:101FC000605DFFF7E9FF681CC5B2605D0028F7D1CE
:101FD00070BD00BFFEE7000010B53AE001F0D0FB95
:101FE0001DA308220021084601F0BFFD20A30822FE
:101FF0001021002001F0B9FD23A308222021002098
:1020000001F0B3FD26A308223021002001F0ADFD30
:1020100001F0A8FF0821002000F05EFD18B100F0DB
:102020006DFD00F09BFA0821012000F055FD18B16C
:1020300000F064FD02F062F92021032000F04CFD65
:1020400038B100201C49087001F09AFB00F056FDE1
:1020500000E0C3E700BF10BD2020205BE8B083E8AC
:10206000AF95E6A8A1E5BC8F5D2020200000000010
:102070004B31EFBC9AE7A1ACE4BBB6E6B58BE8AF59
:1020800095202020200000004B32EFBC9AE4BCA039
:10209000E6849FE599A8E6A0A1E5878620200000B8
:1020A0002020E995BFE68C894B34E994AEE8BF94D3
:1020B000E59B9E20200000008E000020704700B5A8
:1020C000034603E04FF47A7000F005F8181EA3F100
:1020D0000103F7D100BD00EBC001C9004FF0E022C1
:1020E0005161002191610521116100BF4FF0E02194
:1020F000096901F480310029F8D004214FF0E02271
:102100001161704770B50446012C09D10B4802F0EB
:1021100042FF05B20021094803F06CF8284670BD63
:10212000022C09D1064802F036FF05B2002104480E
:1021300003F060F82846F2E70020F0E700040040D2
:102140000008004000B587B00121022002F030F8FD
:102150000121042002F03CF848208DF81B00C0202B
:10216000ADF8180003208DF81A0006A93F4800F0CA
:102170000EF90020ADF81200ADF80E004FF6FF701A
:10218000ADF810000020ADF80C008DF8140003A984
:10219000374803F05DF8684602F068FF0020ADF8AC
:1021A00000000F20ADF808006946314802F008FF32
:1021B0000420ADF800000F20ADF8080069462C4857
:1021C00002F0FEFE00231A460321294802F0C2FE57
:1021D0000121274802F0B2FE0121042001F0E8FFAE
:1021E0000121082001F0F4FF48208DF81B00C020D9
:1021F000ADF8180003208DF81A0006A91D4800F05C
:10220000C6F80020ADF81200ADF80E004FF6FF70D2
:10221000ADF810000020ADF80C008DF8140003A9F3
:10222000154803F015F8684602F020FF0020ADF8CD
:1022300000000F20ADF8080069460F4802F0C0FE0C
:102240000420ADF800000F20ADF8080069460A48E8
:1022500002F0B6FE022300220321074802F07AFEB4
:102260000121054802F06AFE07B000BD00080140E8
:1022700000040040000C01400008004030B5044656
:1022800004254FF4302000F06FF80546042D17D1D7
:102290000C48006940F002000A49086108464461A0
:1022A000006940F0400008614FF4302000F05CF815
:1022B00005460448006941F6FD710840014908617E
:1022C000284630BD0020024004200B49C96801F0B7
:1022D000010109B101200EE00749C96801F00401BC
:1022E00009B1022007E00449C96801F0100109B1F1
:1022F000032000E0042070470020024003480069EA
:1023000040F0800001490861704700000020024051
:1023100070B504460D460426F00200F025F8064686
:10232000042E11D10948006940F0010007490861F5
:102330002580F00200F018F806460448006941F6CE
:10234000FE71084001490861304670BD002002401E
:1023500002480349486003484860704723016745C5
:1023600000200240AB89EFCD00B502460423FFF701
:10237000ABFF034603E0FFF7A7FF0346521E012B06
:1023800001D1002AF7D102B90523184600BD2DE975
:10239000F0410246002500260020002300240027EB
:1023A00091F803C00CF00F0591F803C00CF0100C6D
:1023B000BCF1000F03D091F802C04CEA050591F87A
:1023C00000C0BCF1000F31D0146800202BE04FF0AA
:1023D000010C0CFA00F3B1F800C00CEA03069E42AF
:1023E00020D183004FF00F0C0CFA03F7BC4305FA21
:1023F00003FC4CEA040491F803C0BCF1280F06D199
:102400004FF0010C0CFA00FCC2F814C00AE091F87D
:1024100003C0BCF1480F05D14FF0010C0CFA00FCD1
:10242000C2F810C0401C0828D1D31460B1F800C015
:10243000BCF1FF0F34DD546800202EE000F1080CE1
:102440004FF0010808FA0CF3B1F800C00CEA0306DB
:102450009E4221D183004FF00F0C0CFA03F7BC43CE
:1024600005FA03FC4CEA040491F803C0BCF1280F00
:1024700005D100F1080C08FA0CF8C2F8148091F8A4
:1024800003C0BCF1480F07D100F1080C4FF0010860
:1024900008FA0CF8C2F81080401C0828CED354600B
:1024A000BDE8F081F0B50A46002300240021002594
:1024B00000F00046B6F1004F02D11D4EF16901E077
:1024C0001B4E7168C0F3034583B200F44016B6F5A5
:1024D000401F08D121F07061154E766826F07066B5
:1024E000134F7E6012E000F48016B6F5801F06D10F
:1024F000032606FA05F4A14341F0706106E0460D9B
:10250000360103FA06F6B14341F0706122B1460D7F
:10251000360103FA06F6314300F00046B6F1004FEB
:1025200002D1034EF16101E0014E7160F0BD000087
:10253000000001400246002093680B400BB10120CF
:1025400000E00020704741617047016170470AB1A7
:10255000016100E04161704700BFFEE72DE9F04FE7
:102560008DB001240025002600200C900B908146A0
:10257000824609900A90079008900027834680467B
:10258000069001F0FDF816E20821032000F0A4FAFD
:1025900090B100F0B3FA01F0F3F8601CC4B2042C5F
:1025A00000DD0124002500262946012000F082FDDF
:1025B0003146022000F07EFD2021032000F08CFA3D
:1025C00020B100F09BFA0DB0BDE8F08F012C71D165
:1025D0000821002000F080FA48B1642D02DA05F1EC
:1025E0000A0005B2642E02DA06F10A0006B20821DA
:1025F000012000F071FA58B115F1640F02DDA5F168
:102600000A0005B216F1640F02DDA6F10A0006B257
:102610000821022000F060FA08B1002500262946B2
:10262000012000F047FD3146022000F043FD01206B
:10263000FFF768FD0C900220FFF764FD0B900C98EB
:1026400048440FFA80F94FF47A7099FBF0F100FBDF
:1026500011990B9850440FFA80FA4FF47A709AFB54
:10266000F0F100FB11AAD4A308220021084601F0D2
:102670007CFAD7A3082210210020CDE9005601F0F2
:1026800074FADDE90B10D7A30822CDE9000120215F
:10269000002001F06AFAD8A3082230210020CDE9F9
:1026A000009A01F062FA01F05DFC3220FFF707FDAD
:1026B00081E1FFE7022C49D1D448D549D54BD64A10
:1026C000CDE90010D549D64800F012FCD5A3082268
:1026D0000021084601F049FACE48B0F90000D0497F
:1026E000B1F90010D4A30822CDE900101021002078
:1026F00001F03BFAC648B0F90000C849B1F9001032
:10270000CDA30822CDE900102021002001F02DFAF0
:10271000BE48B0F90000C049B1F90010C6A30822B4
:10272000CDE900103021002001F01FFA00F021FC5B
:102730000590C4A3082210210090702001F015FA22
:1027400001F010FC3220FFF7BAFC34E1032C7CD1FD
:102750000821002000F0C0F910B39DF82400401CAF
:10276000C0B28DF824009DF82500801CC0B28DF801
:1027700025009DF82600C01CC0B28DF826009DF8EB
:102780002700001DC0B28DF827009DF82800401DCD
:10279000C0B28DF82800052209A9102000F07DFFA5
:1027A0000821012000F098F910B39DF82400401E84
:1027B000C0B28DF824009DF82500801EC0B28DF8AF
:1027C00025009DF82600C01EC0B28DF826009DF899
:1027D0002700001FC0B28DF827009DF82800401F79
:1027E000C0B28DF82800052209A9102000F055FF7D
:1027F000052207A9102000F00EFE94A30822002154
:10280000084601F0B2F99DF828009DF827109DF8C0
:1028100026209DF82530CDE90132CDE903109DF841
:1028200024008FA3082210210090002001F09DF9C0
:102830009DF820009DF81F109DF81E209DF81D306A
:10284000CDE90132CDE9031000E00EE09DF81C0057
:102850008AA3082220210090002001F086F901F0CF
:1028600081FB3220FFF72BFCA5E0042CFCD10821D2
:10287000002000F031F928B1781CC7B208F102003D
:1028800000F0FF080821012000F026F928B1781E89
:10289000C7B2A8F1020000F0FF080821022000F0F2
:1028A0001BF920B3384601F0EDFE4046FFF774FBFC
:1028B00010231A461946202001F070F910231A46F9
:1028C0001946602001F06AF901F04CFB6420FFF723
:1028D000F6FB10231A461946202001F05FF9102359
:1028E0001A461946602001F059F901F03BFB01F04E
:1028F0005FFEF8B101F056FE83469DF8180066A30E
:1029000008222021CDE900B0002001F02EF910238B
:102910001A462021084601F041F901F023FB64200A
:10292000FFF7CDFB10231A462021084601F036F9A7
:1029300001F018FBFFF75EFA00281FDD06A8FFF77D
:10294000D3F99DF8180054A308222021CDE900B046
:10295000002001F00AF910231A462021602001F01E
:102960001DF901F0FFFA6420FFF7A9FB10231A46B6
:102970002021602001F012F901F0F4FA4BA30822A3
:102980000021084601F0F1F84EA308221021002092
:10299000CDE9007801F0E9F89DF818003EA308227F
:1029A0002021CDE900B0002001F0DFF801F0DAFAD3
:1029B0003220FFF784FBE7E5E7BC96E7A081E794C8
:1029C000B5E69CBAE6B58BE8AF9520312F34000010
:1029D00050574D4C3A252B30346420523A252B3039
:1029E000346400005370644C3A252B303464205218
:1029F0003A252B30346400004C6F634C3A252B3061
:102A0000346420523A252B30346400004C000020FE
:102A10004A0000204800002046000020440000201A
:102A2000420000204D505536303530E6B58BE8AFCA
:102A3000952020322F340000252B30366420252BA2
:102A40003036640025303258000000004E524632C5
:102A5000344C3031E6B58BE8AF9520332F3400008D
:102A6000573A2530325820253032582025303258F8
:102A7000202530325820253032580000523A253077
:102A80003258202530325820253032582025303217
:102A900058202530325800005258313A25303258EB
:102AA00020205258323A253032580000E4B8B2E5BE
:102AB0008FA3E6B58BE8AF952020202020342F345B
:102AC000000000005458313A253032582020545824
:102AD000323A25303258000002460748805C0840F0
:102AE00040B1012904D00448805C8843024B9854CB
:102AF000012070470020FCE714000020002004E0C3
:102B00000021034A1154411CC8B20428F8DB704765
:102B10001400002010B5044634B902211148FFF713
:102B200009FDE0B9012010BD012C06D101210D489D
:102B3000FFF700FD98B90120F5E7022C06D120210E
:102B40000948FFF7F7FC50B90120ECE7032C06D148
:102B500010210548FFF7EEFC08B90120E3E700204B
:102B6000E1E70000000C01400008014008B5012128
:102B7000042001F02DFB0121082001F029FB482051
:102B80008DF803000320ADF800008DF802006946BF
:102B90000548FFF7FCFB3020ADF80000694603480C
:102BA000FFF7F5FB08BD0000000C014000080140E4
:102BB00010B50020A349087016E0A348A149097880
:102BC00030F8110000280ADD9F489E49097830F846
:102BD0001100401E9C499B4A127821F81200994826
:102BE0000078401C97490870964800780428E4DB78
:102BF00096480078401C95490870084600781428CB
:102C000071DB002008708F49087015E190488D49EC
:102C10000978415C8F488B4A127881548948007842
:102C2000FFF778FF8A49874A127888540846854911
:102C30000978405C01280AD1874882490978405CBC
:102C400040F0010084497F4A1278885409E08248A4
:102C50007C490978405C20F001007F49794A12786C
:102C600088547B4877490978405C01280ED179481F
:102C700074490978405C48B9774872490978405CE2
:102C800040F0020174486F4A1278815470486D49CF
:102C90000978405C78B96F486A490978405C012836
:102CA00009D16D4867490978405C40F004016A48E1
:102CB000644A12788154694862490978405C98B93D
:102CC000634860490978405C01280BD14FF47A7061
:102CD0005D495C4A127821F8120001205F49594A87
:102CE00012788854A3E0ACE05C4856490978405C0F
:102CF00001282DD1564853490978405C58B9002025
:102D00005149504A127821F81200022053494D4A85
:102D1000127888548BE04C484A49097830F8110001
:102D2000002814D164204849464A127821F812003C
:102D3000494844490978405C40F020004649414AEE
:102D400012788854042045493E4A127888546EE02F
:102D500042483C490978405C02282BD13C4839491B
:102D60000978405C01280FD13B4836490978405C1E
:102D700040F010003849334A12788854032037490C
:102D8000304A1278885452E02F482E49097830F89A
:102D90001100F8B930482B490978405C40F0080030
:102DA0002D49284A1278885400202C49254A127847
:102DB00088543CE0294823490978405C03280AD11B
:102DC000234820490978405C20B9002023491D4A46
:102DD000127888542BE021481A490978405C04286D
:102DE00025D11B4817490978405C28B900201B49A8
:102DF000144A127888541AE013481249097830F8B6
:102E00001100A0B9642010490E4A127821F812006E
:102E100011480C490978405C40F040000E49094ACD
:102E20001278885404200D49064A127888540548BF
:102E30000078401C03490870024800780428FFF617
:102E4000E5AE10BD1900002026000020180000206B
:102E50001A0000201E000020140000202200002084
:102E600008B50121102001F0B3F910208DF80300FE
:102E70004002ADF8000003208DF8020069460448C6
:102E8000FFF785FA4FF400510148FFF75EFB08BDDC
:102E90000010014010B54FF400510248FFF755FBF8
:102EA00010BD00000010014010B54FF40051024861
:102EB000FFF749FB10BD0000001001400849498898
:102EC000084A11800649898809B2074A11800449D5
:102ED000C988034A128941EA0240044908607047E0
:102EE0004C0100208C000020520000205C000020DB
:102EF0002DE9FF4704460D4617461E46DDE90C89BD
:102F00000E2269463B2000F074F89DF801009DF800
:102F1000001040EA012000B220809DF803009DF8D7
:102F2000021040EA012000B228809DF805009DF8BB
:102F3000041040EA012000B238809DF809009DF895
:102F4000081040EA012000B230809DF80B009DF887
:102F50000A1040EA012000B2A8F800009DF80D0018
:102F60009DF80C1040EA012000B2A9F80000BDE86D
:102F7000FF8710B5752000F01DF810BD10B500F0EA
:102F8000F7F801216B2000F063F800216C2000F0BD
:102F90005FF80721192000F05BF800211A2000F0EB
:102FA00057F818211B2000F053F818211C2000F0BE
:102FB0004FF810BD70B5044600F04FF9D02000F076
:102FC00033F900F0FDF8204600F02EF900F0F8F893
:102FD00000F043F9D12000F027F900F0F1F800F0FB
:102FE000FEF80546012000F013F900F044F92846E8
:102FF00070BD2DE9F04107460E46154600F02DF94B
:10300000D02000F011F900F0DBF8384600F00CF9A0
:1030100000F0D6F800F021F9D12000F005F900F019
:10302000CFF800240EE000F0DAF83055681EA04218
:1030300003DD002000F0ECF802E0012000F0E8F8E9
:10304000601CC4B2AC42EEDB00F015F9BDE8F081C3
:1030500070B505460C4600F000F9D02000F0E4F809
:1030600000F0AEF8284600F0DFF800F0A9F820469E
:1030700000F0DAF800F0A4F800F0FDF870BD00BF31
:10308000FEE7000008B50121082001F0A1F810209A
:103090008DF803004FF47040ADF8000003208DF868
:1030A000020069460248FFF772F901F021F808BDF5
:1030B000000C014070B505460C46012D1CD1002CBA
:1030C0000BDB41031C48FFF73EFA29031A48FFF7C0
:1030D0003CFAA0B201F05AF82CE04FF40051164827
:1030E000FFF733FA4FF480511348FFF72CFA61428F
:1030F00088B201F04BF81DE0022D1BD1002C0BDB38
:10310000A9030D48FFF721FA69030B48FFF71BFAE3
:10311000A0B201F043F80DE04FF400410648FFF77C
:1031200012FA4FF480410448FFF70FFA614288B267
:1031300001F034F870BD0000000C014010B50446E9
:10314000FFF706F92046FFF799F8FFF7D7F810BD0B
:1031500070B504460D46FFF7FBF829462046FFF7F9
:10316000D7F8FFF7CBF870BD01460888704700001C
:1031700008B50121082001F02BF814208DF8030078
:103180004FF44060ADF8000003208DF8020069465E
:103190000448FFF7FCF84FF440610248FFF7D5F907
:1031A00008BD0000000C014010B54FF40061034859
:1031B000FFF7C0F90446204610BD0000000C014096
:1031C00010B5012000F06EF8012000F05FF8FFF765
:1031D000EBFF0446002000F059F8204610BD70B502
:1031E0000025012000F05EF800240DE0012000F031
:1031F0004DF8FFF7D9FF10B1802020410543002092
:1032000000F044F8601CC4B2082CEFDB284670BD07
:1032100010B50446204600F045F8012000F036F8CD
:10322000002000F033F810BD70B50546002411E011
:1032300080212141294009B1012100E000210846F7
:1032400000F030F8012000F021F8002000F01EF816
:10325000601CC4B2082CEBDB70BD10B5012000F07F
:1032600021F8012000F012F8002000F01BF80020E7
:1032700000F00CF810BD10B5002000F013F801208C
:1032800000F004F8012000F00DF810BD10B5044660
:1032900022464FF480610248FFF759F910BD000043
:1032A000000C014010B5044622464FF4006102486C
:1032B000FFF74DF910BD0000000C0140704710B53C
:1032C000002000F0B9F9E22000F026F9012000F01A
:1032D000B3F910BD10B5002000F0AEF9E12000F008
:1032E0001BF9012000F0A8F910BD000008B501216C
:1032F000084600F06DFF01211C48FFF7D3F80121BB
:10330000042000F065FF0121082000F061FF10207B
:103310008DF803004FF40140ADF8000003208DF854
:10332000020069461248FFF732F82820ADF8000085
:1033300069461048FFF72BF848208DF8030010204D
:10334000ADF8000003208DF8020069460948FFF738
:103350001EF8002000F064F9012000F06DF9002053
:1033600000F080F9002000F073F908BD0002300081
:1033700000080140000C014010B5FFF7B7FF08211D
:10338000002000F079F93F21012000F075F90121BA
:10339000022000F071F90321084600F06DF90321C5
:1033A000042000F069F90221052000F065F90E21E2
:1033B000062000F061F92021112000F05DF90522BE
:1033C00007490A2000F069F9FFF784FFFFF777FF4C
:1033D0007021072000F050F900F088F810BD0000BF
:1033E0003300002010B510210148FFF7A3F810BDED
:1033F000000C014070B50446002000F01DF9204685
:1034000000F08AF8FF2000F087F80546012000F060
:1034100013F9284670BD2DE9F04104460E461746C3
:10342000002000F009F9204600F076F8002505E0BC
:10343000FF2000F071F87055681CC5B2BD42F7DB83
:10344000012000F0F9F8BDE8F08170B505460E46A0
:10345000002000F0F1F8612000F05EF8002405E0A3
:10346000FF2000F059F82855601CC4B2B442F7DBC5
:10347000012000F0E1F870BD10B5002000F0DCF88C
:10348000FF2000F049F80446012000F0D5F820465E
:1034900010BD000070B5FFF7EFFF05460020FFF7F5
:1034A000A9FF064606F0020018B90324FFF764FFDF
:1034B00018E005F03000302803D10224FFF75CFF4C
:1034C00010E005F0400040280BD1012420210648DF
:1034D000FFF7BBFF4021072000F0CEF8FFF7EFFE1B
:1034E00000E00024204670BD6C09002010B50020CB
:1034F00000F096F80020FFF77DFF0446FF2C00D176
:1035000010BD44F003042146002000F0B5F801206E
:1035100000F086F800BFF3E770B50446002518E018
:1035200004F0800018B1012000F092F802E00020C1
:1035300000F08EF86006040E012000F093F8FFF70B
:1035400051FF08B144F00104002000F08BF8681C22
:10355000C5B2082DE4DB204670BD000070B5052221
:103560002049102000F099F805221E490A2000F099
:1035700094F820211C4800F0AAF800F039F842F233
:1035800010761EE0FFF778FF0446761E1EB904256C
:10359000FFF7F2FE16E004F03000302803D10325D7
:1035A000FFF7EAFE0EE004F01000102803D1022518
:1035B000FFF7E2FE06E004F02000202801D10125FB
:1035C00000E0DFE700BF3021072000F055F8FFF7EB
:1035D00081FE052205490A2000F05FF8FFF786FF0B
:1035E000284670BD2E0000204C090020330000202A
:1035F00010B5002000F014F80020FFF7FBFE044691
:10360000FF2C00D110BD44F0020424F00104214637
:10361000002000F031F8012000F002F800BFF1E7CF
:1036200010B5044622464FF480710248FEF78FFF22
:1036300010BD00000008014010B5044622464FF4BA
:1036400000410248FEF783FF10BD00000008014062
:1036500010B50446224620210148FEF778FF10BD30
:10366000000C014010B50446224608210148FEF72F
:103670006EFF10BD000C014070B504460D460020E1
:10368000FFF7DAFF44F02000FFF746FF2846FFF778
:1036900043FF0120FFF7D0FF70BD2DE9F041054643
:1036A0000E4617460020FFF7C7FF45F02000FFF742
:1036B00033FF002404E0305DFFF72EFF601CC4B22E
:1036C000BC42F8DB0120FFF7B7FFBDE8F08170B521
:1036D00005460E460020FFF7AFFFA020FFF71CFFB6
:1036E000002404E0285DFFF717FF601CC4B2B44259
:1036F000F8DB0120FFF7A0FF70BD000070B50021CE
:1037000000230F22C47804B3154C246804F4E06449
:10371000C4F5E064210AC1F10403CA40447804FA04
:1037200003F184781440214309010E4C0678A15519
:10373000047804F01F050124AC4005786D11AD003C
:1037400005F1E025C5F8004109E0047804F01F0503
:103750000124AC40044D0678761145F8264070BD32
:103760000CED00E000E400E080E100E002490143EC
:10377000024A1160704700000000FA050CED00E0FD
:1037800000200CE0002106E00022064B03EBC013F2
:103790005A544A1CD1B28029F6DB421CD0B2082808
:1037A000F0DB70474C0500202DE9F04304460D4640
:1037B00016461F46284638E0224631E0002A2DDB17
:1037C0007F2A2BDC002829DB3F2827DC4FEAE07C1E
:1037D00000EB5C7C4FEAEC0CDFF8588008EBCC1C6B
:1037E0001CF802C003464FEAE07800EB58784FEA35
:1037F000E808A0EBC8094FF0010808FA09F82CEA1C
:10380000080C01464FEAE07800EB58784FEAE808E8
:10381000DFF8209009EBC81808F802C0511C0AB262
:10382000A1199142CADC411C08B2E9198142C3DCEA
:10383000BDE8F0834C0500202DE9FF4F86B0069EC1
:10384000079CDDF82080DDF8249000200190009096
:103850004C450FD1464502DDB2464646D046354678
:1038600005E02146284600F0A3F8681C05B245454E
:10387000F7DD99E046450FD14C4502DDA2464C46A6
:10388000D146274605E03946304600F091F8781CCD
:1038900007B24F45F7DD87E0464505DDB2464646AF
:1038A000D046A2464C46D1464C4507DD604204B2A4
:1038B000C9F100000FFA80F901200190A9EB040082
:1038C000A8EB0601884207DDB24626465446C246AA
:1038D000C846D14601200090A8EB060000B2059032
:1038E000A9EB04000FFA80FB4FEA4B0000B20390F3
:1038F0000598ABEB0000400000B202900598C0EBC9
:103900004B0000B2049035462746019838B1009824
:1039100028B1684201B2384600F04AF812E0019836
:1039200028B1784201B2284600F042F80AE0009837
:1039300020B12946384600F03BF803E039462846D6
:1039400000F036F82EE0681C05B20498002805DA6D
:10395000DDE90310084400B2049006E0781C07B2C9
:1039600002990498084400B20490019838B1009874
:1039700028B1684201B2384600F01AF812E0019806
:1039800028B1784201B2284600F012F80AE0009807
:1039900020B12946384600F00BF803E039462846A6
:1039A00000F006F84545CEDB0AB0BDE8F08F000018
:1039B00070B50346002B20DB7F2B1EDC00291CDBAF
:1039C0003F291ADCCC1701EB5474E4100B4D05EBC6
:1039D000C414E45C0A46CD1701EB5575ED10A1EB5C
:1039E000C5060125B5402C430846CD1701EB55759A
:1039F000ED10024E06EBC515EC5470BD4C050020D1
:103A000038B5002406E0002500E06D1CB5F57A7F8E
:103A1000FBD3641CB4F57A7FF5D30121082000F0B4
:103A2000D7FB14208DF8030003208DF802004FF41B
:103A30008070ADF8000069460848FEF7A8FC4FF416
:103A40000070ADF8000069460448FEF7A0FC0120B4
:103A500000F09CFA012000F0A5FA38BD000C0140EE
:103A600070B50546002411E080212141294009B1AB
:103A7000012100E00021084600F094FA012000F046
:103A800085FA002000F082FA601CC4B2082CEBDB3F
:103A9000012000F07BFA002000F078FA70BD10B52C
:103AA000012000F07FFA012000F070FA002000F001
:103AB00079FA002000F06AFA10BD10B5002000F07D
:103AC00071FA012000F062FA012000F06BFA10BDDB
:103AD00010B5FFF795FFAE2000F070FAD52000F08A
:103AE0006DFA802000F06AFAA82000F067FA3F2003
:103AF00000F064FAD32000F061FA002000F05EFAD2
:103B0000402000F05BFAA12000F058FAC82000F035
:103B100055FADA2000F052FA122000F04FFA812014
:103B200000F04CFACF2000F049FAD92000F046FA14
:103B3000F12000F043FADB2000F040FA302000F0E2
:103B40003DFAA42000F03AFAA62000F037FA8D20C2
:103B500000F034FA142000F031FAAF2000F02EFA11
:103B6000FFF70EFE00F0FEF910BD0FB470B5C2B045
:103B700005460E4614464AA8019002A8019A4999A2
:103B8000FCF798FB00200190234602AA3146284604
:103B900000F006F942B070BC5DF814FB2DE9F0436B
:103BA00004460D4616461F46284638E0224631E0B8
:103BB000002A2DDB7F2A2BDC002829DB3F2827DC8D
:103BC0004FEAE07C00EB5C7C4FEAEC0CDFF85880BD
:103BD00008EBCC1C1CF802C003464FEAE07800EB6F
:103BE00058784FEAE808A0EBC8094FF0010808FA36
:103BF00009F88CEA080C01464FEAE07800EB5878A7
:103C00004FEAE808DFF8209009EBC81808F802C06E
:103C1000511C0AB2A1199142CADC411C08B2E9192F
:103C20008142C3DCBDE8F0834C05002070B5054639
:103C30000C4645F0B00000F0C1F9102141EA141023
:103C400000F0BCF904F00F0000F0B8F970BD0000FE
:103C5000F8B506460F4614461D46082D0CD1A4F1B2
:103C600020000E4901EB0010102308223946009075
:103C7000304600F017F80FE0062D0DD1A4F120001A
:103C800000EB4000064901EB4000082306223946BC
:103C90000090304600F006F8F8BD00004A710008B8
:103CA0003A7700082DE9FF4F80460E469146DDF831
:103CB00034B0002500244A4631464046039BFFF7B6
:103CC00073FD00BF5EE0002558E008EB050000280A
:103CD00052DB08EB05007F284EDC3046F11706EB7F
:103CE0005171C9100FB2F11706EB5171C910A6EB53
:103CF000C10A002E05DA781E07B20AF108000FFA91
:103D000080FA3819002817DB3819072814DC38190D
:103D1000224901EBC01008EB0501405C04FB09518E
:103D20001BF8011001FA0AF1084339191B4A02EB8A
:103D3000C11108EB050288543819401C00281BDB10
:103D40003819401C072817DC3819401C134901EBAF
:103D5000C01008EB0501405C04FB09511BF8011081
:103D6000CAF10802114108433919491C0B4A02EBF8
:103D7000C11108EB05028854681CC5B24D45A4DB8F
:103D8000601CC4B20399481EC11700EB5171012297
:103D900002EBE101A14296DCBDE8FF8F4C0500205B
:103DA0002DE9FE4F07468A46144698460025AB4645
:103DB0000026CBE0605D00F0800058B94FF0010BA9
:103DC0002846691C8DB2205C8DF8040000208DF817
:103DD00005006BE0605D00F0E000C02814D14FF0FA
:103DE000020B2846691C8DB2205C8DF80400605DD2
:103DF00000B9AFE02846691C8DB2205C8DF8050043
:103E000000208DF8060051E0605D00F0F000E02831
:103E10001DD14FF0030B2846691C8DB2205C8DF834
:103E20000400605D00B995E02846691C8DB2205CF5
:103E30008DF80500605D00B98CE02846691C8DB2E4
:103E4000205C8DF8060000208DF807002EE0605DF4
:103E500000F0F800F02826D14FF0040B2846691C2A
:103E60008DB2205C8DF80400605D00B972E02846D8
:103E7000691C8DB2205C8DF80500605D00B969E0B9
:103E80002846691C8DB2205C8DF80600605D00B983
:103E900060E02846691C8DB2205C8DF80700002088
:103EA0008DF8080002E0681C85B24FE0BBF1010FFD
:103EB0000BD19DF80420B91908B243465146FFF7CB
:103EC000C7FE06EB080086B23FE04FF000090EE0A7
:103ED00009EB890101EB4911204A881801A9FCF777
:103EE0002FFA00B90EE009F101001FFA80F909EB81
:103EF000890101EB4911194A881819A1FCF720FA28
:103F00000028E5D100BFB8F1080F12D109EB8900F4
:103F100000EB491011490844401DB919009008B23E
:103F200010231A465146FFF7BDFE06F1100086B277
:103F30000BE0B8F1060F08D1B91908B206233F22E9
:103F40005146FFF785FEB01D86B200BF605D0028B8
:103F50007FF430AF00BFBDE8FE8F00007479000829
:103F60000000000010B500240BE000212046FFF700
:103F70005DFE054901EBC410802100F02FF8601CA4
:103F8000C4B2082CF1DB10BD4C05002010B504466E
:103F900022464FF480710248FEF7D9FA10BD0000A6
:103FA000000C014010B5044622464FF4007102484F
:103FB000FEF7CDFA10BD0000000C014010B504461C
:103FC000FFF76DFD7820FFF74BFD0020FFF748FD60
:103FD0002046FFF745FDFFF770FD10BD70B50546A3
:103FE0000E46FFF75CFD7820FFF73AFD4020FFF713
:103FF00037FD002404E0285DFFF732FD601CC4B2E9
:10400000B442F8DBFFF759FD70BD0021016041604B
:104010008160C160C161016241628162C1627047B9
:1040200070B50446E0692062D4E9000102F09CFF0B
:10403000E061E169206902F099FE60620021606937
:1040400002F0F8FD09D0E169606902F08FFE0546D3
:10405000A16A02F081FDA06201E00020A062216B54
:10406000A06A02F04FFF01D2206BA062616BA06AD0
:1040700002F048FE01D2606BA062D4E9010102F0B7
:1040800073FF0646A06980F000453146284602F0DD
:104090006DFEE062D4E9090102F05EFD0546E16AC9
:1040A00002F05AFDE0600021E06802F02BFF04D22C
:1040B000A16BE06802F050FDE0600021E06802F0D2
:1040C00021FE04D2A16BE06802F04EFFE060216B9C
:1040D000E06802F017FF01D2206BE060616BE068DE
:1040E00002F010FE01D2606BE0606068A06070BDFD
:1040F00000B589B00121084600F05AF801210420DA
:1041000000F066F818208DF823000320ADF8200099
:104110008DF8220008A91C48FEF739F94FF08040BD
:1041200000F0B6FF0020ADF81A00ADF816006320CD
:10413000ADF818002320ADF8140000208DF81C0005
:1041400005A94FF0804001F083F801A801F044F880
:104150006020ADF804000020ADF80C000120ADF89F
:1041600006000020ADF80A0001A94FF0804000F0E1
:1041700095FF01A94FF0804000F0DCFF0121880786
:1041800000F0DCFE09B000BD0008014010B5044697
:1041900021464FF0804001F029F810BD10B50446CB
:1041A00021464FF0804001F023F810BD7047000019
:1041B00029B1064AD2690243044BDA6104E0034A9A
:1041C000D2698243014BDA6170470000001002405F
:1041D00029B1064A92690243044B9A6104E0034AFA
:1041E00092698243014B9A617047000000100240BF
:1041F00030B500210022002400232D4D6D6805F00C
:104200000C0121B1042905D0082923D105E0294D4D
:10421000056022E0274D05601FE0254D6D6805F41F
:104220007012234D6D6805F48034022505EB92422F
:104230001CB9214D554305600BE01D4D6D6805F41B
:1042400000351DB11C4D5543056002E0194D554325
:10425000056002E0174D056000BF00BF144D6D689A
:1042600005F0F0010909154D6B5C0568DD404560FE
:104270000F4D6D6805F4E061090A104D6B5C4568EF
:10428000DD4085600A4D6D6805F46051C90A0B4D2B
:104290006B5C4568DD40C560054D6D6805F44041C7
:1042A000890B074D6B5CC568B5FBF3F5056130BD47
:1042B0000010024000127A0000093D0000000020BA
:1042C000100000207047000010B508480088084919
:1042D000488008480088888007480088C8800648C9
:1042E0004088088100F086FA10BD00008C00002094
:1042F0004C010020520000205C0000202DE9F04F0E
:10430000AFB050211BA8FBF7F4FF502107A8FBF723
:10431000F0FF0024FFF734FA6DA3082200210846BD
:10432000FFF723FC6FA3082210210020FFF71DFCDC
:1043300071A3082220210020FFF717FC74A3082294
:1043400030210020FFF711FC9DE008210320FEF73B
:10435000C3FB10B1FEF7D2FB96E020210320FEF74D
:10436000BBFB20B1FEF7CAFB2FB0BDE8F08F6E4853
:104370006E496F4B6F4ACDE900106F496F48FEF7E9
:10438000B7FD6C48B0F9000002F02AF907468846EC
:104390006A48B0F9000002F023F93A464346CDE9F5
:1043A000000101F097FA81F00041654A654BCDE9C3
:1043B000020101F0BDFF05460022634B02F076F9D1
:1043C000CDE9040101F0C6FE604908605748B0F924
:1043D000000002F07FFC1BA941F824005B48006844
:1043E00007A941F82400601CC4B2142094FBF0F12A
:1043F00000FB1140C4B24FF0000B002006900025D6
:104400000FE01BA850F82510584602F0A5FB834684
:1044100007A850F82510069802F09EFB0690681C2D
:10442000C5B2142DEDDB584602F06AFB07460022A8
:10443000474B01F07DFF054601F08CFE8146069852
:1044400002F05EFB07460022414B01F071FF05467A
:1044500001F080FE8246484602F052FB3DA308224E
:10446000CDE9000100210846FFF77FFB504602F02E
:1044700047FB3BA30822CDE9000110210020FFF7F4
:1044800074FBFFF76FFD60E700BF39A3082220210E
:104490000020FFF76AFB3CA3082230210020FFF731
:1044A00064FBFFF75FFD4FF4FA60FDF708FE89F04B
:1044B0000045284602F0F2FB00B2384908808AF035
:1044C000004037490860FFF7FFFE00BF4CE70000DF
:1044D00047593A2B30303030302E303020202020D9
:1044E00000000000416E676C653A2B3030302E3092
:1044F000302020200000000020E4BF9DE68C81E7F2
:10450000AB96E79BB4E4B894E99D99E6ADA2200090
:104510002020E58D95E587BB4B34E994AEE7A1AE4D
:10452000E8AEA420200000004C0000204A0000203B
:1045300048000020460000204400002042000020E7
:1045400044174154FB210940008066405800002078
:104550000000344047593A252B30392E326600008E
:10456000416E676C653A252B30372E3266000000AD
:1045700020202020E6A0A1E58786E5AE8CE6889085
:1045800020202020000000002020202020202020AB
:1045900020202020202020200000000052000020A9
:1045A0005C000020014800787047000038000020BF
:1045B00005480078012804D1002003490870012033
:1045C00070470020FCE700003900002000B587B0EC
:1045D00001218803FFF7FCFD01210420FFF7F8FD0E
:1045E00018208DF81B004FF40070ADF81800032060
:1045F0008DF81A0006A92148FDF7C9FE48208DF85C
:104600001B004FF48060ADF8180003208DF81A00ED
:1046100006A91A48FDF7BBFE4FF416500290002081
:10462000ADF814000C20ADF812000020ADF8100019
:10463000ADF80E00ADF80C0002A9114800F044FFDF
:10464000012240F225510E4800F018FF4FF4A060FF
:10465000FFF78CF825208DF8040001208DF8070065
:104660008DF805008DF8060001A8FFF747F8012135
:10467000034800F0C0FE07B000BD00000008014084
:104680000038014010B504462146054800F08DFF72
:1046900000BF8021024800F0BAFE0028F9D010BD0A
:1046A0000038014010B500F001F810BD0CB5002035
:1046B000019000903348006840F480303149086030
:1046C00000BF3048006800F4003000900198401CA2
:1046D0000190009818B90198B0F5A06FF1D1294860
:1046E000006800F4003010B10120009001E00020CB
:1046F00000900098012843D12348006840F0100042
:10470000214908600846006820F003000860084658
:10471000006840F0020008601A4840681949486083
:104720000846406848600846406840F48060486039
:104730000846406820F47C1048600846406840F411
:10474000E81048600846006840F08070086000BFCC
:104750000C48006800F000700028F9D00948406853
:1047600020F00300074948600846406840F0020016
:10477000486000BF0348406800F00C000828F9D1E9
:104780000CBD0000001002400020024070B5002562
:104790001648FEF7E9FC4BF2B551884215D0134894
:1047A000FEF7CCFC4BF2B5511048FEF7D1FC0124CA
:1047B00007E00E4901EB44000021FEF7C9FC601C34
:1047C00084B2B4F5007FF4DB0125002409E0074939
:1047D00001EB4400FEF7C8FC054921F81400601CF9
:1047E00084B2B4F5007FF2DB284670BD00FC0008FF
:1047F0004C01002010B50948FEF7A0FC002409E098
:10480000074A32F81410054A02EB4400FEF7A0FCF8
:10481000601C84B2B4F5007FF2DB10BD00FC000820
:104820004C0100207047000010B51348006840F0AC
:1048300001001149086008464068104908400E49C7
:104840004860084600680E4908400B490860084661
:10485000006820F4802008600846406820F4FE00CC
:1048600048604FF41F008860FFF71CFF4FF00060A6
:104870000449086010BD0000001002400000FFF86D
:10488000FFFFF6FE08ED00E0F0B50C4615460022ED
:104890000021068C4FF6FE773E400684028B018C89
:1048A0004FF60C7632407E1C06EA03162E43324346
:1048B000104EB0420ED0104EB0420BD0B0F1804F2F
:1048C00008D00E4EB04205D00D4EB04202D00D4E73
:1048D000B04206D14FF6FD76314044F00106314337
:1048E00005E04FF6F576314044F00106314302838E
:1048F0000184F0BD002C0140003401400004004060
:1049000000080040000C0040F0B50C46154600229F
:1049100000210026078C4FF6EF7C07EA0C0707847E
:10492000028B018C4FF6FF7707EA041640F6FF472B
:104930003A404FF6FF7707EA03373A434FF6FF77DF
:1049400007EA05273A43114FB8420ED0104FB8423C
:104950000BD0B0F1804F08D00E4FB84205D00E4FAB
:10496000B84202D00D4FB84206D14FF6DF7739403A
:1049700046F01007394305E04FF65F77394044F0C1
:104980001007394302830184F0BD0000002C014070
:10499000003401400004004000080040000C0040CA
:1049A000F0B50C461546002200210026078C4FF674
:1049B000FF6C07EA0C070784828B018C4FF6FF77A8
:1049C00007EA04264FF60C773A404FF6FF7707EADE
:1049D00003172F433A43114FB8420ED0104FB8423D
:1049E0000BD0B0F1804F08D00E4FB84205D00E4F1B
:1049F000B84202D00D4FB84206D14FF6FF573940AA
:104A000046F48077394305E04FF2FF57394044F4CC
:104A10008077394382830184F0BD0000002C01407F
:104A2000003401400004004000080040000C004039
:104A3000F0B50C461546002200210026078C4EF6E4
:104A4000FF7C07EA0C070784828B018C4FF6FF7707
:104A500007EA043640F6FF473A404FF6FF7707EA89
:104A600005273A434FF6FF7707EA03373A43114FDA
:104A7000B8420ED0104FB8420BD0B0F1804F08D0E2
:104A80000E4FB84205D00E4FB84202D00D4FB8427B
:104A900006D14DF6FF77394046F48057394305E09B
:104AA00047F6FF57394044F48057394382830184E5
:104AB000F0BD0000002C0140003401400004004023
:104AC00000080040000C00402DE9FF5F0121E6488E
:104AD00000F064FA01287DD10121E34800F02BFAAF
:104AE000FEF766F8E148007808B1BDE8FF9FE048AE
:104AF0000088401CDE490880084600880A286ADBD6
:104B000000200880DB48DC49DC4BDD4ACDE90010A1
:104B1000DC49DD48FEF7ECF9D7480088DB49098815
:104B2000084400B2DA490880D548B0F9000001F025
:104B300057FD82468B46D448B0F9000001F050FD85
:104B4000074652465B4600F0C5FE81F0004105462F
:104B5000D04AD14B01F0ECFB0022D04BCDE9000153
:104B600001F0A4FDCDE9020101F0F4FACC4908609E
:104B7000C748B0F9000001F033FD0022C94BCDE970
:104B8000020101F0D5FB07460022C74B01F08EFD64
:104B90000546C64AC64B01F089FD824601F0DAFAA5
:104BA000C4490860C4480168BD48006801F0D4FFEA
:104BB000C2490860C24C21464FF07E5002F0D4F941
:104BC0000746BE480168384602F0D0F80546BD48A1
:104BD000016801E03DE162E0204602F0C7F80646C8
:104BE000294601F0B9FFB7490860B2480168B648E4
:104BF000006801F0B1FFB4490860B448006801F0F2
:104C00007FFF21F0004182460022B14B01F090FB72
:104C10000546A64AAF4B01F049FD0746A34AAE4BF5
:104C200001F0CAFACDE9020101F094FA8146484642
:104C300001F066FF05469D4AA64B01F035FE01D204
:104C4000DFF8989249464FF07E5002F08DF9074602
:104C50009D480168384602F089F805469948016880
:104C6000484602F083F80646294601F075FF96494A
:104C700008609B499448006802F044F905D39949BB
:104C80009148006802F03EF808D29748007828B1B1
:104C900000209549087001209449087000BF94488D
:104CA0000088401C9249088008460088322847DB6B
:104CB000002008800120FDF725FA824601F090FCD3
:104CC000804600228B4B01F033FB06468A4A8B4B11
:104CD00001F02EFB044601F03DFA894908600220EC
:104CE000FDF710FA824601F07BFC80460022814BE2
:104CF00001F01EFB0646804A804B01F019FB04467A
:104D000001F028FA7F490860084601687C4800687D
:104D100001F022FF804601F0F3FE064600224FF02C
:104D2000804301F005FB044601F014FA764908605F
:104D3000744801687248006802F016F96349086017
:104D40006948007800287DD070480088401C6F4971
:104D50000880084600880A2858DB002008805A4846
:104D600000686B4948600846FFF75AF96848C06810
:104D700080F000406749086067480168654800683E
:104D800001F0EAFE044601F089FF00B263490880A1
:104D9000614801685F48006802F0E6F8044601F0E7
:104DA0007DFF00B25E4908805C48B0F900006428CD
:104DB00003DD64205949088009E05848B0F9000033
:104DC00010F1640F03DA6FF063005449088054480F
:104DD000B0F90000642803DD64205149088009E02F
:104DE0004F48B0F9000010F1640F03DA6FF0630070
:104DF0004B4908804948B0F900100120FEF75AF9E4
:104E00004748B0F900100220FEF754F945480088E1
:104E1000401C4449088008460088322822DB0020D4
:104E2000088039480068404948600846FFF7F8F8AC
:104E30003D48C06836490860244800683B494860DE
:104E4000084600E006E0FFF7EBF83848C068324952
:104E5000086007E000210120FEF72CF90021022064
:104E6000FEF728F900BF40E6002C01408E0000202C
:104E7000440100204C0000204A000020480000208F
:104E80004600002044000020420000205200002084
:104E90005400002044174154FB2109400080664023
:104EA000580000200000E04000409F407B14AE47C7
:104EB000E17A843F680000205C0000206000002050
:104EC000CDCC4C3F640000206C0000207C00002012
:104ED00000001440E17A943FE17A743F0AD7A33C82
:104EE00000004842000048C240000020410000206D
:104EF00046010020008079409A9999999999A93F93
:104F0000700000207400002078000020480100207C
:104F100090000020800000208400002088000020F5
:104F20008A0000204A010020CC0000200801002057
:104F3000CA4302827047CA430282704721B1028885
:104F400042F00102028004E002884FF6FE731A402C
:104F500002807047F0B50C4615461E46002100221F
:104F600000230189028B038C4FF6F87739402143E7
:104F70004FF6FC473A4040F201173A434FF6DD77CF
:104F80003B404FF6FF7707EA06172F433B4301816B
:104F900002830384F0BD0146888C704730B5024619
:104FA000002000230024158A05EA0103958905EAFB
:104FB000010413B10CB1012000E0002030BD00005D
:104FC00070B505460C46244885420ED023488542DC
:104FD0000BD0B5F1804F08D02148854205D021483B
:104FE000854202D02048854200D100E000BF2088E1
:104FF00050B92389A28861882846FFF745FCE188DB
:10500000284600F0F9F825E0208804280AD12389F1
:10501000A28861882846FFF777FCE188284600F0DF
:10502000F4F817E0208808280AD12389A28861882B
:105030002846FFF7B5FCE188284600F0F3F809E0C0
:105040002389A28861882846FFF7F2FCE188284678
:1050500000F0F1F870BD0000002C01400034014068
:105060000004004000080040000C004000210180C6
:105070004180012181800021C180018170471AB1E6
:1050800083890B43838102E083898B43838170474B
:1050900001894FF6F87211400181704770B5002404
:1050A00000220023058C4FF6FE7635400584028CE5
:1050B0008388048B4FF68F752C40B51E2C400D88CD
:1050C0002C43751E2A400D892A434D882A43144DCE
:1050D000A8420BD0134DA84208D0134DA84205D0CA
:1050E000124DA84202D0124DA84213D14FF6F775C7
:1050F0002A404D892A434FF6FB752A408D882A4362
:105100004FF6FF652B404FF6FF552B408D892B4303
:10511000CD892B4383800483CD888586028470BD2E
:10512000002C014000340140004001400044014097
:105130000048014070B5002400220023058C4FF682
:10514000EF7635400584028C8388048B48F6FF7522
:105150002C404FF6FF452C400D884FF6FF7606EAAF
:1051600005252C434FF6DF752A400D8906EA051503
:105170002A434D8806EA05152A43154DA84202D058
:10518000144DA8421DD14FF67F752A404D894FF628
:10519000FF7606EA05152A434FF6BF752A408D882B
:1051A00006EA05152A434FF6FF352B404FF2FF75EF
:1051B0002B408D8906EA85052B43CD8906EA8505B6
:1051C0002B4383800483CD880587028470BD000053
:1051D000002C014000340140002101804180818089
:1051E000C180018141818181C18170478186704781
:1051F0000187704781847047028B4FF6F3731A4022
:105200000283028B0A4302837047028B4FF2FF3303
:105210001A400283028B4FF6FF7303EA01231A43FD
:1052200002837047828B4FF6F3731A408283828B1E
:105230000A4382837047828B4FF2FF331A40828386
:10524000828B4FF6FF7303EA01231A438283704770
:10525000002202881D4B98420ED01D4B98420BD065
:10526000B0F1804F08D01B4B984205D01A4B9842A2
:1052700002D01A4B984204D14FF68F731A404B88D4
:105280001A43174B984207D0164B984204D04FF65A
:10529000FF431A40CB881A4302808B8883850B8892
:1052A00003850A4B98420BD0094B984208D00E4B0D
:1052B000984205D00D4B984202D00D4B984201D137
:1052C0000B7A03860123838270470000002C014083
:1052D000003401400004004000080040000C004081
:1052E0000010004000140040004001400044014014
:1052F000004801401FB50121C802FEF769FF1B48A5
:10530000FFF7C6FE0020ADF80A00ADF8060040F237
:10531000E730ADF808004720ADF8040000208DF814
:105320000C0001A91148FFF793FF01210F48FFF777
:10533000FFFD012211460D48FFF7A1FE4FF4A060CA
:10534000FEF714FA19208DF8000001208DF80300F3
:1053500002208DF8010001208DF802006846FEF75A
:10536000CDF901210148FFF7E9FD1FBD002C0140E7
:1053700010B540F22551094800F056F801280CD12B
:10538000064800F00DF9064908700120054908702B
:1053900040F22551014800F01FF810BD00380140CF
:1053A000380000203900002010B540F2255109488E
:1053B00000F03AF801280CD1064800F0F1F8C4B228
:1053C0002046FCF7B7FC40F22551024800F004F8F3
:1053D00000BF10BD0044004010B50022002340F67D
:1053E0006A14A14200D100BF0A1201249440A3B262
:1053F000DC43048010BD21B1828942F400528281D5
:1054000004E082894DF6FF731A408281704702469C
:105410000020B1F5007F00D100BF13880B400BB115
:10542000012000E00020704770B5024600240023F0
:105430000025002040F66A16B14200D100BFC1F33A
:10544000421501F01F03012606FA03F3012D02D1D4
:105450009689334006E0022D02D1168A334001E0DE
:10546000968A33400C12012606FA04F4168834405A
:1054700013B10CB1012000E0002070BDF0B503466F
:10548000002400260025002040F66A17B94200D10A
:1054900000BF1846C1F3421401F01F06012707FAA6
:1054A00006F5012C01D10C3004E0022C01D11030A2
:1054B00000E014301AB107682F43076002E0076864
:1054C000AF430760F0BD00002DE9F04786B0054608
:1054D0000E460024A24600BFA1460027B08900B1B5
:1054E00000BF2F462C8A4CF6FF700440F08804431E
:1054F0002C82AC894EF6F3100440B0883189084301
:10550000718908430443AC81AC8A4FF6FF400440E4
:10551000B0890443AC8201A8FEF76AFE1F488742A7
:1055200002D1DDF810A001E0DDF80CA0A88900F49C
:10553000004040B10AEBCA0000EB0A103168490094
:10554000B0FBF1F807E00AEBCA0000EB0A10316883
:105550008900B0FBF1F86420B8FBF0F004012009E9
:10556000642101FB1089A88900F4004040B1322079
:1055700000EBC900B0FBF1F000F00700044308E0C5
:10558000322000EB09106421B0FBF1F000F00F00B5
:1055900004432C8106B0BDE8F087000000380140CC
:1055A00001468888C0F308007047C1F30802828072
:1055B000704700BFFEE7490050EAC12018BF042031
:1055C0004A0D18BF40F0010040F2FF72B2EB515F8C
:1055D00008BF40F00200012808BF052070472DE9F0
:1055E000F0414F1E00EBC7010446D1E9000115460A
:1055F0001E4637F006020DD02A46334601F056F813
:105600007F1E04EBC703D3E9002300F0D5FD37F07C
:105610000602F1D1022F25D0042F13D0062F18BF78
:10562000BDE8F0812A46334601F040F8D4E90A2368
:1056300000F0C2FD2A46334601F038F8D4E90823C9
:1056400000F0BAFD2A46334601F030F8D4E90623CB
:1056500000F0B2FD2A46334601F028F8D4E90423CD
:1056600000F0AAFD2A46334601F020F8D4E90223CF
:1056700000F0A2FD2A46334601F018F8D4E90023D1
:10568000BDE8F04100F098BD012201F018BD00F026
:1056900093BD0000024A0020110701F010BD000078
:1056A00001FDFFFF30380A2801D201207047002099
:1056B000704700002DE9F84F04460D4621F00040E8
:1056C00000917349814211DC7249884201DC06D1A4
:1056D0002CB120462946BDE8F84FFFF7D5BF6E48EC
:1056E000002DCCBF6D496E49BDE8F88F6D498142F0
:1056F00011DD6D498142D8BF4FF0FF366DDD204688
:105700002946FFF758FF042808BFFFF7C3FF2046CC
:105710002946BDE8F88F6549654F25F0004581426F
:1057200033DD6449814219DD002632464FF0804363
:105730002046294600F040FD80468A460122204648
:10574000294601F0BCFC00223B4601F0EFF842463E
:10575000534600F0EDFD04460D463EE001260022D2
:10576000BA463B462046294600F026FD80460F46B5
:10577000002253462046294601F0D8F842463B46CF
:1057800000F0D6FD04460D4627E04B4981421BDD63
:10579000DFF828A10226002253462046294600F0C1
:1057A00085FF00223B4600F007FD80460F460022A1
:1057B00053462046294601F0B9F842463B4600F0E0
:1057C000B7FD04460D4608E0032622462B4600207E
:1057D0003B4900F0ADFD04460D4622462B461046DF
:1057E000194600F063FF8B46824602460B4600F0E6
:1057F0005DFF07460246334888460B46062178443B
:10580000FFF7EDFE52465B4600F050FF82462E4801
:105810008B463A46434605217844FFF7E0FE3A4678
:10582000434600F043FF02460B46002E50465946C1
:105830000CDA00F0C1FC22462B4600F037FF01B025
:1058400022462B46BDE8F04F01F064B800F0B4FCEE
:1058500022462B4600F02AFF1C4A7A4402EBC6037C
:10586000D3E9002301F062F822462B4601F05EF8EE
:10587000174A7A4402EBC603D3E9002301F04AF841
:10588000009A002AB8BF81F00041BDE8F88F0000FF
:10589000000010440000F07F182D4454FB21F93F14
:1058A000FB21F9BF0000DC3F0000203E0000F33F79
:1058B0000000F03F0000E63F008003400000F83F9A
:1058C0000000F0BFEE2A0000AC2A00004A2A0000C7
:1058D000122A00002DE9F04D9446CCF1000423F08B
:1058E00000464CEA0404524F46EAD4749A4688466D
:1058F00021F00042BC4206D8454240EA050442EA93
:10590000D474BC4204D9BDE8F04D6246FFF7BFBE77
:10591000AAF14055A5F17F6555EA0C040BD002248D
:1059200004EAAA74434DDFF810E144EAD87452EA5D
:10593000000B04D00CE0BDE8F04DFFF7BBBE002C1F
:1059400014BF012CBDE8F08D022C30D0032C32D0D6
:1059500056EA0C0B0AD0BE4220D1BA4209D126F039
:10596000804622F080423346114617E000291ADBB8
:1059700025E0DFF8C8B0FB44002C04BFDBE90001E0
:10598000BDE8F08D012C02BFDBE9000181F0004190
:10599000BDE8F08D022C0AD0032C0CD0BA4212D1F3
:1059A000B8F1000F0BDA23482549BDE8F08D2846F1
:1059B0002449BDE8F08D28467146BDE8F08D1D48AC
:1059C0002149BDE8F08D921B12153C2AC4BF19482D
:1059D0001D490EDCBAF1000FBEBF12F13C0F0020D2
:1059E000014606DB624600F0A3FC21F00041FFF710
:1059F00061FE002C08BFBDE8F08D012C04BF81F0D2
:105A00000041BDE8F08D114A114B022C07D000F087
:105A10008DFF2A46BDE8F04D0A4B00F087BF00F02D
:105A200085FF2A46BDE8F04D064B00F073BF00002D
:105A30000000F07F182D4454FB2109C0A629000066
:105A4000FB21F9BFFB210940FB21F93F075C14331F
:105A500026A6A13C86B0FEF73BF8FDF701FAFDF75C
:105A600085F8FDF70FFBFCF76DFBFDF787FAFCF7F8
:105A700067F9FEF7ABFDFDF77FFCFFF73BFCFDF799
:105A80007FFE0823F6A200210846FEF789F90823C5
:105A9000F8A210210420FEF783F90823FBA220219D
:105AA0000020FEF77DF90823FEA230210020FEF73A
:105AB00077F9FEF757FA00BF08210320FDF70CF82D
:105AC0000028F9D0FDF71AF8FEF760FE002826D06E
:105AD000FEF7FAFBFDF754FE0823F7A20021084663
