:020000040800F2
:10000000680B00203502000875230008411F000816
:10001000712300084D1D0008753200080000000023
:100020000000000000000000000000005D2F00083C
:10003000C71D000800000000212F000849300008FB
:100040004F0200084F0200084F0200084F0200084C
:100050004F0200084F0200084F0200084F0200083C
:100060004F0200084F0200084F0200084F0200082C
:100070004F0200084F0200084F0200084F0200081C
:100080004F0200084F0200084F0200084F0200080C
:100090004F0200084F0200084F0200084F020008FC
:1000A0004F020008AD3000084F0200084F02000860
:1000B0004F0200084F0200084F0200084F020008DC
:1000C0004F0200084F0200084F0200084F020008CC
:1000D0004F0200084F0200084F0200084F020008BC
:1000E0004F0200084F0200084F02000800F002F81B
:1000F00000F090F80AA090E8000C82448344AAF132
:100100000107DA4501D100F085F8AFF2090EBAE82F
:100110000F0013F0010F18BFFB1A43F0010318473B
:100120000C4200002C420000103A24BF78C878C16D
:10013000FAD8520724BF30C830C144BF04680C60ED
:10014000704700000023002400250026103A28BF35
:1001500078C1FBD8520728BF30C148BF0B60704739
:100160006E2900F07B81702900F0BD82662903F0C2
:100170001783652903F01483672903F0118361292C
:1001800003F0108303681B0A28BF41F0800169292E
:1001900000F02881642900F02581752900F0228172
:1001A0006F2900F04A82782900F08982E92900F05D
:1001B000E581E42900F0E281F52900F0DF81EF29F3
:1001C00000F04782F82900F088820368DB0928BF25
:1001D00041F08001632900F08B87732900F090873C
:1001E000E32900F09B87F32900F0A08700207047E7
:1001F0001FB500F0F1FF04000020002103F0BAFA5F
:10020000401C60600020002103F09EFAE0601FBDEA
:1002100010B510BD00F0B2FF1146FFF7E9FF03F083
:1002200047F801F08FF803B4FFF7F2FF03BC01F0C9
:1002300093F800000948804709480047FEE7FEE7B9
:10024000FEE7FEE7FEE7FEE7FEE7FEE7FEE7FEE786
:1002500004480549054A064B704700004D30000828
:10026000ED00000868050020680B002068070020EA
:10027000680700201CB50C46064B7B44694600907D
:10028000204600F004F904460020694600F012F907
:1002900020461CBD370200004FF0013C50F8042BF3
:1002A00051F8043B9A4221D1A2EB0C03934313EA89
:1002B000CC1317D150F8042B51F8043B9A4215D1B6
:1002C000A2EB0C03934313EACC130BD150F8042B8D
:1002D00051F8043B9A4209D1A2EB0C03934313EA71
:1002E000CC13DBD04FF00000704700BFD01A01BA2A
:1002F000B1FA81F101F0180122FA01F0CB40C1F10D
:100300002001DBB2C0B2C01A2CFA01F3D11A91431A
:1003100011EAC311E6D1704770477047704770B556
:10032000044685690068C10601D5302600E0202614
:10033000C00707D070BDD4E9012130469047206A3C
:10034000401C20626D1EF6D570BD70B504468569EF
:100350000078C00707D170BDD4E901212020904763
:10036000206A401C20626D1EF6D570BD09684A05E2
:1003700001D540B27047C905FCD500B27047096885
:100380004A0501D5C0B27047C905FCD580B2704797
:1003900070B50C460546012A05D02878800600D5A0
:1003A000EA69002302E0012305E05B1C934202D2CC
:1003B000E05C0028F9D1A869E618C01AA861286A8B
:1003C000184428622846FFF7AAFF04E0D5E9012176
:1003D00014F8010B9047B442F8D32846FFF7B5FF55
:1003E00070BD00002DE9F041064600241068752913
:1003F000314616A510D0FFF7B9FF002802DA4042B7
:1004000013A507E031688A0701D512A502E0490764
:1004100004D511A5012401E0FFF7B1FF00210A2254
:1004200006F1240709E0B0FBF2FCB0FBF2F302FB9B
:100430001C00303078541846491C0028F3D123465C
:100440002A463046BDE8F04100F061BA00000000E5
:100450002D0000002B000000200000001168026841
:10046000006A530501D508700AE0D30501D508805C
:1004700006E0130603D5C217C1E9000200E00860D8
:100480000120704701694A1C02610878704700B575
:100490008FB0CDE901310021059105497944CDE9BD
:1004A00003101146684600F029F90FB000BD0000A6
:1004B000E5FFFFFF0A6802F8010B0A6070470000C1
:1004C0002DE9FF5F15468A460446DFF8AC80F84404
:1004D0000027D8E900103E46CDE9001010E03AF8B8
:1004E00016106A4602A800F025FE411C07D02178AC
:1004F000890603D5E269391891420DD80744761C64
:100500002078800602D5E069B84205DDAE42E6DB20
:100510003AF816000028E2D1A069C01BA06120466D
:10052000FFF7FDFED8E90010CDE90010002017E02C
:100530003AF818106A4602A800F0FCFDB0F1FF3F3F
:1005400081460BD000250DF1080B05E0D4E901210F
:100550001BF8050090476D1C4D45F7D308F10100CD
:10056000B0428046E4DB206A384420622046FFF730
:10057000ECFEBDE8FF9F00005E3D00002DE9F0416C
:100580008046D21D22F007020025D2E90002F5299B
:1005900015A614D0011E72F1000106DA0023D0EB7B
:1005A000030063EB020211A608E0D8F800108B07E5
:1005B00001D50FA602E0490701D50EA60125114677
:1005C000002408F1240704E000F05CF930323A55C9
:1005D000641C50EA0102F7D12B46324621464046C0
:1005E000BDE8F04100F093B9000000002D000000CC
:1005F0002B0000002000000030B4002100F1240492
:1006000008E002F00705D208303542EA4372DB0801
:100610006554491C52EA0305F3D10468002310A273
:10062000250707D5A40600D421B1C46901230DA272
:10063000641EC46130BC00F06AB910B5044621469E
:100640001068FFF79CFE02462046BDE810400023DC
:10065000D2E7D21D22F00701D1E90023CCE7000048
:100660000000000030000000F0B40D4601880905CC
:1006700002D5214C7C4402E01F4C7C440E34002106
:1006800000F1240608E002F00F071209E75D42EAD4
:1006900003721B097754491C52EA0307F3D102780D
:1006A0000023120704D5702D06D009B1022311349E
:1006B0002246F0BC00F02BB901231034F8E770B5E6
:1006C00004460D4621461068FFF759FE02462946AA
:1006D0002046BDE870400023C6E7D21D22F0070384
:1006E000D3E90023C0E70368126843F020030360E6
:1006F0000823C3610023B7E7C03B00002DE9F05F8A
:10070000894604464FF0000ADFF874B1FB44C0F894
:1007100020A02046E1688847002874D0252806D00C
:10072000D4E901219047206A401C2062F1E70026AD
:100730005F462046E16888472028054607DB312DC3
:1007400005D2781910F8200C08B10643F1E7B0077C
:1007500001D526F00406C4F81CA00027C4F818A090
:100760002A2D09D0284602F09BFD38B304EB8708F8
:10077000303DC8F8185019E059F8041B204604EB26
:1007800087029161E1688847012F054618D1E06929
:10079000002820DA26F020061DE0D8F8180000EB2B
:1007A000800005EB40003038C8F818002046E168AA
:1007B0008847054602F074FD0028EED1012F0AD0CB
:1007C0002E2D08D12046E16888477F1C0546022F60
:1007D00046F02006C4DBA069002803DA404246F058
:1007E0000106A061F00701D026F010066C2D0BD099
:1007F000682D09D04C2D39D06A2D35D0742D35D0C7
:100800007A2D33D016E038E0E1682F46204688473D
:10081000B842054609D16C2F26D04FF48060E168BC
:10082000064320468847054604E06C2F1AD04FF453
:10083000807006430DB3A5F14100192802D8203578
:1008400046F400664A462946204626604E46FFF793
:1008500087FC80B101280BD0F61D26F0070000F1BF
:10086000080956E74020E4E78020D8E70020D6E7D3
:1008700006F104094DE7284652E7206ABDE8F09FDB
:10088000503B000030B5B0F10A024FEA900E71F112
:1008900000034EEA817EB0EB0E0061EB91014FEA5E
:1008A000101E4EEA017E10EB0E0041EB11114FEAD3
:1008B000102E4EEA016E10EB0E0041EB11214FEAB3
:1008C000104E4EEA014E10EB0E0041EB1141401864
:1008D00041F100014FEAD00040EA41704FEAD101F6
:1008E00010EB80054FEA810444EA907444EB010464
:1008F0006D1944EB0404521BA3414FF0000348BFA1
:100900000A3200D530BD401C41F1000130BD2DE957
:10091000F0470D4699469246044600F124080168C6
:10092000880604D5E06921F01001216000E0012073
:10093000A84201DD471B00E00027A1697A1902EBFC
:100940000900081AA0612078C00602D42046FFF7EB
:10095000E6FC002608E0D4E901211AF806009047D9
:10096000206A401C761C20624E45F4DB2078C006CD
:100970000AD52046FFF7D3FC06E0D4E90121302058
:100980009047206A401C2062381EA7F10107F4DC62
:1009900007E0D4E9012118F805009047206A401CBF
:1009A0002062281EA5F10105F3DC2046FFF7CDFCEF
:1009B0002078000602D50220BDE8F0870120FBE781
:1009C00070472DE9FF4F0C461E464FF0FF378BB0A6
:1009D000D2E90001DDF860800A908A46C1F30A5529
:1009E00005B93D46002108464FF00000BAF1000F5E
:1009F00000F4400005DA00EB80004FF4400101EA0A
:100A000050004FEA9059B9F1010F00DDB9460A983C
:100A100050EA4A000ED044F61050A5F2FF35454387
:100A20002F14B8F1000F1ED07542291E1EDDC9F12A
:100A300000021CE0B8F1010F4FF0000001D030219E
:100A400003E0F24305E02154401CB042FBDB30469A
:100A50000022002121540B99C1F80880C1E900202F
:100A60000FB0BDE8F08FBD1B6D1CDEE74A4600DA13
:100A7000694206A800F0F4FB06AB93E8070003AB5D
:100A800083E8070050460A9900F06DFC8DE80700E6
:100A9000A0F500501F3800900398002D0ADD42F2A7
:100AA0001F014A460844002303A90390684600F04A
:100AB000D6FE09E0A0F500504A461F38002303A9DE
:100AC0000390684600F0E0FE8DE807000004000C8B
:100AD00003D04FF0FF30410800E01046B8F1000F9E
:100AE00003D00022009215461EE0751E05D4FFF7C4
:100AF000C9FE303262556D1EF9D5B3460122084356
:100B000002D000227F1C04E02078302801D100228E
:100B10007F1E002A099784D01DE0112D07DAFFF708
:100B2000B1FE303262556D1C50EA0102F5D1084326
:100B300002D00098C8B10EE00021681E05E0235CD9
:100B4000625C63542254401E491C8142F7DBAB4671
:100B5000A81B401E0990002004F80B000B98099A6E
:100B6000C0F80880C0E9002B7AE711264FF0000892
:100B700057E72DE9F04F88460446D21D22F00701C1
:100B800091B0D1E90001CDE90A0102F075FB0246FE
:100B90000B98C00F01D02D2007E02068810701D5F8
:100BA0002B2002E0202101EAC000032A099001D095
:100BB000072A05DB03464146204600F011FB0BE106
:100BC0002078800601D5E06900E00620B8F1650FC5
:100BD000814606D0B8F1660F18D0B8F1670F70D112
:100BE00031E00020B9F1110F009001DB112301E089
:100BF00009F101030AAA01A90CA8FFF7E2FEDDE949
:100C00000C70002609F10105834647E001204B46A0
:100C100000904FF000470AAA01A90CA8FFF7D1FEE7
:100C2000DDE90DB00C995D46002610B909F101000F
:100C30000D18B9EB050003D4C0F1FF3609F1010529
:100C4000A5EB09002BE0B9F1010F01DA4FF0010922
:100C50000020B9F1110F0090484601DD112300E09A
:100C600003460AAA01A90CA8FFF7ABFEDDE90C7048
:100C70004D4600268346207800070AD4AB4500DAAB
:100C80005D4601A8012D04DD411911F8011C302930
:100C900007D04F4502DA17F1040F04DA012082462B
:100CA0000FE06D1EEEE7002F02DCED1B3E4403E07B
:100CB000781CA84200DD7D1CB81B00F1010A4FF032
:100CC00000472078000703D4AA4501DB4FF0FF3A24
:100CD0000021B7F1004F0DF143088DF8431024D0E7
:100CE00002202B23002F01DA7F422D230A21021E2E
:100CF000A0F1010000DC5FB197FBF1FC97FBF1F282
:100D000001FB1C7C17460CF1300C08F801CDEEE716
:100D1000A8F1010003702188090501D5452100E0F3
:100D20006521A0F1010800F8011C09980FA9A1EBA9
:100D30000807FF1D00B10120411901EBEA70A1690C
:100D40003844081A401EA0612078C00602D420460C
:100D5000FFF7E5FA099828B1D4E901219047206A04
:100D6000401C20622078C00622D52046FFF7D7FA23
:100D70001EE0002E04DBB34502DD01A8805D00E02B
:100D80003020D4E901219047206A401C2062761C63
:100D9000AAF101005FEA000A0AD100F01DFAC0685A
:100DA0000168405CD4E901219047206A401C206220
:100DB000281EA5F10105DCDC07E0D4E9012118F8C3
:100DC000010B9047206A401C2062381EA7F10107E2
:100DD000F3DC2046FFF7B9FA032011B041E600002A
:100DE0002DE9F04F04460D46D21D22F0070089B0D0
:100DF000D0E900974846394602F03EFA0246F80F1D
:100E000001D02D2307E02068810701D52B2302E0C4
:100E1000202101EAC0038DF820300BB1012000E051
:100E20000020032A824601D0072A04DB29462046F7
:100E300000F0D6F93FE12078800601D40D2500E0CE
:100E4000E569C7F30A560D2D49DA00214FEA175B11
:100E500008464FF00000002F00F4400007DA00EBD6
:100E600080004FF4400100EBD07001EA6000811572
:100E7000012901DD4FF0FF3100224FEA850CBCF162
:100E8000180F06D31346ACF118004FF08052C24041
:100E900003E04FF4801323FA0CF30CF10C0CBCF1BB
:100EA000200F04D3ACF1200C09FA0CF001E007FA92
:100EB0000CF000294FF0004801DD18B90FE00ED109
:100EC00040450CD319EB02095F4121B9404502D1DD
:100ED0009F4329EA0209BBEB175F00D0761C2088EC
:100EE000000502D57B48784402E07A4878441938F6
:100EF00008AA302302F80A30037C0AF10101002E0F
:100F00000AF1020A53546A4602DC4FF0300101E054
:100F10004FF031014FF001088DF8001002D0A6F219
:100F2000FF3603E059EA470100D06B4E002D02DC8A
:100F30002178090704D54FF002082E218DF8011001
:100F4000C44600210BE0C7F303433F01C35C491CC7
:100F50006D1E02F80830052908F1010801DA002D9C
:100F6000F1DC00210CE000EB1973491C1B786D1EAD
:100F7000082902F808304FEA091908F1010801DAD6
:100F8000002DF0DC21688B0602D516E0A8F10108DF
:100F9000E04505DD02EB080313F8013C302BF5D0EA
:100FA000B8F1000F09DD02EB080313F8013C2E2B0A
:100FB00003D1090701D4A8F10108002D05DD3E2168
:100FC00002F808106D1E08F10108407C002E02F89E
:100FD000080008F1010804DA2D20764202F8080022
:100FE00002E02B2002F808000A214FF47A708642B2
:100FF00008F101080BDB96FBF0F3303302F8083000
:1010000096FBF0F308F1010800FB136601E0642E83
:101010000CDB642096FBF0F3303302F8083096FBCB
:10102000F0F308F1010800FB136601E00A2E06DB6D
:1010300096FBF1F0303002F8080008F1010896FB49
:10104000F1F001FB1060303002F80800A16908F1EE
:10105000010808EB050202EB0A00081AA0612078DB
:10106000C00602D42046FFF75AF9216A08AE01EB08
:101070000A00206204E0D4E9012116F8010B904730
:10108000BAF1010AF7D22078C00602D52046FFF750
:1010900046F96E4609E016F8010B3E280FD0D4E958
:1010A00001219047206A401C2062B8F10108F2D269
:1010B0002046FFF74AF909B00320BDE8F08F206A07
:1010C0002844206203E0D4E90121302090476D1EBE
:1010D000EBD3F8E79A33000002FCFFFF10B5436939
:1010E00013B1AFF3008001E0FFF752F9012010BD0A
:1010F000127800F124010A7000224A700122EDE703
:1011000011684FF0FF32E9E710B5436913B1AFF34F
:10111000008001E0FFF7D4F9012010BD128800F132
:10112000240182840022C2840122EDE711684FF07D
:10113000FF32E9E770B516460C46054600F044F864
:10114000036893F80101012806D0FF2C0FD8185D21
:1011500068B101202C7070BDD3F8070132462146DA
:1011600003F2071303442846BDE8704018474FF0C8
:10117000FF3070BD00487047080500207546FFF736
:10118000F9FFAE4605006946534620F00700854644
:1011900018B020B5FFF75CF8BDE820404FF000061E
:1011A0004FF000074FF000084FF0000B21F007014F
:1011B000AC46ACE8C009ACE8C009ACE8C009ACE892
:1011C000C0098D467047000010B500F005F8001DFD
:1011D00010BD00BFA1250000004870472805002071
:1011E0002DE9F0411F46044603260168072A01F451
:1011F000006004DB08B116A505E016A503E008B100
:1012000015A500E015A521F010002060A069C01E02
:10121000A0610FB1401EA0612046FFF780F84FB1DA
:10122000D4E9012138469047206A401C2062C01C46
:10123000206206E0206AFAE7D4E9012115F8010BE3
:101240009047761EF8D22046FFF77FF8BDE8F08180
:101250004E414E006E616E00494E4600696E66005A
:101260002DE9F047814616468AB0354878440DC8C6
:101270008DE80D0032487844801C03AC0DC884E82A
:101280000D0041F69B300844372190FBF1F290FBB2
:10129000F1F5A5F1800501FB12041B3C02D5644267
:1012A000012000E00020DFF898A080460027FA44E3
:1012B000AAF1BE0A0EE0E0070AD03246684607EB04
:1012C000470101230AEB810100F0DEFA8DE80700F7
:1012D00064107F1C002CEED1194F7F44AE3F19E003
:1012E000E80715D007EB04100DF1180A90E80E007E
:1012F0008AE80E00C068F04201D198190890324681
:10130000012306A903A800F0BFFA03AB83E8070096
:101310006D10641C002DE3D14FF001033246694685
:10132000B8F1000F03A802D000F099FA01E000F034
:10133000ABFAC9E90001C9F808200AB0BDE8F08796
:10134000A430000010B50446AFF300802046BDE88D
:101350001040FEF768BF000001491820ABBEFEE751
:101360002600020070475FEA400C08BF91F0000FB2
:101370004FEA8C234FEAC12243EA51514FEA1C50F5
:1013800018BF00F5F0404FEA300018BF41F00041AF
:101390005FEA6C5C00F02980BCF1FF3F08BF40F0C1
:1013A00080407047130C06BF12044FF0100C4FF032
:1013B000000C130E04BF12020CF1080C130F04BF33
:1013C00012010CF1040C930F04BF92000CF1020CFB
:1013D000D30F04BF52000CF1010C11464FF0000274
:1013E000A0F11F00A0EB0C00704711F0004F08BFE8
:1013F000704731F000413FF4D5AF0B0C06BF090434
:101400004FF0100C4FF0000C0B0E04BF09020CF152
:10141000080C0B0F04BF09010CF1040C8B0F04BF67
:1014200089000CF1020CCB0F04BF49000CF1010C38
:10143000CCF12003A0EB0C0022FA03F302FA0CF229
:1014400041EA030100F10100704720F07F4C80EA7F
:10145000030023F07F47ACEB070303F57C5300F058
:10146000004003F1FF032DE980494FEA154B09B411
:101470004FEA144325EA0B4E24EA03480FF20426F0
:1014800006EB132749083E785FEA320203FB066742
:10149000C7F5000707FB06F64FEA54374FEAD64672
:1014A00006F1020607FB066CCCF1005C4FEA1C4714
:1014B0002CEA074C07FB06F40CFB06F504EB15467B
:1014C0004FEA961634BF00204FF000404FEAD13764
:1014D00006FB07FC4FEA1C4C0CFB0BF7D21B03FB73
:1014E0000CF761EB07010CFB0EF7B0EB074072EB5A
:1014F00017420CFB08F734BFA2EB0742B2EB0742DE
:1015000061EB17414FEA0C444FEA910706FB07FCD9
:101510004FEA1C4C0CFB0BF7B0EBC74072EB573299
:1015200003FB0CF734BFA2EBC742B2EBC74261EB3F
:1015300057310CFB0EF7B0EBC70072EB57720CFB88
:1015400008F734BFA2EBC702B2EBC70261EB5771D9
:10155000039F4FEA816141EA921104EBCC044FEA08
:10156000D1374FEA826206FB07FC42EA90124FEA4B
:1015700080604FEA1C4C0CFB0BF7D21B03FB0CF7F3
:1015800061EB07010CFB0EF7B0EB074072EB174263
:101590000CFB08F734BFA2EB0742B2EB074261EB4A
:1015A00017414FEA8C554FEA910704EB9C2406FB48
:1015B00007FC4FEA1C4C0CFB0BF7B0EBC74072EB7F
:1015C000573203FB0CF734BFA2EBC742B2EBC74262
:1015D00061EB57310CFB0EF7B0EBC70072EB5772A3
:1015E0000CFB08F734BFA2EBC702B2EBC70261EBFA
:1015F000577115EB4C254FEA816141EA92114FEA90
:1016000082624FEAD13742EA901206FB07FC44F1AE
:1016100000044FEA80604FEA1C4C0CFB0BF7D21B16
:1016200003FB0CF761EB07010CFB0EF7B0EB074077
:1016300072EB17420CFB08F734BFA2EB0742B2EB88
:10164000074261EB174115EB1C154FEA813141EA66
:1016500092414FEA823242EA90424FEA80304FEAAA
:101660000C7644F1000448EA03434EEA0B484FF07D
:10167000000EB2EB080C71EB030724BF624639463B
:101680004EEB0E0E4FF0000B0018524149414BEB50
:101690000B0BB2EB080C71EB03077BF1000B24BFC3
:1016A000624639464EEB0E0E4FF0000B00185241C9
:1016B00049414BEB0B0BB2EB080C71EB03077BF1D1
:1016C000000B24BF624639464EEB0E0E51EA02076C
:1016D00018BF46F0010616EB0E7655F1000254F1E4
:1016E000000103D5BDE88901BDE80088BDE8890196
:1016F000BDE80048B619524141EB0101A3F10103D5
:10170000704780807F7E7D7C7B7A7978777676756E
:101710007473727171706F6E6E6D6C6C6B6A6A69E6
:101720006868676666656464636362616160605F80
:101730005F5E5E5D5D5C5C5B5B5A5A5959585857F9
:101740005756565555555454535352525251515061
:1017500050504F4F4F4E4E4D4D4D4C4C4C4B4B4BB4
:101760004A4A4A49494948484847474747464646FA
:101770004545454444444443434343424242424135
:101780004141002B9C4630D477002BD01CB54FEA4A
:10179000370703B44FF010004FF01001BAF1000FFB
:1017A00006D0BCF1000FDCBF40F0080040F008019B
:1017B0004FF000000FBCBDE810400BF1010BBBF176
:1017C000010F08BF5FEA170722BF12F1010211F1F2
:1017D00001014FF0004143F1000300F0004043EAF3
:1017E00000007047F9D35708D0E746EA064613F1E0
:1017F000400F4FEA16461FDD13F1200FDFBF1643DF
:101800000A46002120335B42BED0C3F1200746EADE
:10181000064602FA07F74FEA164646EA0706C3F1FC
:10182000200722FA03F201FA07F721FA03F14FF039
:10183000000342EA0702A7E746EA020646EA06462E
:101840004FEA164646EA0106BCBF46EA0646360C93
:101850004FF000034FF000024FF0000194E72DE934
:10186000804C9A46934670B491E8380007C831EA34
:10187000400C48BF34EA430C03D5FFF7E6FDFFF701
:1018800080FFF0BCBDE8008C2DE9804C9A46934661
:1018900070B491E8380007C810F0804F08BF13F00B
:1018A000804F03D100F005F8FFF76BFFF0BCBDE8F7
:1018B000008C20F07F4780EA030023F07F4C07EB89
:1018C0000C03A3F57C5300F00040A3F1FE0392F05B
:1018D000000F00F0B38095F0000F00F077802DE945
:1018E00001494FEA11404FEA144621EA004800FB43
:1018F00006FC24EA064708FB06F607FB08F800FB8F
:1019000007F718EB06484CEB164C4FEA124B18EB56
:1019100007484FEA15464CEB174022EA0B4E0BFBEB
:1019200006FC25EA06470EFB06F607FB0EFE0BFB40
:1019300007F71EEB064E4CEB164C4FF000061EEB65
:10194000074E4CEB174B18EB0B0840F1000018EB5F
:101950000E0B58EB000840F100008F1A4FF0000109
:101960003CBFC943661B14BFB5EB040C00213CBF50
:10197000C943F61B4FEA17444EEA8E0E27EA044588
:101980004FEA1C4704FB07622CEA074C05FB07F7EC
:101990000CFB05F604FB0CFC16EB074642EB17426A
:1019A00016EB0C4642EB1C421BEB060658EB020200
:1019B000414146EA9E0601D5BDE80189B61952416A
:1019C00041EB0101A3F10103BDE801894FEA144590
:1019D0004FEA114724EA054621EA074C05FB07F4C4
:1019E00006FB07F70CFB06F105FB0CFC11EB0741AE
:1019F00044EB17444FEA124711EB0C4144EB1C44F3
:101A000022EA074C05FB07F206FB07F70CFB06F67C
:101A100005FB0CFC16EB074642EB174216EB0C4697
:101A200042EB1C456A1854F1000148BF7047B619D3
:101A3000524141EB0101A3F10103704795F0000F02
:101A400037D04FEA11424FEA144721EA024624EA0E
:101A5000074C02FB07F106FB07F70CFB06F402FB41
:101A60000CFC14EB074441EB17414FEA154714EB0C
:101A70000C4441EB1C4125EA074C02FB07F506FB31
:101A800007F70CFB06F602FB0CFC16EB074645EBD2
:101A9000174516EB0C4645EB1C42121951F100019B
:101AA00048BF7047B619524141EB0101A3F1010350
:101AB00070474FEA14454FEA114724EA054621EAE8
:101AC000074C05FB07F106FB07F70CFB06F24FF08E
:101AD000000605FB0CFC12EB074241EB174112EB31
:101AE0000C4251EB1C4148BF7047921841EB010179
:101AF000A3F10103704721B1826842F001028260C4
:101B000003E0826822F001028260704701460020F3
:101B10008A6802F004020AB1012000E00020704748
:101B20000146C86C80B270470246002013680B4023
:101B30000BB1012000E000207047014600208A68B8
:101B400002F008020AB1012000E000207047000006
:101B500030B502460020002350680F4C20400D791C
:101B60000C6844EA05242043506090680B4C2040E8
:101B7000D1E902542C434D7944EA45042043906056
:101B8000D06A20F470000C7C641EE4B2234340EA67
:101B90000350D06230BD0000FFFEF0FFFDF7F1FF03
:101BA000F0B504460D4600200021092D11DDE06846
:101BB000A5F10A0606EB4607072606FA07F1884351
:101BC000A5F10A0606EB460603FA06F10843E060B3
:101BD0000CE0206905EB4507072606FA07F1884364
:101BE00005EB450603FA06F108432061072A0FDAE0
:101BF000606B561E06EB86071F2606FA07F1884320
:101C0000561E06EB860605FA06F10843606322E0DD
:101C10000D2A0FDA206BD61F06EB86071F2606FA61
:101C200007F18843D61F06EB860605FA06F108433E
:101C3000206310E0E06AA2F10D0606EB86071F267E
:101C400006FA07F18843A2F10D0606EB860605FAAF
:101C500006F10843E062F0BD816841F0080181604F
:101C6000704721B1826842F4A002826003E082687A
:101C700022F4A00282607047816841F00401816013
:101C80007047000010B5044605230122214609488B
:101C9000FFF786FF01210748FFF7E3FF00BF02219E
:101CA0000448FFF741FF0028F9D00248FFF738FF4A
:101CB00010BD00000024014000B587B0012148029A
:101CC00001F03CF90121042001F038F94FF4004003
:101CD00001F028F900208DF81B000F20ADF8180046
:101CE00003208DF81A0006A9164800F090F800208D
:101CF000019004904FF46020039000208DF80900BB
:101D00008DF8080001208DF8140001A90E48FFF796
:101D10001FFF01210C48FFF7EEFE0B48FFF79CFF69
:101D200000BF0948FFF709FF0128FAD00648FFF76E
:101D3000A3FF00BF0448FFF7E9FE0128FAD007B06F
:101D400000BD0000000801400024014000BFFEE784
:101D500030B502460F4B104C24781A550E4B1B78A9
:101D60005B1C0D4C237023461B780A2493FBF4F56F
:101D700004FB1533084C23700020002107E0054BBD
:101D80005B5C012B01D1431CD8B24B1CD9B20A2990
:101D9000F5DB30BDFC0400201F0000200246A2F548
:101DA0000061642901DD643905E011F1640F01DA95
:101DB000643100E000216520484340F29D7390FBB0
:101DC000F3F148B27047704700B5034603E04FF4A3
:101DD0007A7000F005F8181EA3F10103F7D100BDD9
:101DE00000EBC001C9004FF0E02251610021916178
:101DF0000521116100BF4FF0E021096901F4803134
:101E00000029F8D004214FF0E022116170472DE93C
:101E1000F041024600250026002000230024002770
:101E200091F803C00CF00F0591F803C00CF0100CF2
:101E3000BCF1000F03D091F802C04CEA050591F8FF
:101E400000C0BCF1000F31D0146800202BE04FF02F
:101E5000010C0CFA00F3B1F800C00CEA03069E4234
:101E600020D183004FF00F0C0CFA03F7BC4305FAA6
:101E700003FC4CEA040491F803C0BCF1280F06D11E
:101E80004FF0010C0CFA00FCC2F814C00AE091F803
:101E900003C0BCF1480F05D14FF0010C0CFA00FC57
:101EA000C2F810C0401C0828D1D31460B1F800C09B
:101EB000BCF1FF0F34DD546800202EE000F1080C67
:101EC0004FF0010808FA0CF3B1F800C00CEA030661
:101ED0009E4221D183004FF00F0C0CFA03F7BC4354
:101EE00005FA03FC4CEA040491F803C0BCF1280F86
:101EF00005D100F1080C08FA0CF8C2F8148091F82A
:101F000003C0BCF1480F07D100F1080C4FF00108E5
:101F100008FA0CF8C2F81080401C0828CED3546090
:101F2000BDE8F0810246002093680B400BB1012010
:101F300000E0002070470AB1016100E04161704794
:101F400000BFFEE702460748805C084040B1012917
:101F500004D00448805C8843024B985401207047A9
:101F60000020FCE724000020002004E00021034AB8
:101F70001154411CC8B20C28F8DB70472400002023
:101F800010B504463CB940213948FFF7CBFF002883
:101F90006CD1012010BD012C07D180213448FFF7FE
:101FA000C1FF002862D10120F4E7022C07D10121F2
:101FB0003048FFF7B7FF002858D10120EAE7032C8B
:101FC00007D102212B48FFF7ADFF00284ED1012099
:101FD000E0E7042C07D104212648FFF7A3FF0028DF
:101FE00044D10120D6E7052C07D14FF48061214868
:101FF000FFF798FF80BB0120CCE7062C07D14FF4F8
:1020000000611B48FFF78EFF30BB0120C2E7072CA1
:1020100007D14FF480511648FFF784FFE0B9012043
:10202000B8E7082C06D120211248FFF77BFF98B9AA
:102030000120AFE7092C06D140210E48FFF772FFBF
:1020400050B90120A6E70A2C07D110210848FFF754
:1020500069FF08B901209DE708E00B2C06D120217B
:102060000348FFF75FFF08B9012093E7002091E7DD
:1020700000080140000C014008B50121042000F0D7
:102080005DFF0121082000F059FF48208DF8030072
:1020900041F6F000ADF8000003208DF8020069461B
:1020A0000548FFF7B4FE40F26740ADF8000069460E
:1020B0000248FFF7ACFE08BD00080140000C0140DB
:1020C00010B50020A349087016E0A348A14909787B
:1020D00030F8110000280ADD9F489E49097830F841
:1020E0001100401E9C499B4A127821F81200994821
:1020F0000078401C97490870964800780C28E4DB6B
:1021000096480078401C95490870084600781428C5
:1021100071DB002008708F49087015E190488D49E7
:102120000978415C8F488B4A12788154894800783D
:10213000FFF726FF8A49874A12788854084685495E
:102140000978405C01280AD1874882490978405CB7
:1021500040F0010084497F4A1278885409E082489F
:102160007C490978405C20F001007F49794A127867
:1021700088547B4877490978405C01280ED179481A
:1021800074490978405C48B9774872490978405CDD
:1021900040F0020174486F4A1278815470486D49CA
:1021A0000978405C78B96F486A490978405C012831
:1021B00009D16D4867490978405C40F004016A48DC
:1021C000644A12788154694862490978405C98B938
:1021D000634860490978405C01280BD14FF47A705C
:1021E0005D495C4A127821F8120001205F49594A82
:1021F00012788854A3E0ACE05C4856490978405C0A
:1022000001282DD1564853490978405C58B900201F
:102210005149504A127821F81200022053494D4A80
:10222000127888548BE04C484A49097830F81100FC
:10223000002814D164204849464A127821F8120037
:10224000494844490978405C40F020004649414AE9
:1022500012788854042045493E4A127888546EE02A
:1022600042483C490978405C02282BD13C48394916
:102270000978405C01280FD13B4836490978405C19
:1022800040F010003849334A127888540320374907
:10229000304A1278885452E02F482E49097830F895
:1022A0001100F8B930482B490978405C40F008002B
:1022B0002D49284A1278885400202C49254A127842
:1022C00088543CE0294823490978405C03280AD116
:1022D000234820490978405C20B9002023491D4A41
:1022E000127888542BE021481A490978405C042868
:1022F00025D11B4817490978405C28B900201B49A3
:10230000144A127888541AE013481249097830F8B0
:102310001100A0B9642010490E4A127821F8120069
:1023200011480C490978405C40F040000E49094AC8
:102330001278885404200D49064A127888540548BA
:102340000078401C03490870024800780C28FFF60A
:10235000E5AE10BD01000020540000200000002068
:10236000300000203C000020240000204800002015
:1023700000BFFEE7704710B5002000F08BF9E220A7
:1023800000F0F8F8012000F085F910BD10B500202C
:1023900000F080F9E12000F0EDF8012000F07AF97A
:1023A00010BD000008B50121082000F0C7FD102075
:1023B0008DF803004FF43840ADF8000003208DF88D
:1023C000020069460E48FFF722FD48208DF8030001
:1023D0004FF48040ADF8000003208DF802006946FC
:1023E0000748FFF714FD002000F048F9012000F035
:1023F00051F9002000F066F9002000F057F908BDFF
:10240000000C014010B5FFF7CDFF0821002000F0BF
:1024100065F93F21012000F061F90121022000F05F
:102420005DF90321084600F059F90321042000F06A
:1024300055F90221052000F051F90E21062000F087
:102440004DF92021112000F049F9052207490A2001
:1024500000F055F9FFF79AFFFFF78DFF7021072075
:1024600000F03CF900F070F810BD000007000020FB
:1024700010B54FF480410248FFF754FD10BD000035
:10248000000C014070B50446002000F003F920461E
:1024900000F070F8FF2000F06DF80546012000F014
:1024A000F9F8284670BD70B505460E46002000F0CC
:1024B000F1F8612000F05EF8002405E0FF2000F054
:1024C00059F82855601CC4B2B442F7DB012000F073
:1024D000E1F870BD10B5002000F0DCF8FF2000F03E
:1024E00049F80446012000F0D5F8204610BD000050
:1024F00070B5FFF7EFFF05460020FFF7C3FF064664
:1025000006F0020018B90324FFF77CFF18E005F07D
:102510003000302803D10224FFF774FF10E005F0EB
:10252000400040280BD1012420210648FFF7BBFFC3
:102530004021072000F0D2F8FFF71DFF00E0002443
:10254000204670BD8C04002010B5002000F096F8E5
:102550000020FFF797FF0446FF2C00D110BD44F088
:1025600003042146002000F0B9F8012000F086F8AD
:1025700000BFF3E770B50446002518E004F08000C2
:1025800018B1012000F092F802E0002000F08EF86F
:102590006006040E012000F095F8FFF769FF08B10E
:1025A00044F00104002000F08DF8681CC5B2082D2D
:1025B000E4DB204670BD000070B5052220491020E4
:1025C00000F09DF805221E490A2000F098F820210D
:1025D0001C4800F0AEF800F039F842F210761EE028
:1025E000FFF778FF0446761E1EB90425FFF70AFFA1
:1025F00016E004F03000302803D10325FFF702FF76
:102600000EE004F01000102803D10225FFF7FAFEB7
:1026100006E004F02000202801D1012500E0DFE7DA
:1026200000BF3021072000F059F8FFF7AFFE052268
:1026300005490A2000F063F8FFF786FF284670BDC1
:10264000020000206C0400200700002010B50020CC
:1026500000F014F80020FFF715FF0446FF2C00D10E
:1026600010BD44F0020424F001042146002000F0D3
:1026700035F8012000F002F800BFF1E710B504467C
:1026800022464FF400610248FFF755FC10BD0000E0
:10269000000C014010B5044622464FF48051024818
:1026A000FFF749FC10BD0000000C014010B50446C6
:1026B00022464FF400410248FFF73DFC10BD0000E8
:1026C000000C014010B5044622464FF40051024868
:1026D000FFF731FC10BD0000000C014070B504464E
:1026E0000D460020FFF7D6FF44F02000FFF742FF21
:1026F0002846FFF73FFF0120FFF7CCFF70BD2DE913
:10270000F04105460E4617460020FFF7C3FF45F08F
:102710002000FFF72FFF002404E0305DFFF72AFFC1
:10272000601CC4B2BC42F8DB0120FFF7B3FFBDE878
:10273000F08170B505460E460020FFF7ABFFA020E4
:10274000FFF718FF002404E0285DFFF713FF601C6B
:10275000C4B2B442F8DB0120FFF79CFF70BD00005B
:1027600070B5002100230F22C47804B3154C2468EF
:1027700004F4E064C4F5E064210AC1F10403CA4032
:10278000447804FA03F184781440214309010E4C83
:102790000678A155047804F01F050124AC400578A3
:1027A0006D11AD0005F1E025C5F8004109E00478A0
:1027B00004F01F050124AC40044D0678761145F85D
:1027C000264070BD0CED00E000E400E080E100E098
:1027D00002490143024A1160704700000000FA05F7
:1027E0000CED00E000200CE0002106E00022064B8A
:1027F00003EBC0135A544A1CD1B28029F6DB421CA9
:10280000D0B20828F0DB70476C0000202DE9F043BF
:1028100004460D4616461F46284638E0224631E05B
:10282000002A2DDB7F2A2BDC002829DB3F2827DC30
:102830004FEAE07C00EB5C7C4FEAEC0CDFF8588060
:1028400008EBCC1C1CF802C003464FEAE07800EB12
:1028500058784FEAE808A0EBC8094FF0010808FAD9
:1028600009F82CEA080C01464FEAE07800EB5878AA
:102870004FEAE808DFF8209009EBC81808F802C012
:10288000511C0AB2A1199142CADC411C08B2E919D3
:102890008142C3DCBDE8F0836C00002038B5002421
:1028A00006E0002500E06D1CB5F57A7FFBD3641CC3
:1028B000B4F57A7FF5D30121082000F03FFB142006
:1028C0008DF8030003208DF802004FF48070ADF8FE
:1028D000000069460848FFF79AFA4FF40070ADF817
:1028E000000069460448FFF792FA012000F092FACE
:1028F000012000F09BFA38BD000C014070B5054680
:10290000002411E080212141294009B1012100E08A
:102910000021084600F08AFA012000F07BFA00202E
:1029200000F078FA601CC4B2082CEBDB012000F048
:1029300071FA002000F06EFA70BD10B5012000F0B1
:1029400075FA012000F066FA002000F06FFA00200E
:1029500000F060FA10BD10B5002000F067FA012009
:1029600000F058FA012000F061FA10BD10B5FFF731
:1029700095FFAE2000F066FAD52000F063FA8020C3
:1029800000F060FAA82000F05DFA3F2000F05AFA4B
:10299000D32000F057FA002000F054FA402000F055
:1029A00051FAA12000F04EFAC82000F04BFADA20CC
:1029B00000F048FA122000F045FA812000F042FAB7
:1029C000CF2000F03FFAD92000F03CFAF12000F0CF
:1029D00039FADB2000F036FA302000F033FAA42078
:1029E00000F030FAA62000F02DFA8D2000F02AFA2F
:1029F000142000F027FAAF2000F024FAFFF7F2FECF
:102A000000F0B6F910BD0FB470B5C2B005460E4661
:102A100014464AA8019002A8019A4999FDF72AFC98
:102A200000200190234602AA3146284600F0BEF855
:102A300042B070BC5DF814FB70B505460C4645F01D
:102A4000B00000F0FFF9102141EA141000F0FAF98B
:102A500004F00F0000F0F6F970BD0000F8B506466E
:102A60000F4614461D46082D0CD1A4F120000E4936
:102A700001EB00101023082239460090304600F088
:102A800017F80FE0062D0DD1A4F1200000EB400057
:102A9000064901EB400008230622394600903046E3
:102AA00000F006F8F8BD0000A8370008983D0008BF
:102AB0002DE9FF4F80460E469146DDF834B00025E3
:102AC00000244A4631464046039BFFF79FFE00BF65
:102AD0005EE0002558E008EB0500002852DB08EB1B
:102AE00005007F284EDC3046F11706EB5171C91006
:102AF0000FB2F11706EB5171C910A6EBC10A002EF7
:102B000005DA781E07B20AF108000FFA80FA3819C0
:102B1000002817DB3819072814DC3819224901EB83
:102B2000C01008EB0501405C04FB09511BF80110C3
:102B300001FA0AF1084339191B4A02EBC11108EBEB
:102B4000050288543819401C00281BDB3819401C2A
:102B5000072817DC3819401C134901EBC01008EB9B
:102B60000501405C04FB09511BF80110CAF1080281
:102B7000114108433919491C0B4A02EBC11108EBFA
:102B800005028854681CC5B24D45A4DB601CC4B264
:102B90000399481EC11700EB5171012202EBE101BC
:102BA000A14296DCBDE8FF8F6C0000202DE9FE4FAE
:102BB00007468A46144698460025AB460026CBE0D9
:102BC000605D00F0800058B94FF0010B2846691C89
:102BD0008DB2205C8DF8040000208DF805006BE0BC
:102BE000605D00F0E000C02814D14FF0020B2846D1
:102BF000691C8DB2205C8DF80400605D00B9AFE007
:102C00002846691C8DB2205C8DF8050000208DF8E7
:102C1000060051E0605D00F0F000E0281DD14FF0AB
:102C2000030B2846691C8DB2205C8DF80400605DA2
:102C300000B995E02846691C8DB2205C8DF805002E
:102C4000605D00B98CE02846691C8DB2205C8DF86F
:102C5000060000208DF807002EE0605D00F0F8000F
:102C6000F02826D14FF0040B2846691C8DB2205C59
:102C70008DF80400605D00B972E02846691C8DB2D1
:102C8000205C8DF80500605D00B969E02846691C8C
:102C90008DB2205C8DF80600605D00B960E02846CA
:102CA000691C8DB2205C8DF8070000208DF80800AB
:102CB00002E0681C85B24FE0BBF1010F0BD19DF81B
:102CC0000420B91908B243465146FFF7C7FE06EB88
:102CD000080086B23FE04FF000090EE009EB8901E1
:102CE00001EB4911204A881801A9FDF7D5FA00B96E
:102CF0000EE009F101001FFA80F909EB890101EBEF
:102D00004911194A881819A1FDF7C6FA0028E5D11A
:102D100000BFB8F1080F12D109EB890000EB491090
:102D200011490844401DB919009008B210231A46F1
:102D30005146FFF7BDFE06F1100086B20BE0B8F178
:102D4000060F08D1B91908B206233F225146FFF7F2
:102D500085FEB01D86B200BF605D00287FF430AFF5
:102D600000BFBDE8FE8F0000D23F00080000000059
:102D700010B500240BE000212046FFF75DFE054959
:102D800001EBC410802100F06DF8601CC4B2082C67
:102D9000F1DB10BD6C0000202DE9F04706460D4622
:102DA000174698462846E91705EB5171C9100FFAE6
:102DB00081F905EB0801481EC11700EB5171C910DC
:102DC000491C0FFA81FA002D07DAA9F101000FFA68
:102DD00080F9AAF101000FFA80FA4C4614E0002EA7
:102DE00010DB7F2E0EDC002C0CDB072C0ADCF1B292
:102DF000E0B2FFF721FE064901EBC41188193946FC
:102E000000F030F8601C04B25445E8DBBDE8F08700
:102E10006C00002010B5044622464FF48071024831
:102E2000FFF789F810BD0000000C014010B5044602
:102E300022464FF400710248FFF77DF810BD0000F4
:102E4000000C014010B50446FFF777FD7820FFF72E
:102E500055FD0020FFF752FD2046FFF74FFDFFF71D
:102E60007AFD10BD70B505460E46FFF766FD782069
:102E7000FFF744FD4020FFF741FD002404E0285DFA
:102E8000FFF73CFD601CC4B2B442F8DBFFF763FD02
:102E900070BD0000F0B585B00146002000221B4C3B
:102EA00000941B4C01941B4C02941B4C03941B4C30
:102EB0000494002305E000245DF823502C705C1C72
:102EC000E3B2052BF7DB14E00C782C2C07D100249F
:102ED0005DF82050AC54441CE0B2002208E00F2AF8
:102EE00006DA0E785DF820701446551CEAB23E559D
:102EF000491C0C780CB10528E6DB052803DA002410
:102F00005DF82050AC5405B0F0BD0000AC040020CA
:102F1000BC040020CC040020DC040020EC040020D1
:102F20007047000001460020034A506820F44040EA
:102F300008435060704700000010024029B1064A63
:102F400092690243044B9A6104E0034A9269824306
:102F5000014B9A617047000000100240704710B5A5
:102F600000F002F810BD00000CB5002001900090A8
:102F70003348006840F480303149086000BF304871
:102F8000006800F4003000900198401C0190009807
:102F900018B90198B0F5A06FF1D12948006800F484
:102FA000003010B10120009001E000200090009856
:102FB000012843D12348006840F0100021490860EF
:102FC0000846006820F0030008600846006840F0EA
:102FD000020008601A48406819494860084640687D
:102FE00048600846406840F4806048600846406891
:102FF00020F47C1048600846406840F4E8104860BF
:103000000846006840F08070086000BF0C48006807
:1030100000F000700028F9D00948406820F0030053
:10302000074948600846406840F00200486000BF19
:103030000348406800F00C000828F9D10CBD0000DE
:1030400000100240002002407047000010B51348F5
:10305000006840F0010011490860084640681049C6
:1030600008400E494860084600680E4908400B4970
:1030700008600846006820F4802008600846406820
:1030800020F4FE0048604FF41F008860FFF767FFE0
:103090004FF000600449086010BD000000100240BD
:1030A0000000FFF8FFFFF6FE08ED00E010B501217B
:1030B0000C4800F02FF8012813D1FFF701F80A4857
:1030C0000088401C0849088008460088012804DB65
:1030D000002008800120054908700121014800F006
:1030E0000AF810BD002C0140200000201D00002027
:1030F000CA4302827047CA430282704721B10288E4
:1031000042F00102028004E002884FF6FE731A408A
:103110000280704730B50246002000230024158A43
:1031200005EA0103958905EA010413B10CB10120F8
:1031300000E0002030BD1AB183890B43838102E097
:1031400083898B438381704701894FF6F872114060
:1031500001817047002202881D4B98420ED01D4B02
:1031600098420BD0B0F1804F08D01B4B984205D04D
:103170001A4B984202D01A4B984204D14FF68F73E3
:103180001A404B881A43174B984207D0164B984267
:1031900004D04FF6FF431A40CB881A4302808B8835
:1031A00083850B8803850A4B98420BD0094B9842C4
:1031B00008D00E4B984205D00D4B984202D00D4BD3
:1031C000984201D10B7A0386012383827047000065
:1031D000002C014000340140000400400008004081
:1031E000000C00400010004000140040004001406E
:1031F00000440140004801401FB50121C802FFF70B
:103200009DFE1B48FFF7A0FF0020ADF80A00ADF8B7
:10321000060040F2E730ADF808004720ADF80400A2
:1032200000208DF80C0001A91148FFF793FF012140
:103230000F48FFF75DFF012211460D48FFF77BFFA6
:103240004FF4A060FFF7C4FA19208DF800000120A8
:103250008DF8030002208DF8010001208DF8020096
:103260006846FFF77DFA01210148FFF747FF1FBDC0
:10327000002C014000BFFEE7490050EAC12018BF02
:1032800004204A0D18BF40F0010040F2FF72B2EB7B
:10329000515F08BF40F00200012808BF05207047B9
:1032A00030380A2801D20120704700207047000002
:1032B00008B5FFF75BFBFEF7DFFEFEF7FDFCFFF74F
:1032C000A1F8FFF799FFFFF78DFA0823EBA2002181
:1032D0000846FFF76BFC0823ECA210210420FFF73F
:1032E00065FC0823EFA220210020FFF75FFC0823E4
:1032F000F1A230210020FFF759FCFFF739FD00BF94
:1033000008210920FEF71EFE0028F9D0FEF72CFE4A
:10331000FFF768FAB0E10020EB490870FEF7B2FC55
:10332000EA4908800120FEF7ADFCE9490880022047
:10333000FEF7A8FCE74908800320FEF7A3FCE64956
:103340000880E2480088FEF729FDE4490870E0485B
:103350000088FEF723FDE2490870DE480088FEF78A
:103360001DFDE0490870DC480088FEF717FDDE49C6
:10337000087008210020FEF7E5FD40B1DB48007829
:1033800040F00100D94908700120CF490870082198
:103390000120FEF7D7FD40B1D448007840F002008C
:1033A000D24908700220C849087008210220FEF79F
:1033B000C9FD40B1CD48007840F00400CB49087009
:1033C0000320C149087008210320FEF7BBFD40B16E
:1033D000C648007840F00800C44908700420BA4983
:1033E000087008210420FEF7ADFD40B1BF48007809
:1033F00040F01000BD4908700520B349087008214D
:103400000520FEF79FFD40B1B848007840F020004D
:10341000B64908700620AC49087008210620FEF75E
:1034200091FD40B1B148007840F04000AF490870CC
:103430000720A549087008210720FEF783FD40B149
:10344000AA48007840F08000A849087008209E49EA
:10345000087008210846FEF775FD40B1A4480078C1
:1034600040F00100A249087009209749087008211E
:103470000920FEF767FD40B19D48007840F002004A
:103480009B4908700A209049087008210A20FEF71D
:1034900059FD40B19648007840F004009449087006
:1034A0000B208949087008210B20FEF74BFD40B125
:1034B0008F48007840F008008D4908700C20824940
:1034C00008708C480078002837D00020894908709F
:1034D0008948007889490870804800784870804899
:1034E000007888707F480078C8707F48007808713D
:1034F0007E48007848717E4800788871FFF75CF854
:103500007F49087008460078012804D100207749D7
:103510000870774908707A480078FEF719FC7949F5
:103520000870FEF7E5FF012807D177480078512899
:1035300003D17548401CFFF7ADFC63480078E8B143
:103540006148007871A30822002100906820FFF7ED
:103550005AFA1023182200216820FFF71DFC64206E
:10356000FEF732FC1023182200216820FFF74EF9E5
:103570001023182200216820FFF70EFC5248007823
:10358000032809D15C48007808B9012000E0002038
:1035900059490870FFF726F957480078D8BB082327
:1035A0005BA210210020FFF701FB0823594A1021DC
:1035B0000846FFF7FBFA082357A210214820FFF71F
:1035C000F5FA0823554A10215820FFF7EFFA08238F
:1035D00053A220210020FFF7E9FA0823514A2021B5
:1035E0001020FFF7E3FA08234FA220214820FFF71D
:1035F000DDFA08234D4A20215820FFF7D7FA082387
:103600004BA230210020FFF7D1FA0823494A30218C
:103610001020FFF7CBFA3B480078092808DB464822
:1036200010231A46002100900846FFF741FA21E0D6
:1036300034480078052808DB404810231A4600214A
:1036400000900846FFF734FA14E02E48007801286D
:1036500008DB3B4810231A46002100900846FFF77C
:1036600027FA07E0374810231A4600210090084641
:10367000FFF71EFAFFF77CFB4DE60000202020201C
:10368000205B4744454C455D2020200020E981A572
:10369000E68EA7E599A8E6B58BE8AF95E7A88BE598
:1036A000BA8F200020202020202056312E302020CC
:1036B000202020200000000020202020202020208A
:1036C0002020204B31303E001A0000200C0000204A
:1036D0000E00002010000020120000201400002026
:1036E0001500002016000020170000201800002000
:1036F000190000201D0000201E0000206C04002086
:103700001B0000201C0000208C0400204B256400BE
:10371000423A0000AC040020433A0000BC04002000
:103720004C3A0000CC0400204D3A0000DC0400209C
:10373000523A0000EC0400200E420008EE4100085E
:10374000CE410008AE41000810B500290AD0087823
:10375000002807D005487844FCF79EFD002801D0DA
:10376000002010BD0248784410BD0000F60B000098
:10377000EE0B000010B500290AD00878002807D009
:1037800005487844FCF788FD002801D0002010BDD2
:103790000248784410BD0000E60B0000DE0B00007C
:1037A000FDF7E7B9FDF71CBB0000000000000000BA
:1037B0000000000000000000000000F80000000011
:1037C000000000333000000000160E00160E00004E
:1037D000000000000000000040C07840C0784000B9
:1037E000043F04043F040400007088FC083000001B
:1037F000001820FF211E0000F008F000E018000073
:1038000000211C031E211E0000F00888700000002B
:103810001E21232419272110000000160E0000008D
:103820000000000000000000000000E0180402009A
:10383000000000071820400000020418E00000000B
:103840000040201807000000404080F08040400009
:103850000202010F01020200000000F0000000005F
:103860000101011F01010100000000000000000033
:1038700000B0700000000000000000000000000028
:103880000001010101010101000000000000000031
:1038900000303000000000000000000080601804CC
:1038A000006018060100000000E010080810E000A9
:1038B000000F102020100F00001010F80000000072
:1038C0000020203F202000000070080808887000B9
:1038D0000030282422213000003008888848300039
:1038E0000018202020110E000000C02010F8000059
:1038F00000070424243F240000F8088888080800F2
:103900000019212020110E0000E010888818000006
:10391000000F112020110E0000380808C8380800D8
:103920000000003F00000000007088080888700058
:10393000001C222121221C0000E010080810E000D9
:103940000000312222110F00000000C0C000000062
:103950000000003030000000000000C0C000000087
:10396000000080B0700000000000804020100800BF
:103970000001020408102000404040404040400048
:103980000404040404040400000810204080000023
:103990000020100804020100007048080808F00028
:1039A0000000003036010000C030C828E810E000F8
:1039B0000718272423140B000000C038E000000083
:1039C000203C23020227382008F8888888700000ED
:1039D000203F202020110E00C030080808083800C1
:1039E000071820202010080008F808080810E00038
:1039F000203F202020100F0008F88888E8081000D9
:103A0000203F20202320180008F88888E8081000AC
:103A1000203F200003000000C030080808380000E4
:103A200007182020221E020008F808000008F808E5
:103A3000203F210101213F20000808F8080800006C
:103A40000020203F2020000000000808F80808009F
:103A5000C08080807F00000008F888C02818080017
:103A6000203F20012638200008F808000000000050
:103A7000203F20202020300008F8F800F8F8080047
:103A8000203F003F003F200008F830C00008F80841
:103A9000203F200007183F00E01008080810E00051
:103AA0000F10202020100F0008F808080808F00068
:103AB000203F210101010000E01008080810E0008B
:103AC0000F18242438504F0008F888888888700020
:103AD000203F2000030C30200070880808083800C0
:103AE0000038202121221C00180808F808081800B6
:103AF0000000203F2000000008F808000008F80837
:103B0000001F202020201F000878880000C83808E7
:103B1000000007380E010000F80800F80008F8005F
:103B2000033C0700073C03000818688080681808F9
:103B300020302C03032C30200838C800C838080077
:103B40000000203F2000000010080808C8380800C6
:103B50002038262120201800000000FE020202006A
:103B60000000007F40404000000C30C0000000001A
:103B7000000000010638C00000020202FE00000042
:103B8000004040407F000000002010080408102082
:103B90000000000000000000000000000000000025
:103BA0008080808080808080000204080000000007
:103BB0000000000000000000000080808080000005
:103BC0000019242222223F2008F8008080000000F3
:103BD000003F112020110E000000008080800000B6
:103BE000000E112020201100000000808088F800C5
:103BF000000E112020103F200000808080800000F7
:103C0000001F222222221300008080F0888888185A
:103C10000020203F20200000000080808080800065
:103C2000006B94949493600008F8008080800000FA
:103C3000203F210000203F200080989800000000D5
:103C40000020203F20200000000000809898000005
:103C500000C08080807F000008F800008080800025
:103C6000203F24022D302000000808F8000000004A
:103C70000020203F20200000808080808080800005
:103C8000203F20003F20003F008080008080000017
:103C900000203F2100203F20000080808080000025
:103CA000001F202020201F00808000808000000056
:103CB00080FFA12020110E00000000808080800085
:103CC000000E112020A0FF80808080008080800076
:103CD00020203F21200001000000808080808000A3
:103CE0000033242424241900008080E08080000018
:103CF0000000001F20200000808000000080800065
:103D0000001F202020103F208080800000808080C5
:103D100000010E3008060100808000800080808055
:103D20000F300C030C300F0000808000808080007A
:103D30000020312E0E3120008080800000808080A5
:103D400080818E7018060100008080808080800055
:103D50000021302C2221300000000000807C020273
:103D600000000000003F404000000000FF00000095
:103D700000000000FF0000000002027C8000000044
:103D80000040403F00000000008040408000008074
:103D90000000000000010100000000000000000021
:103DA000002F000000000700070000147F147F149C
:103DB00000242A7F2A120023130864620036495522
:103DC000225000000007000000001C2241000000FB
:103DD00041221C000014083E08140008083E080890
:103DE000000000A0600000080808080800006060EB
:103DF0000000002010080402003E5149453E00002A
:103E0000427F4000004261514946002141454B310B
:103E1000001814127F10002745454539003C4A49D7
:103E20004930000171090503003649494936000649
:103E30004949291E000036360000000056360000B1
:103E4000000814224100001414141414000041222C
:103E50001408000201510906003E4955592E007C04
:103E60001211127C007F49494936003E41414122EE
:103E7000007F4141221C007F49494941007F0909D7
:103E80000901003E4149497A007F0808087F000087
:103E9000417F4100002040413F01007F0814224142
:103EA000007F40404040007F020C027F007F0408FA
:103EB000107F003E4141413E007F09090906003E56
:103EC0004151215E007F091929460046494949317F
:103ED0000001017F0101003F4040403F001F2040A2
:103EE000201F003F4038403F006314081463000760
:103EF0000870080700615149454300007F414100B7
:103F0000000204081020000041417F00000402016B
:103F10000204004040404040000001020400002034
:103F200054545478007F4844443800384444442072
:103F300000384444487F00385454541800087E091F
:103F400001020018A4A4A47C007F080404780000E7
:103F5000447D4000004080847D00007F10284400A4
:103F60000000417F4000007C04180478007C0804B5
:103F7000047800384444443800FC242424180018F1
:103F8000242418FC007C08040408004854545420DD
:103F900000043F444020003C4040207C001C204066
:103FA000201C003C4030403C004428102844001CA9
:103FB000A0A0A07C004464544C440000087F410051
:103FC0000000007F00000000417F08000008040896
:103FD0001008E6B19F00001060020CC00404040445
:103FE000FC04040404000004047C0320202020209E
:103FF0003F202020202000E58D8F00001010FF10B2
:1040000010009010FF1010F0800000000000FF0072
:10401000048241300F40807F00010600E7A7910035
:10402000002424A4FEA3220022CC0000FF000000F4
:1040300000080601FF00010404040404FF02020258
:1040400000E68A800000101010FF10900888888811
:10405000FF88888808000444827F01808040432CC8
:10406000102846818000E981A50000404042CC0034
:10407000004A32222AF121312D00000080403F40C9
:104080008081BDA1A1BFA1A1BD8100E68EA70000D6
:10409000101010FF9020984828090E2848A81800F2
:1040A0000242817F0040404242427E424242400002
:1040B000E599A8000080809E9292929EE0809EB238
:1040C000D2929E80000808F4949292F10001F2923C
:1040D0009494F80800E6B58B00001060028C00FE96
:1040E00002F202FE00F800FF000004047E01804797
:1040F000300F10270047807F0000E8AF9500004098
:104100004042CC009090909090FF1011161000004B
:1041100000003F1028603F1010010E3040F000E713
:10412000A88B00002424A4FE2322003E2222222267
:10413000223E0000080601FF0106404949497F4927
:1041400049494100E5BA8F00000000FC0404041452
:1041500015569454341404040040300F000101013A
:1041600041817F0101010503000000000000FF0103
:1041700001013109090909897101010101FFFF806C
:1041800080808080809681808080808080FFFF0199
:10419000818181FD8991A1C1FD81818101FFFF8024
:1041A0008080809F888482819F80808080FF1C3CEB
:1041B00064C48484C4643C9C00000000800000004F
:1041C00000003F3F000000311B0E0E1B31001C3C65
:1041D00064C48484C4643C1C00000000000000002F
:1041E00000003F3F000038380000000000001C3C89
:1041F00064C48484C4643C1C00000000000000000F
:1042000000003F3F00003838003F3F0000001C3CEA
:1042100064C48484C4643C1C00000000E0E000002E
:1042200000003F3F00003838003F3F003F3F0000A4
:1042300000000000000000003031323334353637E2
:1042400038394142434445464030580030313233DA
:1042500034353637383961626364656640307800DA
:10426000040000080000000000000002000100003F
:104270001030313233343536373839616263646532
:104280006678700030313233343536373839414250
:10429000434445465850000002400000000000A082
:1042A0000000000005400000000000C80000000001
:1042B0000C4000000000409C00000000194000007D
:1042C0000020BCBE0000000034400000BFC91B8EAF
:1042D00000000004B5400000504BCFD06607E2CF8D
:1042E000010000006C4100003E8251AADFEEA734BD
:1042F00001000000D9420000DCB5A0E23A301F976F
:10430000FFFFFFFFB4450000FD25A0C8E9A3C14F92
:10431000FFFFFFFFFF3F00000000008000000000E3
:10432000FF3F00000000008000000000784400080B
:104330000000002024000000280100089C44000820
:1043400024000020440B0000440100081C00000071
:1043500043000000F8FFFFFF0C0000000E0000000B
:104360000F0000002E0000001001000043000000BC
:10437000F8FFFFFF00404040404040404040414186
:10438000414141404040404040404040404040402A
:1043900040404040400502020202020202020202C4
:1043A00002020202022020202020202020202002C1
:1043B0000202020202029090909090901010101051
:1043C00010101010101010101010101010101010ED
:1043D0000202020202028888888888880808080881
:1043E000080808080808080808080808080808084D
:1043F0000202020240000000000000000000000075
:1044000000000000000000000000000000000000AC
:10441000000000000000000000000000000000009C
:10442000000000000000000000000000000000008C
:10443000000000000000000000000000000000007C
:10444000000000000000000000000000000000006C
:10445000000000000000000000000000000000005C
:10446000000000000000000000000000000000004C
:10447000000000000000000000001122334455112C
:10448000223344550000000000000000000000003E
:0C44900000000000000000000000000020
:04000005080000ED02
:00000001FF
